:020000040800F2
:10000000F821022045030008C1470008C13E00084E
:10001000BD470008FD180008F36700080000000055
:100020000000000000000000000000008D02000839
:10003000ED27000800000000E1020008F55C000860
:1000400069030008690300086903000869030008E0
:1000500069030008690300086903000869030008D0
:1000600069030008690300086903000869030008C0
:1000700069030008690300086903000869030008B0
:1000800069030008690300086903000869030008A0
:10009000011900086903000869030008FD2D000824
:1000A0006903000869030008690300086903000880
:1000B000690300086D5D0008690300086903000812
:1000C0006903000869030008690300086903000860
:1000D00069030008596400086903000869030008FF
:1000E0006903000869030008690300086903000840
:1000F0006903000869030008690300086903000830
:10010000690300086903000869030008690300081F
:100110006903000869030008795E000869030008A4
:1001200069030008690300086903000869030008FF
:1001300069030008690300086903000869030008EF
:10014000411A0008690300086903000869030008F0
:100150008124000869030008690300086903000896
:1001600069030008690300086903000869030008BF
:100170006903000869030008690300080000000023
:10018000690300086903000869030008690300089F
:10019000690300086903000869030008690300088F
:1001A00000000000000000006903000800F002F8F1
:1001B00000F05CF80AA090E8000C82448344AAF1A5
:1001C0000107DA4501D100F051F8AFF2090EBAE8A3
:1001D0000F0013F0010F18BFFB1A43F0010318477B
:1001E00084F00000A4F000000A444FF0000C10F866
:1001F000013B13F0070408BF10F8014B1D1108BFA5
:1002000010F8015B641E05D010F8016B641E01F844
:10021000016BF9D113F0080F1EBF10F8014BAD1C94
:100220000C1B09D16D1E58BF01F801CBFAD505E0B2
:1002300014F8016B01F8016B6D1EF9D59142D6D30C
:10024000704700000023002400250026103A28BF34
:1002500078C1FBD8520728BF30C148BF0B60704738
:100260001FB50EF033FA1FBD10B510BD00F0E8FE4B
:100270001146FFF7F5FF0AF019FD00F006FF03B481
:10028000FFF7F2FF03BC00F06BFF00002A4B196878
:100290000868B0E8F04F80F30988BFF36F8F4FF024
:1002A000000080F3118870470000000006480068D5
:1002B000006880F3088862B661B6BFF34F8FBFF362
:1002C0006F8F00DF00BF00BF08ED00E0DFF80C001B
:1002D000016841F470010160704700BF88ED00E0E3
:1002E000EFF30980BFF36F8F134B1A681EF0100FE6
:1002F00008BF20ED108A20E9F04F106008B44FF0DD
:10030000500080F31188BFF34F8FBFF36F8F0CF055
:10031000EBFD4FF0000080F3118808BC19680868F5
:10032000B0E8F04F1EF0100F08BFB0EC108A80F359
:100330000988BFF36F8F704724000020EFF305801A
:10034000704700000C48016841F4700101600B48DF
:1003500080470B480047FEE7FEE7FEE7FEE7FEE7C3
:10036000FEE7FEE7FEE7FEE7FEE700000548064978
:10037000044A064B7047000088ED00E0055D000868
:10038000AD010008F81D0220F8210220F81D02200E
:100390009FED1A1AF5EE000A40EE010ABDEEE00AE2
:1003A000F5EEC00A10EE100AF1EE10FA38BF401E4A
:1003B00000EE100A1349F7EE001AB8EEC00A30EE4C
:1003C000C00ADFED0F0A20EE200AFCEEC00A10EE94
:1003D000900AC0F3080000EE900A01EB8000F8EEEE
:1003E000600A90ED011A70EE600A90ED000A71EE5D
:1003F000E01A21EE800A00EE810A704783F9223E5E
:100400000000004460EA0008DFED190AB5EEC00AFA
:1004100060EE200ABDEEE01A11EE100AF1EE10FABD
:1004200038BF401E00EE100A1349F7EE001AB8EE6E
:10043000C00A30EEC00ADFED0F0A60EE200ABCEE03
:10044000E00A10EE100AC0F3080000EE100A01EBFB
:100450008000B8EE400A90ED011A70EEC00A90EDEF
:10046000000A71EEE01A21EE800A00EE810A704760
:1004700083F9223E0000004460EA000870B4058859
:100480000E884468D1F804C05368B54208D140884A
:100490004988884201BF11888D425188884203D023
:1004A00070BC6FF00200704705FB00F1880827D090
:1004B00094ED001ADCED000A94ED010ADCED011A5E
:1004C00031EE201AD4ED020A70EE211A9CED020AD8
:1004D00083ED001AC3ED011A94ED031ADCED031A43
:1004E00030EE800A401E71EE210A83ED020A04F10B
:1004F0001004C3ED030A03F110030CF1100CD7D163
:1005000011F0030030D0B0F1004F30D200282BDDC5
:10051000211F1B1FACF1040210F0010F0AD091ED56
:10052000010AD2ED010A091D121D30EE200A83EDE9
:10053000010A1B1D400817D091ED010AD2ED010AF6
:10054000401E30EE200A83ED010A91ED020AD2ED41
:10055000020A01F1080102F1080230EE200A83EDDF
:10056000020A03F10803E7D170BC00207047B4EC25
:10057000010A401EFCEC010A30EE200AA3EC010A3D
:10058000F5D1F1E701804280436070472DE9F34FD8
:1005900084B0049840680090486801900498B0F8CE
:1005A00000E04588DFEDFE0A00200290B0EE600A10
:1005B000AE4506D108884988884204BF7146864501
:1005C00004D06FF0020006B0BDE8F08F01985FEA3A
:1005D000010C18BFB7EE001A3DD000BFBEEB0C01F6
:1005E00017D0B1F1004F80F01F82002911DD021FEA
:1005F00011F0010F1CBFC2ED010A121D4B1006D0F5
:10060000C2ED010AC2ED020A08325B1EF8D100EB0E
:100610008100BCF10102A0EC011A19D0B2F1004F27
:1006200080F00882002A13DD031F12F0010F1CBFA7
:10063000C3ED010A1B1D511008D000BFC3ED010A14
:10064000C3ED020A491E03F10803F7D100EB820053
:10065000BCF1010CC2D14FF000080395002D14BF6E
:10066000B0EE602A002000F0BF8100BF009908FBB7
:1006700005F001EB800B0199DBED002A01EB800016
:100680000346F0EE421AC64552D9AEEB0802ABEB78
:10069000850112F0010F17D001EB850191ED000AE1
:1006A000B5EEC00AF1EE10FA07DDB4EEE10AF1EEA4
:1006B00010FA09DDF0EE401A06E0B1EE400AF4EE61
:1006C000C01AF1EE10FAF5D3521031D001EB850CBF
:1006D0009CED000AB5EEC00AF1EE10FA05DDB4EEAD
:1006E000E10AF1EE10FA09DD06E0B1EE400AF4EE9F
:1006F000C01AF1EE10FA01D2F0EE401A01EBC5017A
:1007000091ED000AB5EEC00AF1EE10FA05DDB4EE87
:10071000E10AF1EE10FA09DD06E0B1EE400AF4EE6E
:10072000C01AF1EE10FA01D2F0EE401A521ECDD1ED
:10073000F5EEC01AF1EE10FA00F07381F5EEC02A62
:100740000126F1EE10FA0099D4BFB1EE620AB0EEC4
:10075000620AB4EE610AF1EE10FA1CBFAEEB0802B9
:10076000B2F1010C47D005FB08F201EB820292EDD9
:10077000001A00BFB0EE410A05FB06F4B5EEC00A50
:1007800000EB8404F1EE10FACCBFF0EE400AF1EE7B
:10079000400AF4EE610AF1EE10FA28D1B5EB080C2C
:1007A00011D0BCF1004F7DD2BCF1000F0BDD00BFBA
:1007B00092ED000AD1ED000ABCF1010CE2EC010A55
:1007C000A1EC010AF4D129000ED0B1F1004F6AD298
:1007D000002909DD94ED000AD0ED000A491EE4EC81
:1007E000010AA0EC010AF5D1012002900BE0761C71
:1007F000BCF1010CBED10298012804D0F5EEC02A4C
:10080000F1EE10FA7ED09BED000AB5EB08009A4697
:100810005946064622D0B0F1004F74D200281DDDA3
:10082000091F10F0010F06D0F0EE400A80EEA01A6A
:1008300081ED011A091D401010D000BFD1ED010A51
:10084000401E80EE801A81ED011A91ED021AC1EE70
:10085000000AC1ED020A01F10801EFD1280026D0FB
:10086000B0F1004F7ED2002821DDAAF1040110F082
:10087000010F06D0D1ED010A80EE801A81ED011A38
:10088000091D401013D000BFD1ED010A401E80EEBB
:10089000801A81ED011AD1ED020A80EE801A81EDF5
:1008A000021A01E0CBE0D6E001F10801ECD1DDE96C
:1008B00000124FF000095FEA0E0773D0C14504BF74
:1008C00001EB860102EB850274D091ED000ADC4653
:1008D0005046330035D01C46B6F1004F7ED2002C76
:1008E0002FDD0B1FABF1040C16F0010F0FD0F0EE53
:1008F000400ADCED011AB0EE601A00EEE11A83ED59
:10090000011A01E08DE0B1E01B1D0CF1040C741024
:1009100015D000BFD3ED010A9CED011A40EE410A4B
:10092000C3ED010AD3ED020A9CED021A0CF1080C8A
:1009300040EE410AC3ED020A0833641EEAD101EB1E
:1009400086012B0036D0B3F1004F72D2002B31DD7F
:10095000A2F1040CAAF1040013F0010F0CD0DCED9D
:10096000010A00E08BE090ED011A001D40EE410A03
:10097000CCED010A0CF1040C5C1019D0DCED010A7D
:1009800090ED011A40EE410ACCED010ADCED020ABD
:1009900090ED021A083040EE410ACCED020A03E065
:1009A000000000000DE005E0641E0CF1080CE5D12C
:1009B00002EB830201EB88017F1E09F101097FF43C
:1009C0007DAF009808F10108001D00900398401EBB
:1009D00003907FF44BAE0299012900E058E004BF78
:1009E00006B0BDE8F08F00BFB5EEC00AF1EE10FA18
:1009F0007FF4E9AD04990EFB05F3002B4A684FF034
:100A000000010BD902EB810C9CED000AB5EEC00A87
:100A1000F1EE10FA02D1491C8B42F3D88B427FF4DD
:100A2000D2AD6FF00400CEE5E0EC010A491EFBD127
:100A3000EFE538E0E0EC010A521EFBD108E692ED4A
:100A4000000AD1ED000ABCF1010CE2EC010AA1ECB4
:100A5000010AF4D1B7E694ED000AD0ED000A491E70
:100A6000E4EC010AA0EC010AF5D1BDE6D1ED000AE3
:100A7000401E80EE801AA1EC011AF7D1EEE6D3ED0C
:100A8000000A401E80EE801AA3EC011AF7D10EE78F
:100A9000BCEC011AD1ED000A5B1E40EE410AE1EC0C
:100AA000010AF5D14DE7B0EC011AD2ED000A5B1E48
:100AB00040EE410AE2EC010AF5D17BE72DE9F04F67
:100AC00082B0466853680193058847884B880020A8
:100AD00000900888874201BFB2F800C0654552887F
:100AE00093421EBF6FF0020002B0BDE8F08F9FED91
:100AF000412A4FEA970EC7F3400B00BFDDE9000221
:100B000002EB800A4A6898464FF00009B0EE420AAC
:100B1000B4465FEA0E0025D092ED001ADCED001A13
:100B200002EB8302DCED010A01EE810A92ED001A6C
:100B300002EB8302401ED2ED001A02EB830200EEAC
:100B4000810A9CED021ADCED030A00040CF1100C82
:100B5000000C01EE210A92ED001A02EB830200EE76
:100B6000810AD9D117F0030026D0ACF10404A2EB1E
:100B7000830210F0010F08D002EB8302D4ED010ACA
:100B800092ED001A241D00EE810A5FEA0B0013D0DB
:100B900002EB830CD4ED010A9CED001A02EBC302B8
:100BA000401E00EE810AD4ED020A92ED001A04F113
:100BB000080400EE810AEBD109F10100AAEC010A58
:100BC0001FFA80F9486800EB8902A8F101001FFABA
:100BD00080F8B8F1000F99D1009806EB8706184409
:100BE00080B20090681E05042D0C87D102B0002051
:100BF000BDE8F08F0000000070B405880E884468DE
:100C0000D1F804C05368B54208D140884988884269
:100C100001BF11888D425188884203D070BC6FF0AB
:100C20000200704705FB00F1880827D094ED001AF8
:100C3000DCED000A94ED010ADCED011A31EE601AD8
:100C4000D4ED020A70EE611A9CED020A83ED001ADF
:100C5000C3ED011A94ED031ADCED031A30EEC00A5D
:100C6000401E71EE610A83ED020A04F11004C3ED27
:100C7000030A03F110030CF1100CD7D111F003009B
:100C800030D0B0F1004F30D200282BDD211F1B1FC8
:100C9000ACF1040210F0010F0AD091ED010AD2ED7F
:100CA000010A091D121D30EE600A83ED010A1B1DA9
:100CB000400817D091ED010AD2ED010A401E30EE36
:100CC000600A83ED010A91ED020AD2ED020A01F1F8
:100CD000080102F1080230EE600A83ED020A03F116
:100CE0000803E7D170BC00207047B4EC010A401E35
:100CF000FCEC010A30EE600AA3EC010AF5D1F1E741
:100D00002DE9F04F02884768B0F802804888D1F892
:100D1000049082B04FF0000A1646824207BF09884D
:100D200088456FF0020002B018BFBDE8F08F4FEAAF
:100D3000980B02EB42000190C8F34000CDF8000090
:100D400009EB8A01BBF1000F33D0019801EB820C53
:100D500001EB80043B46E64601EBC2054FEA0B007F
:100D600093ED000A401E81ED000A93ED010A01EBAC
:100D700002118CED000A93ED020A0CEB021C85EDCA
:100D8000000A93ED030A05EB021584ED000A04EB5B
:100D9000021403F11003E3D10EEB820000EB82009A
:100DA00000EB8201ABF10100504307EB0B1701EBA5
:100DB000001118F0030C21D03B1FA1EB82011CF0A5
:100DC000010F06D093ED010A01EB82011B1D81ED9D
:100DD000000A009880B100BF93ED010A01EB820484
:100DE00001EBC20184ED000A93ED020A401E81ED81
:100DF000000A03F10803EFD107EB8C070AF10100A9
:100E00001FFA80FA701E0604360C99D102B0002039
:100E1000BDE8F08F10B5431C02E010F8011B71B162
:100E20008107FAD14FF0013202C88C1A8C4314EAC0
:100E3000C211F9D0C01A0A0603D0C01E10BDC01AD4
:100E400010BD0A0401D0801E10BD0902FCD0401E56
:100E500010BD032A40F2308010F0030C00F0158022
:100E600011F8013BBCF1020F624498BF11F801CBAD
:100E700000F8013B38BF11F8013BA2F1040298BF12
:100E800000F801CB38BF00F8013B11F0030300F07C
:100E90002580083AC0F0088051F8043B083A51F820
:100EA00004CBA0E80810F5E7121D5CBF51F8043B25
:100EB00040F8043BAFF30080D20724BF11F8013B98
:100EC00011F801CB48BF11F8012B24BF00F8013BFA
:100ED00000F801CB48BF00F8012B704710B5203A4D
:100EE000C0F00B80B1E81850203AA0E81850B1E8E3
:100EF0001850A0E81850BFF4F5AF5FEA027C24BF99
:100F0000B1E81850A0E8185044BF18C918C0BDE88F
:100F100010405FEA827C24BF51F8043B40F8043B58
:100F200008BF7047D20728BF31F8023B48BF11F80D
:100F3000012B28BF20F8023B48BF00F8012B704767
:100F400002F0FF0343EA032242EA024200F037B80C
:100F50004FF0000200B5134694469646203922BF52
:100F6000A0E80C50A0E80C50B1F12001BFF4F7AF9D
:100F7000090728BFA0E80C5048BF0CC05DF804EB7F
:100F8000890028BF40F8042B08BF704748BF20F8ED
:100F9000022B11F0804F18BF00F8012B70477047EB
:100FA0007047704710B500F02BF8006810BD10B501
:100FB000044600F025F8046010BD4FF0000204293B
:100FC000C0F0128010F0030C3FF4C4AFCCF1040C5D
:100FD000BCF1020F18BF00F8012BA8BF20F8022BAC
:100FE000A1EB0C01FFF7B6BF5FEAC17C24BF00F89C
:100FF000012B00F8012B48BF00F8012B70470000BF
:1010000000487047941D02201FB584B000200A9C40
:1010100006AB04AA02A90094AFF3008018B1DDE981
:10102000020108B010BD0348204000F037F800204E
:101030000146F6E70000207C00487047941D02201E
:101040007546FFF7F9FFAE4605006946534620F0A6
:101050000700854618B020B5FFF788F9BDE82040A5
:101060004FF000064FF000074FF000084FF0000B64
:1010700021F00701AC46ACE8C009ACE8C009ACE817
:10108000C009ACE8C0098D46704710B50446AFF3FF
:1010900000802046BDE81040FFF7F1B810B500F021
:1010A00009F8BDE81040AFF30080002801D000F03F
:1010B00057B8704710B5022803D0410103D50DA1E0
:1010C00012E0002010BD010101D50FA10CE0C1000C
:1010D00001D511A108E0810001D512A104E0400072
:1010E00001D513A100E0002115A000F03FF8012078
:1010F00010BD0000496E76616C6964204F706572A6
:101100006174696F6E00000044697669646520420D
:1011100079205A65726F00004F766572666C6F7742
:1011200000000000556E646572666C6F7700000009
:10113000496E657861637420526573756C74000044
:101140005349474650453A2041726974686D657449
:10115000696320657863657074696F6E3A2000007A
:1011600001491820ABBEFEE72600020070B5054617
:101170000C460A2000E06D1C00F011F835B128780B
:101180000028F8D102E0641C00F009F814B12078BE
:101190000028F8D1BDE870400A20AFF3008008B500
:1011A00069468DF800000320ABBE08BD7047CA43F6
:1011B0000260704721B1826842F00102826003E060
:1011C000826822F001028260704700000021084A14
:1011D0001168084A1140D0E900231A4383681A4372
:1011E000C3681A431143044AC2F80413704700004D
:1011F00004230140E030FCFF002001400146C86CA0
:1012000080B270470246002013680B400BB10120EA
:1012100000E000207047000030B5024600200023A7
:101220005068104C20400D790C6844EA0524204396
:10123000506090680C4C2040D1E903542C438D68D9
:101240002C434D7944EA450420439060D06A20F451
:1012500070000C7D641EE4B2234340EA0350D06268
:1012600030BD0000FFFEFFFCFDF7FFC0F0B50446F7
:101270000D4600200021092D11DDE068A5F10A06C8
:1012800006EB4607072606FA07F18843A5F10A068A
:1012900006EB460603FA06F10843E0600CE020691D
:1012A00005EB4507072606FA07F1884305EB4506D7
:1012B00003FA06F108432061072A0FDA606B561E15
:1012C00006EB86071F2606FA07F18843561E06EB33
:1012D000860605FA06F10843606322E00D2A0FDA5C
:1012E000206BD61F06EB86071F2606FA07F18843F8
:1012F000D61F06EB860605FA06F10843206310E0C8
:10130000E06AA2F10D0606EB86071F2606FA07F132
:101310008843A2F10D0606EB860605FA06F108439E
:10132000E062F0BD816841F080418160704700005B
:1013300038B10849096841F40001074AC2F80413AA
:1013400006E00449096821F40001034AC2F80413C5
:1013500070470000042301400020014010B52DED2E
:10136000028BB0EE408AB0EE480A06F037F9BDECC9
:10137000028B10BD10B52DED028BB0EE408AF0EE61
:10138000608AF0EE680AB0EE480A06F0BDF9BDECDE
:10139000028B10BD10B52DED028BB0EE408AB0EE81
:1013A000480AFEF7F5FFBDEC028B10BDF0EE400AD7
:1013B000F5EEC00AF1EE10FA02DDB0EE600A7047F9
:1013C000B1EE600AFBE7000018B19FED020A80ED64
:1013D000000A70470000000018B19FED020A80ED7E
:1013E000000A7047DF8FB44170B52DED0C8B84B0CF
:1013F00006460C4615469FED990AF0EE408A9FED91
:10140000970AB0EE409A9FED950AF0EE40BA9FED34
:10141000930AF0EE409A9FED910AB0EE40AA0EB109
:1014200004B11DB904B0BDEC0C8B70BD8C48FFF746
:10143000CBFF8C48FFF7D0FF8A48D0ED000A9FED24
:101440008A1A60EE810AB0EE600A00F039F9F0EE17
:10145000408A28EEA80AF0EE408A8248D0ED000AC1
:10146000B0EE001A60EE810A9FED7F1A60EE810AED
:10147000B0EE600A00F024F9B0EE409A29EE090AB5
:10148000B0EE409ADFED790AB7EE000A00EEA80A46
:10149000DFED770A00EEC90ADFED760A20EE200ABA
:1014A000754880ED000A6E4890ED000ADFED730A82
:1014B00080EE201AB7EE000A31EE000A20EE000A94
:1014C0006D48D0ED000A80EE801A6D4880ED001A5C
:1014D00094ED000AB5EEC00AF1EE10FA0DD194EDCC
:1014E000010AB5EEC00AF1EE10FA06D194ED020A37
:1014F000B5EEC00AF1EE10FA46D09FED580AB0EEF4
:10150000408A0020019002900390D4ED000A60EE22
:10151000A00A94ED011AD4ED011A41EE210A94EDCE
:10152000021AD4ED021A41EE210AB0EE600A00F070
:10153000A9F8B0EE408A94ED000A20EE080A8DED7D
:10154000010A94ED010A20EE080A8DED020A94EDDD
:10155000020A20EE080A8DED030ADDED010AF1EE24
:10156000600AB0EE600AFFF7F9FEF0EE409A9DEDDA
:10157000031AF0EE410A9DED021AB0EE410AFFF7A0
:10158000F9FEB0EE40AA07E09FED340AF0EE409A73
:101590009FED320AB0EE40AA95ED000AB5EEC00A02
:1015A000F1EE10FA0DD195ED010AB5EEC00AF1EE9B
:1015B00010FA06D195ED020AB5EEC00AF1EE10FA66
:1015C0003CD0B0EE690A00F07BF8B0EE408AB0EE95
:1015D000690AFFF7DFFEB0EE40DAB0EE4A0A00F02B
:1015E0006FF8F0EE40AAB0EE4A0AFFF7D3FEB0EE75
:1015F00040BA28EE2A0AD5ED010A20EE200AD5EDE0
:10160000000A0DEE200A68EE0B0A95ED021A00EEB4
:10161000810AB0EE40CA95ED010A20EE0B0AD5ED25
:10162000020A0AEEE00AF0EE40CAF0EE6C0AB0EEF2
:101630004C0AFFF79FFEF0EE40BA03E09FED070A69
:10164000F0EE40BAB0EE4A1AF0EE690AB0EE6B0A5C
:10165000304606F067FB00BFE4E600000000000033
:10166000C8020020CC02002035FA8E3CC1BFAD3B41
:101670009DF8C5362F7C1C41D0020020506CC24A18
:10168000D4020020F0EE400AF6EE001A60EEA11A35
:10169000B0EE611AB0EE600A10EE100A0749A1EB35
:1016A000600000EE100A21EE002AF7EE081A42EE62
:1016B000401A61EE801AB0EE610A7047DF59375F59
:1016C00010B52DED028BB0EE408AB0EE480AFEF761
:1016D0009BFEBDEC028B10BD2DE9F0412DED028B80
:1016E0009AB00546B0EE408A0E461746984600204E
:1016F0001790189019901490159016904DB146B10E
:101700003FB1B8F1000F04D0B5EEC08AF1EE10FA87
:1017100005D100201AB0BDEC028BBDE8F08196ED3A
:10172000000A8DED170A96ED010A8DED180A96ED67
:10173000020A8DED190A97ED000A8DED140A97ED56
:10174000010A8DED150A97ED020A8DED160A17AA0A
:1017500014A9284606F038F9402104A8FFF7F8FB41
:1017600000200090019002900390002417A904A883
:101770000AF0EEFF00BF30E004A800EB041090ED8B
:10178000000AD5ED000A20EE200A04A800EB0410A0
:10179000D0ED010A95ED011A00EE810A04A800EBD4
:1017A0000410D0ED020A95ED021A00EE810A04A899
:1017B00000EB0410D0ED030A95ED031A00EE810A48
:1017C00020EE080AF0EE000A80EE201A684600EBD0
:1017D000840080ED001A601CC4B2042CCCDB002411
:1017E00010E005EB840090ED000A684600EB8400F1
:1017F000D0ED000A30EE200A05EB840080ED000AEF
:10180000601CC4B2042CECDB28460AF0A5FA0120C7
:1018100080E7000070B58AB04FF4407003F00EF816
:101820004FF47A7007F0E2FD09F0B2F90AF020FFF8
:1018300009F018FC14222AA105A8FFF74FFB002588
:101840000AE005A8405D30B105A8405D294908704F
:10185000084605F04DFB6D1C112DF2DB20A30FCBCC
:1018600001AC0FC400240AE001A8005D30B101A85A
:10187000005D21490870084605F00AFC641C102C24
:10188000F2DB07F023FF5A2147F2305006F000FB4D
:1018900009F04CF95A214EF6602004F0FFFA0020BE
:1018A00005231A460121009000F042F8002005238C
:1018B0001A460121009000F0DBF8002608E03046CF
:1018C00009F004FC40F2C52007F0EEFD701CC6B222
:1018D000042EF4DB0AF0C6FA06F052FD0AB070BD21
:1018E0000102030405060708090A0B0C0D0E0F1070
:1018F000110000003C0602204C06022000BFFEE75B
:1019000010B50221084800F08BFA58B102210648B0
:1019100000F090F9054A0021034800F0A4FB0348B9
:1019200000F0ACFC10BD000000640040A0070220E5
:101930002DE9F0418AB004460D4616461F46DDF8F3
:1019400040800121082003F0D1F80121480603F06E
:10195000DDF80121480603F0E9F800214FF000709E
:1019600003F0E4F80320089002208DF82400002002
:101970008DF8260003208DF8250001208DF8270022
:1019800008A92D4802F01CF8092200212A4802F07B
:101990005FF809220121284802F05AF800208DF84A
:1019A0001A0001208DF81B0000208DF81C008DF816
:1019B0001D008DF81E008DF81F008DF816808DF823
:1019C00017408DF818608DF81950ADF8147005A9FE
:1019D0001A4800F0BEFA00208DF80E008DF80F00B6
:1019E00001208DF810000020ADF80400ADF80600CD
:1019F000ADF80800ADF80A00ADF80C0001208DF834
:101A0000110001A800F06AF9012202210B4800F040
:101A100097FA14208DF8000004208DF801000020B2
:101A20008DF8020001208DF80300684602F0CAFE1E
:101A300000200AB0BDE8F081000C024000640040C4
:101A400010B50221084800F0EBF958B10221064810
:101A500000F0F0F8054A0021034800F004FB0348B9
:101A600000F00CFC10BD000000680040B40702202C
:101A70002DE9F0418AB004460D4616461F46DDF8B2
:101A800040800121022003F031F80121880603F093
:101A90003DF80121880603F049F800214FF08060ED
:101AA00003F044F84FF44050089002208DF82400D1
:101AB00000208DF8260003208DF8250001208DF8E8
:101AC000270008A92D4801F07BFF09220C212B4893
:101AD00001F0BEFF09220D21284801F0B9FF0020C6
:101AE0008DF81A0001208DF81B0000208DF81C00D5
:101AF0008DF81D008DF81E008DF81F008DF81680E2
:101B00008DF817408DF818608DF81950ADF81470E5
:101B100005A91B4800F01DFA0E208DF80E000020CC
:101B20008DF80F0001208DF810000020ADF80400A2
:101B3000ADF80600ADF80800ADF80A00ADF80C00ED
:101B400001208DF8110001A800F0C8F8012202213F
:101B50000B4800F0F5F940208DF8000004208DF8C6
:101B6000010000208DF8020001208DF80300684676
:101B700002F028FE00200AB0BDE8F0810004024017
:101B800000680040F0B585B004460D4616461F4675
:101B90004FF40070009000208DF808008DF80900C7
:101BA00008208DF80A00200A8DF80B00E1B28DF8AC
:101BB0000C10290A8DF80D10E9B28DF80E10310ABB
:101BC0008DF80F10F1B28DF81010390A8DF8111040
:101BD000F9B28DF812106946024800F0BCFA05B05F
:101BE000F0BD0000006800402DE9F04104460D46BC
:101BF00016461F4640F2FF100C490860002008728C
:101C0000487208208872200AC87208460473290A9C
:101C100041738573310AC1730674390A417487743C
:101C20000146034800F097FABDE8F0818C070220D6
:101C300000640040B1F5007F3AD00FDC202928D0A5
:101C400006DC01291CD004291DD0082940D11DE043
:101C5000402921D0B1F5807F3AD126E0B1F5004F7F
:101C600031D006DCB1F5806F25D0B1F5006F2FD1F2
:101C700024E0B1F5803F12D0B1F5003F28D111E04A
:101C8000154A826025E00822C26022E01022C2606C
:101C90001FE0082202611CE01022026119E0082204
:101CA000426016E01022426013E00422426010E01D
:101CB000042242600DE0042242600AE000228261B8
:101CC0000422426005E0002282610422426000E0BA
:101CD00000BF00BF704700000101010010B50021E6
:101CE000837A012202FA03F13D4A126842F00102AE
:101CF0003B4B1A603A4A1C3212688A43384B1C33F9
:101D00001A60027BCAB9364A0C3212688A43344BD5
:101D10000C331A604288C38842EA0343304A403297
:101D2000847A42F834300288838842EA03432C4A9A
:101D30004032847A02EBC4025360027B012A19D13B
:101D4000274A0C3212680A43254B0C331A6042882A
:101D5000038842EA0343224A4032847A42F834300C
:101D6000C288838842EA03431D4A4032847A02EBE8
:101D7000C4025360C27A3AB9194A121D12688A43E2
:101D8000174B1B1D1A6006E0154A121D12680A4304
:101D9000134B1B1D1A60028932B9114A14321268A2
:101DA0008A430F4B14331A600289012A06D10C4A68
:101DB000143212680A430A4B14331A60427B012A18
:101DC00006D1074A1C3212680A43054B1C331A60BD
:101DD000034A126822F00102014B1A6010BD000094
:101DE0000066004030B585B004460D4600950020E1
:101DF0008DF808008DF8090008208DF80A000020F1
:101E000004E0225C0DF10B010A54401C0828F8DBA9
:101E10006946024800F09FF905B030BD00680040F7
:101E200070B504460D46002660692840002871D030
:101E3000B5F5807F5CD010DC082D35D006DC012D97
:101E400020D0022D24D0042D72D127E0102D31D0C6
:101E5000202D35D0402D6BD138E0B5F5004F60D046
:101E600009DCB5F5007F49D0B5F5806F4CD0B5F5EC
:101E7000006F5DD14FE0B5F5803F2DD0B5F5003F47
:101E800056D12FE0A0682D4900F0F0FA064651E047
:101E9000E068032100F0EAFA06464BE0E06808211A
:101EA00000F0E4FA064645E0E068102100F0DEFAB2
:101EB00006463FE02069032100F0D8FA064639E0E3
:101EC0002069082100F0D2FA064633E0206910218B
:101ED00000F0CCFA06462DE06068082100F0C6FA52
:101EE000064627E06068102100F0C0FA064621E0AF
:101EF000A069012100F0BAFA06461BE0A0690221A0
:101F000000F0B4FA064615E0A069042100F0AEFA2C
:101F100006460FE00FE0A069702100F0A7FA064620
:101F200008E06068042100F0A1FA064602E0FFE73D
:101F3000002600BF00E00026304670BD0101010010
:101F40001AB143690B43436102E043698B43436128
:101F5000704730B5024600200023146824F00204C4
:101F60001460146844F00104146000E05B1C5468C1
:101F700004F001041CB94FF6FF74A342F6D1546873
:101F800004F001040CB900206CE08C79012C04D120
:101F9000146844F08004146003E0146824F08004A2
:101FA0001460CC79012C04D1146844F0400414600E
:101FB00003E0146824F0400414600C7A012C04D16E
:101FC000146844F02004146003E0146824F0200432
:101FD00014604C7A012C04D1146844F0100414608D
:101FE00003E0146824F0100414608C7A012C04D1EE
:101FF000146844F00804146003E0146824F0080432
:102000001460CC7A012C04D1146844F004041460E8
:1020100003E0146824F0040414608C78A407CD78DD
:1020200044EA05640D7944EA05444D7944EA0554CF
:102030000D886D1E2C43D461146824F001041460D3
:10204000002300E05B1C546804F001041CB14FF64F
:10205000FF74A342F6D1546804F001040CB10020CF
:1020600000E0012030BD10B500F5D87303EB01137B
:102070001B6803F004031372137A53B900F5D87385
:1020800003EB01131B6840F2FF7404EA535313601F
:1020900009E000F5D87303EB01131B686FF060448F
:1020A00004EAD303536000F5D87303EB01131B68F4
:1020B00003F00203537200F5D87303EB01135B685E
:1020C00003F00F03937200F5D87303EB01135B6801
:1020D0001B0AD37400F5D87303EB01139B68D3720A
:1020E00000F5D87303EB01139B681C0A147300F509
:1020F000D87303EB01139B681C0C547300F5D87361
:1021000003EB01139B681B0E937300F5D87303EB6D
:102110000113DB68D37300F5D87303EB0113DB689D
:102120001C0A147400F5D87303EB0113DB681C0C54
:10213000547400F5D87303EB0113DB681B0E937422
:1021400021B9C36843F02003C36003E0036943F08F
:102150002003036110BD10B502460020936803F010
:102160008063B3F1806F00D110E0936803F00063E7
:10217000B3F1006F01D1012008E0936803F08053B0
:10218000B3F1805F01D1022000E00420042874D064
:1021900002F5C07303EB00131B6803F0010402F5A2
:1021A000C07303EB00131C600B7A7BB94B7A0C886D
:1021B00043EA445302F5C07404EB0014246823433B
:1021C00002F5C07404EB0014236010E00B7A4C6835
:1021D00043EAC4034C7A234302F5C07404EB0014B1
:1021E0002468234302F5C07404EB001423608B7A47
:1021F00003F00F038B7202F5C07303EB00135B68EF
:1022000023F00F0402F5C07303EB00135C6002F5CA
:10221000C07303EB00135B688C7A234302F5C07430
:1022200004EB001463608B7B1C064B7B44EA034485
:102230000B7B44EA0323CC7A234302F5C07404EBFE
:102240000014A3608B7C1C064B7C44EA03440B7C8B
:1022500044EA0323CC7B234302F5C07404EB00144F
:10226000E36002F5C07303EB00131B6843F0010445
:1022700002F5C07303EB00131C6010BD10B50446DB
:1022800040F205222068811A904212D00ADCA0F2A6
:10229000012000287CD001287FD002287ED003288E
:1022A00079D17CE0012929D002294CD0FB29F7D132
:1022B000BAE06848008800B266490881207BE17A6C
:1022C00040EA012063490880A17B607B41EA00204D
:1022D00000B260498880217CE07B41EA002000B2A6
:1022E0005C494880607C88714FF4047104F10B00F4
:1022F000FFF778FD012000F0E3FAA9E056480088D6
:1023000000B255490881207BE17A40EA0120524918
:102310000880A17B607B41EA002000B24E498880A2
:10232000217CE07B41EA002000B24B494880607C80
:10233000887140F2112104F10B00FFF753FD0220D8
:1023400000F0BEFA84E04548008800B243490881A5
:10235000207BE17A40EA012040490880A17B607B34
:1023600041EA002000B23D494880217CE07B41EAFF
:10237000002000B239498880607C887140F21221C7
:1023800004F10B00FFF72EFD032000F099FA5FE047
:1023900002E002E002E05AE000BF00BF00BF207888
:1023A000401E2F4908700846007800EB80002D4938
:1023B00031F8100000B22A49097801EB8101294A5D
:1023C00002EB41010881207BE17A40EA01202449A7
:1023D000097801EB810122F81100A17B607B41EAC1
:1023E000002000B21E49097801EB810102EB410196
:1023F0004880217CE07B41EA002000B2184909783E
:1024000001EB810102EB41018880607C144909786D
:1024100001EB810102EB4101887111490978091D25
:10242000C8B200F04DFA13E0207BE17A40EA0120C7
:102430000D490860A17B607B41EA00200A494860A1
:1024400040F2013104F10B00FFF7CCFC00E000BFCB
:1024500000BF10BD440702204E070220580702208B
:1024600000010020620702204C10022002460020DA
:1024700002EA01030BB1012000E0002070470000D8
:1024800010B51049104800F043F9C8B10D490E4885
:1024900000F022F808F04AFC0BF0AEF901280FD04A
:1024A0000A490B4800680AF0A9FB0848006838B1DF
:1024B0004FF0805007490860BFF34F8FBFF36F8F15
:1024C00010BD00000008002088640240780200204F
:1024D000FC01002004ED00E00246094B9A4201D2C3
:1024E000084801E00648103801F000531BB1064BC4
:1024F0000B40C36002E0044B0B4083607047000058
:1025000010640240006002407D0F7D0F0246094BBF
:102510009A4201D2084801E00648103801F0005301
:102520001BB1064B0B40C36002E0044B0B408360C1
:102530007047000010640240006002407D0F7D0F74
:1025400021B1026842F00102026003E0026822F059
:102550000102026070470000016821F00101016082
:102560000021016041608160C16001612121416100
:102570004A49884204D13D21484A103A91608CE092
:1025800046491831884205D14FF47461434A103AE4
:10259000916082E041493031884205D14FF4741195
:1025A0003E4A103A916078E03C494831884205D172
:1025B0004FF07461394A103A91606EE037496031EA
:1025C000884204D13649354A103AD16065E0334932
:1025D0007831884204D13349304A103AD1605CE006
:1025E0002E499031884204D12F492C4A103AD160AB
:1025F00053E02A49A831884205D14FF03D51274A7E
:10260000103AD16049E02949884204D13D21274A46
:10261000083A116041E025491831884205D14FF44C
:102620007461224A083A116037E02049303188420B
:1026300005D14FF474111D4A083A11602DE01B4971
:102640004831884205D14FF07461184A083A116048
:1026500023E016496031884204D11149134A121F00
:1026600011601AE011497831884204D10D490F4AAE
:10267000121F116011E00D499031884204D10A49BE
:102680000A4A121F116008E00849A831884204D1A3
:102690004FF03D51054A121F116070471060024013
:1026A0003D000020400F002000003D20106402404B
:1026B00021B1026842F48022026003E0026822F441
:1026C00080220260704722B1036843F40023036054
:1026D00003E0036823F400230360016170470146AF
:1026E00000200A6802F001020AB1012000E0002087
:1026F00070470146486880B27047014600200A686A
:1027000002F400220AB1012000E00020704700001E
:1027100030B503460A46002000240B4DAB4201D2DF
:102720000A4901E00849103902F000550DB14C6822
:1027300000E00C68064D2C4004EA02050DB10120B2
:1027400000E0002030BD0000106402400060024044
:102750007D0F7D0F10B501F080034BB122B14369AD
:1027600043F08003436103E0436923F08003436146
:1027700080290BD02AB1036801F01E0423430360B3
:1027800004E0036801F01E04A343036010BD0000D1
:1027900010B500220268134B1A40CC680B68234323
:1027A0004C6923438C692343CC6923430C6A23433C
:1027B0004C6A23438C6A23434C6B23438C6B234327
:1027C0001A430260426922F00702D1E90B34234325
:1027D0001A4342610B6943604B6883608B68C36036
:1027E00010BD00003F801CF0416070477047000042
:1027F00070B50446002500BF11E005EBC5002A496D
:1028000001EB8000C07CC0F3401018B1284606F0F0
:102810001BFF02E0284606F023FF681CC5B2072D07
:10282000EBDD092C05D108F0FDF909201F490870DE
:1028300037E01E480078A04201D01C4804701C48B4
:10284000007878B91B480078401C1A49087008467F
:102850000078322805DD00200870144800781449FB
:10286000087070BD1448007880B908F0E5F9134885
:10287000007840B10020114908700D480078401ED2
:102880000B49087002E001200C4908700A480078E2
:10289000401C0949087008460078142801DD002012
:1028A000087000BFDDE70000220A02203901002085
:1028B0003C0100203D0100203A0100203B010020A6
:1028C00010B5044604EBC400454901EB80000068E4
:1028D00004EBC401424A02EB810148600AF09CFF0C
:1028E00004EBC4013E4A02EB8101086004EBC40022
:1028F000114601EB8000C07CC0F38010B0B104EB46
:10290000C40001EB8000C07C20F0400004EBC40157
:1029100002EB8101C87404EBC400114601EB800096
:10292000006804EBC40102EB8101C86004EBC40041
:102930002B4901EB8000806990B304EBC401284A65
:1029400002EB81018869804758B304EBC400244935
:1029500001EB8000C07C20F02000203004EBC4019B
:102960001F4A02EB8101C87404EBC400114601EB5D
:102970008000C07C20F08000803004EBC40102EBBA
:102980008101C87404EBC400114601EB8000006AA9
:1029900028B304EBC40102EB8101086A80471EE002
:1029A0000FE0FFE704EBC4000D4901EB8000C07CA1
:1029B00020F0800004EBC401094A02EB8101C874D5
:1029C0000DE004EBC400064901EB8000C07C20F060
:1029D000800004EBC401024A02EB8101C87410BDFF
:1029E000220A022010B58CB00446302258496846AD
:1029F000FEF774FA00209EE000EB40013DF8112044
:102A000000EBC001534B03EB8101098A62F30B0118
:102A100000EBC00203EB8202118200EB40016A4628
:102A200002EB41014A8800EBC00103EB8101B1F8E0
:102A3000111062F30F1100EBC00203EB8202A2F847
:102A4000111000EB40016A4602EB4101097900EBED
:102A5000C00203EB8202D27C61F3440200EBC001AE
:102A600003EB8101CA74002100EBC00203EB820278
:102A7000916100EBC00203EB8202D16100EBC00266
:102A800003EB8202116200EBC0011A4602EB8101E6
:102A9000C97C21F00101491C00EBC00203EB82025A
:102AA000D17400EBC0011A4602EB8101C97C21F010
:102AB0002001203100EBC00203EB8202D17400EB55
:102AC000C0011A4602EB8101C97C21F0400140316E
:102AD00000EBC00203EB8202D17400EBC0011A4686
:102AE00002EB8101C97C21F08001803100EBC00242
:102AF00003EB8202D1749FED180A10EE101A00EB5E
:102B0000C00203EB8202516100EBC0011A4602EBE6
:102B100081010C6000EBC00102EB81014C6000EB15
:102B2000C00102EB81018C6000EBC00102EB81016E
:102B3000CC60411CC8B20828FFF65EAF07480549C3
:102B400088610748C861074808620CB010BD0000E2
:102B5000B4E90008220A022000000000A950000881
:102B6000B5C40008BFC400080AF056FE9E490860BC
:102B700008460068FFF736FF392009F091FF32E17F
:102B80000AF04AFE98490860082098490870984859
:102B900090F8330120F04001954880F8331190F807
:102BA000330120F02001924880F83311002409E11C
:102BB00004EBC4008E4901EB8000C07C00F00100F2
:102BC00000B9FEE004EBC400894901EB8000006815
:102BD00085490968081A04EBC401854A02EB8101A2
:102BE000098AC1F30B01884260D904EBC400114685
:102BF00001EB8000C07CC0F3401008BB04EBC400B4
:102C000001EB8000C07C20F04000403004EBC401A8
:102C100002EB8101C87404EBC400114601EB800093
:102C2000C07C20F02000203004EBC40102EB8101C5
:102C3000C8746D48006804EBC40102EB8101886030
:102C400004EBC4006A4901EB8000C07CC0F3430080
:102C50006649097801EBC101654A02EB8101C97C33
:102C6000C1F34301884201DD60490C70604890F86F
:102C7000330120F0400040305D4981F833010846BF
:102C800090F8330120F02000203081F8330104EB6C
:102C9000C40001EB8000C069002806D004EBC40129
:102CA000534A02EB8101C869804789E004EBC40004
:102CB0004F4901EB8000C0684B490968081A04EBD2
:102CC000C4014B4A02EB8101B1F81110B0EB111FA6
:102CD0001BD204EBC400114601EB8000C07C20F045
:102CE000400004EBC40102EB8101C87404EBC40092
:102CF000114601EB8000C07C20F02000203004EB66
:102D0000C40102EB8101C8745AE004EBC4003849E5
:102D100001EB8000C07C20F0400004EBC401344A89
:102D200002EB8101C87404EBC400114601EB800082
:102D3000C07CC00968B104EBC40001EB8000C07C1A
:102D400020F02000203004EBC40102EB8101C874A4
:102D50000DE004EBC400264901EB8000C07C20F0AC
:102D6000200004EBC401224A02EB8101C87404EB89
:102D7000C4001F4901EB8000006804EBC4011C4A39
:102D800002EB8101496888421AD904EBC40011465C
:102D900001EB8000006804EBC40102EB810149688B
:102DA000401A00EE100AF8EE400A9FED121A81EE6A
:102DB000200A10EE100A04EBC40102EB8101486105
:102DC00000BF641C082CFFF6F3AE08490978491CC3
:102DD000C8B2FFF70DFD0A2009F062FE002009F0DD
:102DE00009FD05490860CBE63401002038010020C8
:102DF000220A022000007A443001002010B54FF46E
:102E0000807000F011F840B14FF4807000F006F8C7
:102E100007F094FF172002F0ABFA10BD01490860DB
:102E200070470000143C014001460020034A12682C
:102E30000A400AB1012000E000207047143C014024
:102E4000002123498279002A3AD00A461268036891
:102E50009A430B461A600A1D126803689A430B1DB9
:102E60001A60027911440A6803681A430A60184A12
:102E70000832126803689A43154B08331A601A1D0A
:102E8000126803689A43124B0C331A604279102A75
:102E90000ED11A1F126803681A430D4B08331A60CB
:102EA0001A1D126803681A43094B0C331A600DE0AF
:102EB0000749427911440A6803681A430A6005E029
:102EC000027911440A6803689A430A607047000057
:102ED000003C014001490860704700000C3C024082
:102EE00070B504460A460026092502B909E0012A00
:102EF00001D1160205E0022A01D1160201E04FF4C9
:102F0000407600F09FF80546092D28D11548006845
:102F100020F4407013490860084600683043086098
:102F20000846006820F0F80008600846006844F091
:102F3000020108430B4908600846006840F48030ED
:102F4000086000F07FF805460648006820F002009F
:102F5000044908600846006820F0F8000860284628
:102F600070BD0000103C024009201349096801F4BB
:102F70008031B1F5803F01D101201CE00E49096884
:102F800001F0100109B1062015E00B49096801F4B0
:102F9000807109B102200EE00749096801F0E001E3
:102FA00009B1072007E00449096801F0020109B1ED
:102FB000082000E0092070470C3C024003480068EC
:102FC00040F000400149086070470000103C02409A
:102FD00030B502460C46092500F034F80546092DA7
:102FE00019D10E48006820F440700C49086008466A
:102FF000006840F4007008600846006840F0010076
:103000000860146000F01EF805460448006820F0CF
:10301000010002490860284630BD0000103C024013
:103020000548006800F0004028B1044802490C3906
:103030000860034808607047103C02402301674560
:10304000AB89EFCD08B509200090FFF78DFF009008
:1030500002E0FFF789FF00909DF800000128F8D0FA
:103060009DF8000008BD000010B52DED028B044650
:1030700001204E49086000204D4908604B48006817
:1030800001281BD14B4890ED732AF0EE421A90EDC7
:10309000382AB0EE421A484890ED032AB8EE422A88
:1030A000F0EE420A90ED022AB8EE422AB0EE420A51
:1030B000424807F009FC4249086020E03B480068AC
:1030C000E8B93D4890ED020AB8EE400A3D4880ED6F
:1030D000000A394890ED030AB8EE400A394880EDFD
:1030E000010A344890ED380A364880ED020A31482A
:1030F00090ED730A334880ED030A314908602C488B
:103100000068012818D12B4890ED730AF0EE401AA0
:1031100090ED380AB0EE401A2B4890ED000AF8EE18
:10312000C00A2A4890ED000AB8EEC00A234807F00A
:10313000CBFB274908601CE01D480068C8B923483C
:1031400090ED000AB8EEC00A224880ED000A1E4841
:1031500090ED000AB8EEC00A1E4880ED010A9FED0E
:103160001E0A80ED020A9FED1C0A80ED030A184931
:1031700008601A4800F08AFEB0EE408AF0EE608ADD
:1031800051EC180B0AF090FD15490860154800F045
:103190007DFEB0EE408AF0EE608A51EC180B0AF02A
:1031A00083FD11490860BDEC028B10BDC0020020F8
:1031B000C40200204C0E02204C100220801A022073
:1031C000D4010020741D0220BC020020B80200209F
:1031D000D0010020841D0220000000007010022099
:1031E000DC01002078150220D801002010B504462B
:1031F00004B910BD94F8B80020B904F10C0007F030
:103200002DF919E094F8B800012804D104F10C005C
:1032100007F0CEF810E094F8B800022804D104F1C9
:103220000C0007F095F907E094F8B800032803D1E3
:1032300004F10C0006F094FF94F8A40120B904F105
:10324000F80007F00BF919E094F8A401012804D163
:1032500004F1F80007F014F910E094F8A401022832
:1032600004D104F1F80007F00BF907E094F8A40189
:10327000032803D104F1F80007F030F800BFB8E7E5
:1032800010B52DED028B044614B9BDEC028B10BDB8
:10329000606890ED010A84ED6E0AB4F8A611D4F8C6
:1032A000F820108807F00EFD84ED6C0AA06890ED00
:1032B000010A84ED730A606890ED000A84ED330A18
:1032C000B4F8BA10E268108807F0FCFC84ED310A0B
:1032D000D4ED6C0AB0EE600AFDF75AF8A068D0EDA4
:1032E000020A20EE208AD4ED6C0AB0EE600AFDF7E7
:1032F0008BF8A068D0ED000A00EE608A84ED388A71
:1033000000BFC2E710B5044606F0C8FAE06006F058
:10331000BDFAC4F8F80006F0B1FA606006F0B2FA3F
:10332000A06006F03DFB2060002184F8B91084F80D
:10333000B81084F8A51184F8A4119FED402ADFEDA0
:10334000401AB2EE041ADFED3E0AB2EE040A04F1AE
:10335000100000F06BF99FED3A2ADFED391AB2EE5A
:10336000041ADFED370AB2EE040A04F1400000F05F
:103370005DF9DFED340A9FED340A344A002104F18F
:10338000700001F05DFB9FED2E2ADFED2D1AB2EEED
:103390000E1ADFED2B0AB2EE040A04F1FC0000F075
:1033A00045F99FED272ADFED261AB2EE001ADFED70
:1033B000240AB2EE040A04F5967000F037F9DFED46
:1033C000210A9FED210A224A002104F5AE7001F086
:1033D00037FB04F1100000F041FD04F1400000F063
:1033E0003DFD04F1700001F05BFB04F1FC0000F016
:1033F00035FD04F5967000F031FD04F5AE7001F076
:103400004FFB2046FFF73CFF94ED330A84ED370A6B
:1034100094ED310A84ED320A94ED380A84ED390ACC
:1034200094ED6E0A84ED720A94ED6C0A84ED6D0AD7
:1034300094ED730A84ED740A10BD00009A99993EC8
:103440000000000000409C4500401C46F0E90008D8
:10345000E4E9000810B5044604B910BD94F8B900B9
:1034600068B194F8B80050B9B4F9F40000EE100A4D
:10347000B8EEC00A84ED3C0A84ED3B0A28E094F8DB
:10348000B900012808D094F8B800012804D194EDBF
:10349000330A84ED370A1BE094F8B900022808D0FB
:1034A00094F8B800022804D194ED310A84ED320A70
:1034B0000EE094F8B90003280AD094F8B800032865
:1034C00006D194ED330A84ED350A322009F0E8FA8A
:1034D00094F8B81084F8B91094F8A50168B194F87C
:1034E000A40150B9B4F9E00100EE100AB8EEC00A28
:1034F00084ED770A84ED760A32E094F8A50101287C
:1035000008D094F8A401012804D194ED6E0A84ED4A
:10351000720A25E094F8A501022808D094F8A401C5
:10352000022804D194ED6C0A84ED6D0A18E094F839
:10353000A501032814D094F8A401032810D19FED0D
:103540000B0A84ED6C0AD4F8F8000188A4F8A611DF
:103550009FED060A84ED6D0A94ED6C0A84ED6D0A08
:1035600094F8A41184F8A51100BF76E700000000CC
:1035700010B52DED048B0446B0EE408AF0EE608A63
:10358000B0EE419A24B99FED260ABDEC048B10BD24
:1035900084ED048AC4ED038A78EEC89A9FED211A5F
:1035A000DFED210AB0EE690A07F050FB84ED050A51
:1035B00094ED000AD4ED050A20EE200A84ED080AF5
:1035C00094ED090AD4ED010A94ED051A00EE810A82
:1035D00084ED090A94ED020A20EE090A84ED0A0A34
:1035E000D4ED070AB0EE600A04F1240004F0D4F927
:1035F00094ED080AD4ED090A30EE200AD4ED0A0A47
:1036000030EE200A84ED0B0AD4ED060AB0EE600A13
:1036100004F12C0004F0C0F994ED0B0AB5E70000AA
:1036200000000000DB0F4940DB0F49C000B97047C4
:1036300080ED001AC0ED011A80ED022ADFED062AA6
:10364000C0ED052ADFED042AC0ED042AC0ED070A0B
:1036500080ED060A00BFEAE7000000001CB5044642
:1036600004B91CBD9FED240A8DED010A9FED220ACD
:103670008DED000A2246694601A806F0CDF994F8BE
:10368000B80020B99DED010A84ED3B0A14E094F8DE
:10369000B800012806D19DED010A04F10C0000F0EC
:1036A00037F809E094F8B800022805D19DED010A29
:1036B00004F10C0000F0A6F894F8A40120B99DEDE7
:1036C000000A84ED760A14E094F8A401012806D1DA
:1036D0009DED000A04F1F80000F01AF809E094F8F2
:1036E000A401022805D19DED000A04F1F80000F0C4
:1036F00089F800BFB5E700000000000010B50446DF
:1037000004B910BD204606F041FA00BFF9E70000F9
:1037100010B52DED028B0446B0EE408A14B9BDEC15
:10372000028B10BDD4ED340A94ED301A70EEC10A4C
:10373000B0EE600A9FED2F1ADFED2F0A07F086FA30
:103740002E4880ED000A94ED2E0AD0ED000A30EEEE
:10375000200A30EE080AD4ED2C0AB4EEE00AF1EEAD
:1037600010FA11DDB5EEC08AF1EE10FA2DDD94ED00
:103770002C0AD4ED2E0A30EE600AD0ED000A30EEAD
:10378000600AB0EE408A20E094ED2E0A1B48D0ED8E
:10379000000A30EE200A30EE080AD4ED2D0AB4EE0D
:1037A000E00AF1EE10FA10D2B5EEC08AF1EE10FA8E
:1037B0000BD294ED2D0AD4ED2E0A30EE600AD0ED36
:1037C000000A30EE600AB0EE408A94ED340A0C48EC
:1037D00080ED000AD0ED000A70EE880AB0EE600AB3
:1037E0009FED041ADFED040A07F030FA84ED340A85
:1037F00000BF94E7DB0F4940DB0F49C0E801002020
:10380000EC01002000B97047D0ED2F0A70EE800A5D
:10381000C0ED2F0AD0ED2F0A90ED2C1AF4EEC10A5C
:10382000F1EE10FA04DDD0ED2C0AC0ED2F0A0CE009
:10383000D0ED2F0A90ED2D1AF4EEC10AF1EE10FA38
:1038400003D2D0ED2D0AC0ED2F0A00BFDBE7000048
:10385000C92009F025F93348FFF754FD08F0CEFCE4
:1038600005E00A2009F01CF92E48FFF709FD0120A8
:1038700008F028FF0028F4D1022008F023FF0028D8
:10388000EFD1032008F01EFF0028EAD149E02548C7
:10389000FFF734FF2348FFF7DDFD2248FFF7F0FC78
:1038A0002048FFF7DBFE1F48FFF7A0FC08F0BEFB37
:1038B0001D4908801B48B0F8F4001C4908801948CD
:1038C000B0F8E0011A490880012008F0FBFE38B189
:1038D000022008F0F7FE18B1032008F0F3FEB0B99B
:1038E000002008F0EFFE30B100231A4619461846B2
:1038F000FEF77AF90BE000230B48B0F900200C48E2
:10390000B0F900100948B0F90000FEF76DF900F0B9
:10391000BDFD012009F0C4F8002008F06BFF054947
:103920000860B4E74C0E02206C0100206801002002
:103930006A0100206401002000B585B00121022049
:1039400001F0D4F80121880301F000F908210120D9
:1039500001F006FE4FF48070009000208DF8040006
:1039600001208DF8060000208DF8070003208DF857
:1039700005006946114800F023F84FF4807002906A
:1039800000208DF80C0008208DF80D0001208DF826
:103990000E0002A8FFF754FA17208DF8100005203A
:1039A0008DF8110000208DF8120001208DF8130011
:1039B00004A800F007FF05B000BD000000040240AD
:1039C000F0B50A4600210023002400BF3DE0012598
:1039D00005FA01F3156805EA03049C4234D1056831
:1039E0004F000326BE40B543056015794E00B54033
:1039F0000668354305601579012D02D01579022D31
:103A000016D185684F000326BE40B54385605579C1
:103A10004E00B540866835438560456801268E4076
:103A2000B5434560456896798E40B6B235434560EA
:103A3000C5684F000326BE40B543C560D5794E002A
:103A4000B540C6683543C560491C1029BFD3F0BDD9
:103A5000F0B5002300244D07ED0E02FA05F3CE1059
:103A600000F1200555F826504E07F70E0F26BE40F0
:103A7000B543CF1000F1200646F82750CE1000F1D4
:103A8000200555F8265045EA0304CE1000F1200524
:103A900045F82640F0BD0246002013690B400BB1EB
:103AA000012000E000207047418370470183704788
:103AB00042694A4042617047014600205C4A914297
:103AC00003D2B1F1006F00D3B0E05A4A914204D260
:103AD000574A914201D30820A8E0574A914204D2A4
:103AE000544A914201D31020A0E0544A914204D29A
:103AF000514A914201D3182098E0514A914204D290
:103B00004E4A914201D3202090E04E4A914204D285
:103B10004B4A914201D3282088E04B4A914204D27B
:103B2000484A914201D3302080E0484A914204D271
:103B3000454A914201D3382078E0454A914204D267
:103B4000424A914201D3402070E0424A914204D25D
:103B50003F4A914201D3482068E03F4A914204D253
:103B60003C4A914201D3502060E0B1F1016F04D290
:103B7000394A914201D3582058E0384A914204D240
:103B8000B1F1016F01D3802050E0354A914204D257
:103B9000324A914201D3882048E0324A914204D20D
:103BA0002F4A914201D3902040E02F4A914204D203
:103BB0002C4A914201D3982038E02C4A914204D2F9
:103BC000294A914201D3A02030E0294A914204D2EF
:103BD000264A914201D3A82028E0264A914204D2E5
:103BE000234A914201D3B02020E0234A914204D2DB
:103BF000204A914201D3B82018E0204A914204D2D1
:103C00001D4A914201D3C02010E01D4A914204D2C6
:103C10001A4A914201D3C82008E01A4A914204D2BC
:103C2000174A914201D3D02000E0D820704700000D
:103C3000004000080080000800C0000800000108E3
:103C40000000020800000408000006080000080840
:103C500000000A0800000C0800000E0800401008D0
:103C60000080100800C010080000110800001208B1
:103C700000001408000016080000180800001A08C8
:103C800000001C0800001E08014600205D4A914209
:103C900004D2B1F1006F01D31046B2E05A4A91420A
:103CA00004D2584A914201D35748AAE0574A914258
:103CB00004D2554A914201D35448A2E0544A914259
:103CC00004D2524A914201D351489AE0514A91425A
:103CD00004D24F4A914201D34E4892E04E4A91425B
:103CE00004D24C4A914201D34B488AE04B4A91425C
:103CF00004D2494A914201D3484882E0484A91425D
:103D000004D2464A914201D345487AE0454A91425D
:103D100004D2434A914201D3424872E0424A91425E
:103D200004D2404A914201D33F486AE03F4A91425F
:103D300004D23D4A914201D33C4862E0B1F1016FA7
:103D400005D23A4A914202D34FF0016059E0384A15
:103D5000914204D2B1F1016F01D3104651E0354ACE
:103D6000914204D2324A914201D3324849E0324A68
:103D7000914204D22F4A914201D32F4841E02F4A69
:103D8000914204D22C4A914201D32C4839E02C4A6A
:103D9000914204D2294A914201D3294831E0294A6B
:103DA000914204D2264A914201D3264829E0264A6C
:103DB000914204D2234A914201D3234821E0234A6D
:103DC000914204D2204A914201D3204819E0204A6E
:103DD000914204D21D4A914201D31D4811E01D4A6F
:103DE000914204D21A4A914201D31A4809E01A4A70
:103DF000914204D2174A914201D3174801E04FF093
:103E000002607047004000080080000800C0000801
:103E10000000010800000208000004080000060875
:103E20000000080800000A0800000C0800000E0846
:103E3000004010080080100800C0100800001108A1
:103E400000001208000014080000160800001808FE
:103E500000001A0800001C0800001E0800B9704786
:103E60009FED090A80ED040A80ED030A80ED050A42
:103E70009FED050A80ED0A0A80ED090A80ED080A27
:103E800080ED0B0A00BFEAE7000000009F210CE074
:103E90004A1E00F1080303EBC20292ED000B1A4622
:103EA00002EBC10282ED000B491E0029F0DC90ED0F
:103EB000000B80ED020B00F5816292ED3E0B704726
:103EC00000BFFEE7F0B50546059C00207FE093EDBE
:103ED000050A00EB4006404F07EB8606D6ED000AC8
:103EE00020EE200AD3ED060A00EB400607EB86061B
:103EF00096ED011A00EE810AD3ED070A00EB4006A9
:103F000007EB860696ED021A00EE810A334E06EBA9
:103F10008006D6ED000A30EE200A05EB800686ED1D
:103F2000000A93ED010A00EB40062D4F07EB8606D1
:103F3000D6ED000A20EE200AD3ED020A00EB40067F
:103F400007EB860696ED011A00EE810AD3ED030A0F
:103F500000EB400607EB860696ED021A00EE810A9A
:103F6000204E06EB8006D6ED000A30EE200A01EB6B
:103F7000800686ED000A94ED010A00EB40061A4F18
:103F800007EB8606D6ED000A20EE200AD4ED020AE1
:103F900000EB400607EB860696ED011A00EE810A5B
:103FA000D4ED030A00EB400607EB860696ED021AF5
:103FB00000EE810A0D4E06EB8006D6ED000A30EECB
:103FC000200A02EB800686ED000A461CF0B20328A8
:103FD000FFF67DAFF0BD000004020020240C02209B
:103FE00028020020300C02204C0200204C0C022041
:103FF00010B52DED028BB0EE408A2748007838B31B
:1040000005F0C4FC00EE100AB8EEC00AF0EE408ADB
:10401000F0EE680AB0EE480A204800F019FC1F488C
:1040200090ED080AB5EEC00AF1EE10FA03D29FED4A
:104030001C0A80ED080A194890ED080ABCEEC00A77
:1040400010EE100A84B22146164802F0BCF920E0B6
:1040500005F09CFC00EE100AB8EEC00AB4EEC80AE7
:10406000F1EE10FA10D210480078401C0E4908708A
:1040700008460078C82807DD0120074908709FED31
:104080000B0A064880ED0A0A41F28731054802F022
:104090009AF9BDEC028B10BD70020020980C022032
:1040A00000000000000400407402002000401C4595
:1040B00008B5072008F0F4FC00BF06F075FE0028E4
:1040C000FBD100BF06F076FB0028FBD106F0B2FF63
:1040D000044609F03FFBA4490860FFF72DFC1722B6
:1040E000A249A34801F07EF901221146A14801F03E
:1040F00001FA012202219F4801F0FCF90021102061
:1041000001F01EF92FE100BF4FF0FF31012008F050
:10411000E5FA0128F8D198499448401C06F0B2FE0F
:1041200096499248103006F08DFB9448924B944A81
:10413000944900909448FFF7C5FE8F48007800F03E
:104140000100002846D091480078E8BB012141F2E7
:10415000883001F023FEDFED8E0A9FED8E0A8E4A35
:1041600001218E4800F06CFC854A86498C48FDF799
:104170003BF98C4B1A1F111F894805F093FB8148AE
:1041800090ED000A884880ED000A884880ED000A1A
:10419000874880ED000A7B4890ED010A824880ED57
:1041A000010A824880ED010A814880ED010A7548C4
:1041B00090ED020A7C4880ED020A7C4880ED020AFC
:1041C0007B4880ED020A00E005E070480078401C62
:1041D0006E490870BBE0754890ED000A744880EDA8
:1041E000000A714890ED000A704880ED000A90EDD9
:1041F000000A7048D0ED000A20EE200A6C48D0ED8D
:10420000000A6C4890ED011A00EE810A5D48D0ED7D
:10421000000A684890ED021A00EE810A624880EDBB
:10422000000A624890ED010A614880ED010A5E488B
:1042300090ED010A5D4880ED010A90ED010A5D48AC
:10424000D0ED000A20EE200A5948D0ED010A594865
:1042500090ED011A00EE810A4A48D0ED010A554856
:1042600090ED021A00EE810A4F4880ED010A4F4896
:1042700090ED020A4E4880ED020A4B4890ED020A8A
:104280004A4880ED020A90ED020A4A48D0ED000A41
:1042900020EE200A4648D0ED020A464890ED011A69
:1042A00000EE810A3748D0ED020A424890ED021A2A
:1042B00000EE810A3C4880ED020A314B0246324949
:1042C0009FED3D0A3648FDF707FA364B1A1F111FBE
:1042D000334805F0E7FA39480088B8B9384890ED16
:1042E000000A384880ED000A354890ED010A35484B
:1042F00080ED010A324890ED020A324880ED020A50
:104300002E480088401C2D49088020E02B4800885A
:10431000B0F5FA7F0FDA42F210715F2003F01CFE55
:104320002948007898B114480278244B164925484A
:1043300006F08EF90BE021480088B0F5FA7F06D12F
:1043400003F002FE1D480088401C1C4908800A48F2
:10435000D0ED040AB0EE600AFFF74AFE002008F034
:1043600049FA1A490860CEE6FC010020E00B022061
:10437000FCE9000800500140F80B02203C0C022030
:10438000700C0220640C0220580C022071020020E4
:104390000080894500A08C4514EA0008980C022092
:1043A000880C0220840C0220F80C0220EC0C022065
:1043B000E00C022020EA00086F12833A720200200B
:1043C000180C0220240C02207002002000020020A1
:1043D00070B506460C4615461548007838B328884F
:1043E00088B9144890ED000A134880ED000A11487E
:1043F00090ED010A104880ED010A0E4890ED020A86
:104400000D4880ED020A0D4802782B460C490A48F7
:1044100006F01EF9084890ED000A84ED000A90EDC0
:10442000010A84ED010A90ED020A84ED020A70BDD2
:1044300070020020180C0220240C0220F80B02202D
:10444000580C022091ED000A054A82ED000A91ED18
:10445000010A82ED010A91ED020A82ED020A70471B
:10446000180C0220064890ED800ADFED060A20EEC7
:10447000200ABDEEC00A044880ED000A7047000023
:10448000E00702200000C8422C010020A44890ED63
:10449000330ADFEDA40A20EE200ABDEEC00AA248CE
:1044A00080ED000A9E4890ED370ADFED9E0A20EE6F
:1044B000200ABDEEC00A9D4880ED000A984890EDA4
:1044C000380ADFED980A20EE200ABDEEC00A9848AF
:1044D00080ED000A924890ED390ADFED920A20EE55
:1044E000200ABDEEC00A934880ED000A8C4890ED8A
:1044F000310ADFED8C0A20EE200ABDEEC00A8E489C
:1045000080ED000A864890ED320ADFED860A20EE43
:10451000200ABDEEC00A894880ED000A804890ED6F
:104520006E0ADFED800A20EE200ABDEEC00A844844
:1045300080ED000A7A4890ED720ADFED7A0A20EEEB
:10454000200ABDEEC00A7F4880ED000A744890ED55
:10455000730ADFED740A20EE200ABDEEC00A7A4825
:1045600080ED000A6E4890ED740ADFED6E0A20EED1
:10457000200ABDEEC00A754880ED000A684890ED3B
:104580006C0ADFED730A20EE200ABDEEC00A714806
:1045900080ED000A624890ED6D0ADFED620A20EEC0
:1045A000200ABDEEC00A6C4880ED000A6B48006826
:1045B000D0ED000A6A4890ED000AB8EEC00A9FEDFF
:1045C000691A30EE010A30EEC00ABDEEC00A664834
:1045D00080ED000A61480068D0ED010A634890ED63
:1045E000000AB8EEC00A9FED621A30EE010A30EE02
:1045F000C00ABDEEC00A5F4880ED000A5748006857
:1046000090ED020ADFED470A20EE200ABDEEC00A57
:10461000594880ED000A5148006890ED030ADFED2B
:10462000410A20EE200ABDEEC00A544880ED000A7F
:10463000534890ED000ADFED3B0A20EE200ABDEE64
:10464000C00A504880ED000A4F4890ED000ADFEDA7
:10465000400A20EE200ABDEEC00A4C4880ED000A58
:10466000414890ED000AB8EEC00A4548D0ED000A76
:104670009FED471A00EEC10ABDEEC00A454880ED25
:10468000000A2748D0ED6C0A3A480068404200EE24
:10469000100AB8EEC00A9FED3E1A00EEC10ABDEE48
:1046A000C00A3D4880ED000A3C48006890ED000AD1
:1046B000BDEEC00A3A4880ED000A3848006890ED27
:1046C000010ABDEEC00A374880ED000A364890ED79
:1046D000000ADFED140A20EE200ABDEEC00A3348BE
:1046E00080ED000A0E4890ED340ADFED0E0A20EE50
:1046F000200ABDEEC00A2E4880ED000A2748006857
:1047000090ED000A15480068D0ED020A9FED291AC5
:1047100001EE600ABDEEC00A274880ED000A70472E
:104720004C0E022000007A44740100208001002019
:1047300098010020A0010020940100209001002099
:1047400078010020840100209C010020A4010020A9
:1047500000007AC48C01002088010020D4010020D0
:10476000E001002000006144B8010020E4010020C5
:104770000000B443C0010020BC010020C40100209F
:10478000D8010020B0010020DC010020B40100208D
:104790004D3D0F44B8020020BC020020D001002093
:1047A000A8010020AC01002070010020C8010020F9
:1047B0007C010020E22E6542CC01002000BFFEE714
:1047C0007047000070B5002100230F22C4781CB38D
:1047D000174C246804F4E064C4F5E064C4F30721D2
:1047E000C1F10404E3B20A4144789C40E1B2847808
:1047F000144021430C07210E0E4C057861550478B6
:1048000004F01F050124AC4005786D11AD0005F1E1
:10481000E025C5F8004109E0047804F01F050124F3
:10482000AC40054D0678761145F8264070BD000075
:104830000CED00E000E400E080E100E0024901430B
:10484000024A1160704700000000FA050CED00E01C
:10485000B0EE401A10B99FED790A704790ED100A3A
:1048600080ED110A90ED0F0A80ED100AC0ED060AE6
:1048700080ED071A30EEC10A80ED0F0A0178002999
:1048800075D190ED010AD0ED0F1A20EE210A80EDCE
:10489000090A90ED0A0AD0ED021A90ED0F2A01EEF6
:1048A000820A80ED0A0A90ED0D0A80ED0E0A90ED65
:1048B0000C0A80ED0D0A90ED0F0AD0ED101A30EEC3
:1048C000610A80ED0C0A90ED030AD0ED0C1A20EE7F
:1048D000210A80ED0B0A90ED0A0AD0ED051AB4EE1C
:1048E000E10AF1EE10FA04DD90ED050A80ED0A0A06
:1048F00010E090ED0A0AD0ED051AF1EE611AB4EE5F
:10490000E10AF1EE10FA05D290ED050AB1EE400A87
:1049100080ED0A0A90ED090AD0ED0A1A30EE210A5C
:10492000D0ED0B1A30EE210A80ED080A90ED080A4E
:10493000D0ED041AB4EEE10AF1EE10FA04DD90EDC8
:10494000040A80ED080A76E090ED080AD0ED041A1A
:10495000F1EE611AB4EEE10AF1EE10FA6BD290EDCD
:10496000040AB1EE400A80ED080A64E0FFE701782E
:10497000012960D190ED0F0AD0ED101A30EE610AD6
:10498000D0ED011A20EE210A80ED090A90ED020A0D
:10499000D0ED0F1A20EE210A80ED0A0A90ED0D0AE3
:1049A00080ED0E0A90ED0C0A80ED0D0A90ED0F0AD5
:1049B000D0ED101AB0EE002A02EE610AD0ED111A05
:1049C00030EE210A80ED0C0A90ED030AD0ED0C1AAE
:1049D00020EE210A80ED0B0A90ED090AD0ED0A1AAB
:1049E00030EE210AD0ED0B1A30EE210AD0ED081A74
:1049F00030EE210A80ED080A90ED080AD0ED041A85
:104A0000B4EEE10AF1EE10FA04DD90ED040A80ED57
:104A1000080A10E090ED080AD0ED041AF1EE611AD0
:104A2000B4EEE10AF1EE10FA05D290ED040AB1EE0F
:104A3000400A80ED080A90ED080A0EE70000000029
:104A400000B102B97047017092ED001A80ED011AB1
:104A500092ED011A80ED021A92ED021A80ED031A0E
:104A600080ED040AC0ED050A9FED0C1A80ED0E1AC8
:104A700080ED0D1A80ED0C1A9FED081A80ED081AD2
:104A800080ED0B1A80ED0A1A80ED091A80ED111ADB
:104A900080ED101A80ED0F1A00BFD3E70000000070
:104AA00000B970479FED100A80ED110A80ED100AE1
:104AB00080ED0F0A9FED0C0A80ED0E0A80ED0D0AC5
:104AC00080ED0C0A9FED080A80ED0B0A80ED0A0AC2
:104AD00080ED090A80ED080A9FED030A80ED060AC1
:104AE00080ED070A00BFDCE70000000029B1064A9C
:104AF00012680243044B1A6004E0034A12688243BE
:104B0000014B1A60704700003038024029B1064A54
:104B100012680243044B1A6004E0034A126882439D
:104B2000014B1A60704700004038024029B1064A24
:104B300012680243044B1A6004E0034A126882437D
:104B4000014B1A60704700002038024029B1064A24
:104B500012680243044B1A6004E0034A126882435D
:104B6000014B1A60704700004438024029B1064AE0
:104B700012680243044B1A6004E0034A126882433D
:104B8000014B1A607047000024380240F0B5002144
:104B900000220024022500260223324F3F6807F03E
:104BA0000C0121B1042905D0082937D105E02E4F89
:104BB000076036E02D4F076033E02A4F3F1F3F6804
:104BC000C7F38056274F3F1F3F6807F03F036EB182
:104BD000264FB7FBF3F7DFF88CC0ACF1040CDCF820
:104BE00000C0CCF3881C07FB0CF40CE01E4FB7FB95
:104BF000F3F7DFF870C0ACF1040CDCF800C0CCF3C4
:104C0000881C07FB0CF4174F3F1F3F68C7F3014791
:104C10007F1C7D00B4FBF5F7076002E0124F0760D0
:104C200000BF00BF0F4F3F6807F0F0010909104FA8
:104C30007A5C0768D74047600A4F3F6807F4E05145
:104C4000890A0B4F7A5C4768D7408760054F3F68F9
:104C500007F46041490B064F7A5C4768D740C7604C
:104C6000F0BD0000083802400024F400001BB7002B
:104C70001400002070B590B004460E461546012180
:104C80004A48FFF733FF01211020FFF75FFF0121A2
:104C90001020FFF76BFF00211020FFF767FF0722AE
:104CA00011464348FEF7D4FE80200E9002208DF876
:104CB0003C0000208DF83E0003208DF83D000020D0
:104CC0008DF83F000EA93A48FEF77AFE394801F008
:104CD00059FC39480A900020ADF82C00ADF82E00A0
:104CE0004FF48060ADF830000420ADF832000020B1
:104CF000ADF834000AA92F4801F00CFD0122402133
:104D00002C4801F036FC10212A4801F01DFC01223C
:104D100040F22441274801F0D7FC0121254801F049
:104D20001CFC25208DF83C0004208DF83D0000205F
:104D30008DF83E0001208DF83F000FA8FFF742FDDF
:104D40001E48FDF709FC4FF0006001901948001D56
:104D50000290039400200490059506904FF4806023
:104D600007900020089009904FF480700A904FF44B
:104D700040300B9000200C900D900E900F9001A9E8
:104D80000E48FDF705FD002231460C48FDF79BFC5F
:104D900001210A48FDF78CFC00210848FDF7D0FBF3
:104DA00001210648FDF7CCFB10B070BD02004000A9
:104DB0000004024000100140A0860100406402404F
:104DC0000146002901DD08467047484200B2FBE772
:104DD00010B50020AB49087017E0AA48007800EB36
:104DE000800101EBC000A84908440079C00938B12E
:104DF0000020A6490880A6490880A649087010BD71
:104E0000A0480078401C9F4908709E4800780528FB
:104E1000E3DBA048007878B99D480088B0F5FA6FC8
:104E20000ADD08F0F9FC9C490860012099490870E6
:104E30000020974908803BE096480078022811D16D
:104E400093480088B0F5FA6F0CDD00209149087096
:104E50008F4908808C48407C20F0800080308A494F
:104E6000487425E08B480078032821D188480088C1
:104E7000B0F5FA6F1CDD002086490870844908806F
:104E80008148807F20F0800080307F49887704F05F
:104E90008BFDBDEEC00A10EE100A0A3040B27F4909
:104EA0004870084690F901002D2801DD2D2048703A
:104EB0007B480068B0F9000010F5167F27DA7848C3
:104EC0000068B0F9020010F5167F20DA7448006817
:104ED000B0F90400B0F5167F19DD71480068B0F92B
:104EE000060010F5167F12DA6D480068807A0228F5
:104EF0000DD16B480068C07A022808D16548007857
:104F000028B963480088401C6149088066E064480D
:104F10000068B0F90000B0F5167F2ADD604800682F
:104F2000B0F90200B0F5167F23DD5D480068B0F9E6
:104F3000040010F5167F1CDA59480068B0F9060025
:104F4000B0F5167F15DD56480068807A022810D12A
:104F500053480068C07A02280BD14E48007840B10F
:104F60004B480088401C4A49088002204949087083
:104F700034E04B480068B0F90000B0F5167F2ADD38
:104F800047480068B0F9020010F5167F23DA44485C
:104F90000068B0F9040010F5167F1CDA404800687C
:104FA000B0F9060010F5167F15DA3D480068807AE2
:104FB000022810D13A480068C07A02280BD135483F
:104FC000007840B132480088401C314908800320F5
:104FD0003049087002E000202D49088008F01CFCD0
:104FE00030490860084600682B490968401A44F6B1
:104FF0002061884203D9002026490870FFE629482D
:10500000006825490968401A42F2107188420AD99D
:105010002148006838B11F48007820B149001F209E
:1050200002F09AFF10E01F4800681B490968401A07
:105030000AD01948006838B11648007820B142F209
:1050400010715F2002F088FF1248007820B10F48ED
:105050000088401C0D4908800C480088B0F5C87FC6
:1050600005DD0C48007810B1002008490880074889
:105070000088C82804DD0748007808B102F064FF02
:1050800000BFBCE6F100002000070220F80000206D
:10509000FA000020FC000020F4000020B4000020F2
:1050A000B0000020EC00002010B52449B1F9000048
:1050B000FFF786FEB0F52F7F00DD24E01F49B1F930
:1050C0000200FFF77DFEB0F52F7F00DD1BE01B49DE
:1050D000B1F90400FFF774FEB0F52F7F00DD12E098
:1050E0001649B1F90600FFF76BFEB0F52F7F00DD22
:1050F00009E01248807A00B905E01048C07A00B98A
:1051000001E0002010BD00200C4908804880888004
:10511000C88008810220887202210848C1720020DC
:105120000649888100210548C18101828174C174CA
:105130000020024988820120E4E70000040D0220DB
:1051400010B504460021104801F007FA00210F486D
:10515000FDF7F6F921460D48FDF746FB10210A48F8
:1051600001F0F2F94FF081510848FDF7B5F908490F
:105170000648FDF7CBF901210448FDF7E1F90121CB
:10518000014801F0EAF910BD0010014040640240FE
:105190000080201010B50021014801F0DEF910BD9B
:1051A0000010014000B101B970470278437842EA2B
:1051B0000322C2F30A020A804278D210837842EABC
:1051C0004312C2F30A024A8082789211C37842EAFB
:1051D0008302037942EA8322C2F30A028A800279B7
:1051E0005210437942EAC312C2F30A02CA804279DA
:1051F000C2F301128A72427912119308CB7282793A
:10520000C37942EA032212B28A81027A437A42EADD
:10521000032213B201F10C02CB81827AC37A42EAF3
:10522000032213B201F10C020B82037B8B74437BCC
:10523000CB74827BC37B42EA03228A82027C437C5A
:1052400042EA032212B20A810A88A2F5806212B2EF
:105250000A804A88A2F5806212B24A808A88A2F542
:10526000806212B28A80CA88A2F5806212B2CA80B5
:105270000A89A2F5806212B20A8100BF94E7000099
:1052800000B587B001212020FFF730FC012108057F
:10529000FFF75CFC4FF46070059002208DF8180059
:1052A00000208DF81A0001208DF81B0003208DF8D6
:1052B000190005A92048FEF783FB052207211E4897
:1052C000FEF7C6FB052208211B48FEF7C1FB05229D
:1052D00009211948FEF7BCFB01210805FFF746FC30
:1052E00000214FF48010FFF741FC0020ADF80000D2
:1052F0004FF48270ADF802000020ADF804000220E7
:10530000ADF806000120ADF808004002ADF80A0033
:105310003820ADF80C000020ADF80E000720ADF8E5
:1053200010006946054800F0FCF80121034800F030
:10533000D5F807B000BD0000001402400050014045
:105340000A4A12884FF2C7731A40084B1A801A464D
:10535000128802431A801A4612880A431A801A4693
:10536000128842F040021A8070470000005001404D
:1053700010B5044600211848FDF7E2F80021164850
:105380001830FDF7DDF800BF1348FDF7A8F9002835
:10539000FAD100BF10481830FDF7A1F90028F9D163
:1053A0000E490D481830FDF797F80D490A48FDF7EA
:1053B00093F821460848FDF717FA214606481830A9
:1053C000FDF712FA012104481830FDF7B9F8012160
:1053D0000148FDF7B5F810BD70640240000C0020D4
:1053E0003000002070B590B005460E4614460121ED
:1053F0008805FFF77BFB44208DF83C0005208DF8E5
:105400003D0000208DF83E0001208DF83F000FA8E0
:10541000FFF7D8F92F48FDF79FF800BF2D48FDF79B
:105420005EF90028FAD14FF0606000902A480190A0
:10543000029600200390049405904FF4806006903B
:1054400000200790089009904FF440300A90002007
:105450000B900C900D900E9069461E48FDF798F940
:10546000012210211B48FDF775F900211948FDF7AD
:1054700067F818481838FDF76FF800BF1548183856
:10548000FDF72DF90028F9D14FF080600090124807
:1054900001900295402003900494002005904FF461
:1054A0008060069000200790089009904FF48030AB
:1054B0000A9000200B900C900D900E9069460548C4
:1054C0001838FDF765F9002102481838FDF738F85B
:1054D00010B070BD886402400C50014021B10288B8
:1054E00042F04002028004E002884FF6BF731A4087
:1054F000028070471AB183880B43838002E083885F
:105500008B43838070470246002013890B400BB108
:10551000012000E0002070470146888970478181A2
:10552000704710B50022028802F441520B884C8863
:1055300023438C882343CC8823430C8923434C8901
:1055400023438C892343CC8923431A430280838BD2
:105550004FF2FF74234083830B8A038210BD000047
:1055600030B500228B071C0F0F2303FA04F20B4BFC
:105570008C1053F824309343084C8D1044F8253098
:1055800023468C1053F824308C07240F00FA04F4BF
:105590002343024C8D1044F8253030BD08380140BB
:1055A0000CB50020019000904148006840F4803024
:1055B0003F49086000BF3E48006800F4003000909A
:1055C0000198401C0190009818B90198B0F5A04FBF
:1055D000F1D13748006800F4003010B1012000908C
:1055E00001E0002000900098012860D13048403050
:1055F000006840F080502E49403108602D48006816
:1056000040F440402B490860294808300068284988
:10561000083108600846006840F400400860084609
:10562000006840F4A05008602348091F0860081F64
:10563000006840F08070091F086000BF1C480068C7
:1056400000F000700028F9D01A48006840F480305B
:105650001849086000BF1748406800F480300028EF
:10566000F9D01448006840F400301249086000BFC7
:105670001048406800F400300028F9D040F205706E
:105680000E4908600A480830006820F00300084905
:10569000083108600846006840F00200086000BF5A
:1056A00003480830006800F00C000828F8D10CBD51
:1056B0000038024000700040062D4008003C0240C7
:1056C00070B504460D462078012806D15A4860601E
:1056D0002020E060022020819BE02078022806D173
:1056E000554860602020E0600120208191E0207812
:1056F000032806D1514860601020E06020202081FE
:1057000087E02078042805D14C4860601020E060D4
:1057100020817EE02078052806D14848606010206E
:10572000E0604020208174E02078062806D14348BC
:1057300060601020E060000220816AE02078072885
:1057400005D13F4860600420E060208161E020785E
:10575000082806D13B4860600220E06001202081DB
:1057600057E02078092806D1354860600420E060C1
:10577000082020814DE020780A2805D1314860605A
:105780000220E060208144E020780B2806D12C48DC
:1057900060600420E060102020813AE020780C282E
:1057A00006D1274860600420E0600120208130E0BD
:1057B00020780D2806D1224860600420E060202077
:1057C000208126E020780E2806D11D486060042044
:1057D000E060022020811CE020780F2806D11A48C2
:1057E00060600120E0602020208112E020781028F5
:1057F00006D1154860600120E0601020208108E09B
:105800002078112805D1114860608015E0604000C3
:105810002081012D04D121896068FEF747F909E054
:1058200025B921896068FEF73FF903E021896068A6
:10583000FEF73AF970BD000000140240001002406B
:105840000008024000040240000002400020024024
:1058500070B504460D462078012804D14E48A0605A
:105860000420A06178E02078022804D14A48A06092
:105870000320A06170E02078032804D14648A0608E
:105880000220A06168E02078042804D14248A0608A
:105890000120A06160E02078052804D13F48A06085
:1058A0000420A06158E02078062804D13B48A0607D
:1058B0000320A06150E02078072804D13748A06079
:1058C0000220A06148E02078082804D13348A06075
:1058D0000120A06140E02078092804D18007A06061
:1058E0000120A06138E020780A2804D14007A06098
:1058F0000220A06130E020780B2805D14FF08040D5
:10590000A0600320A06127E020780C2805D14FF08B
:105910008040A0600420A0611EE020780D2804D102
:105920001F48A0600120A06116E020780E2804D155
:105930001B48A0600220A0610EE020780F2804D14F
:105940001748A0600320A06106E02078102803D14A
:105950001348A0600420A061A069012804D1294651
:10596000A06800F02EFD16E0A069022804D12946A7
:10597000A06800F028FD0EE0A069032804D12946A4
:10598000A06800F022FD06E0A069042803D12946A2
:10599000A06800F01CFD70BD000C00400008004035
:1059A0000004014010B5624890ED000A614880EDA6
:1059B000000A614890ED000A5D4880ED000A5F48EA
:1059C00090ED000A5A48D0ED000A20EE200A5B480C
:1059D000D0ED010A574890ED001A01EE200A584810
:1059E000806AB0F9020000EE900AF8EEE00A9FED3E
:1059F000551A60EE810A514890ED021A00EE810AB4
:105A00004D4880ED000A90ED000A4D4880ED0B0AEC
:105A1000806A00884A49896AB1F90810401AB0F5CD
:105A2000805F08DD464890F83E00401E40B2444981
:105A300081F83E0012E04248806A00884049896A45
:105A4000B1F90810401A10F5805F07DA3C4890F869
:105A50003E00401C40B23A4981F83E00384890F878
:105A60003E00122804D1EF20354981F83E0008E0BD
:105A7000334890F93E00123018B91120304981F8AE
:105A80003E002F4890F93E00C0EB40302C49896A17
:105A90000988084400EE100AB8EEC00ADFED2A0AB1
:105AA00020EE200A264880ED0D0A4FF48061274839
:105AB000FDF7F1FF224981F85400084690F83F00B5
:105AC00081F8410022480068807C81F83F00084648
:105AD00090F83F0060B10846B0F84400B0F5C87FC8
