:020000040800F2
:10000000C81C0220450300086D480008D53E0008C2
:1000100069480008FD1800086B680008000000002F
:100020000000000000000000000000008D02000839
:10003000FD27000800000000E10200086D5D0008D7
:1000400069030008690300086903000869030008E0
:1000500069030008690300086903000869030008D0
:1000600069030008690300086903000869030008C0
:1000700069030008690300086903000869030008B0
:1000800069030008690300086903000869030008A0
:100090000119000869030008690300080D2E000813
:1000A0006903000869030008690300086903000880
:1000B00069030008E55D000869030008690300089A
:1000C0006903000869030008690300086903000860
:1000D00069030008D1640008690300086903000887
:1000E0006903000869030008690300086903000840
:1000F0006903000869030008690300086903000830
:10010000690300086903000869030008690300081F
:100110006903000869030008F15E0008690300082C
:1001200069030008690300086903000869030008FF
:1001300069030008690300086903000869030008EF
:10014000411A0008690300086903000869030008F0
:100150009124000869030008690300086903000886
:1001600069030008690300086903000869030008BF
:100170006903000869030008690300080000000023
:10018000690300086903000869030008690300089F
:10019000690300086903000869030008690300088F
:1001A00000000000000000006903000800F002F8F1
:1001B00000F05CF80AA090E8000C82448344AAF1A5
:1001C0000107DA4501D100F051F8AFF2090EBAE8A3
:1001D0000F0013F0010F18BFFB1A43F0010318477B
:1001E00070F8000090F800000A444FF0000C10F87E
:1001F000013B13F0070408BF10F8014B1D1108BFA5
:1002000010F8015B641E05D010F8016B641E01F844
:10021000016BF9D113F0080F1EBF10F8014BAD1C94
:100220000C1B09D16D1E58BF01F801CBFAD505E0B2
:1002300014F8016B01F8016B6D1EF9D59142D6D30C
:10024000704700000023002400250026103A28BF34
:1002500078C1FBD8520728BF30C148BF0B60704738
:100260001FB50EF029FE1FBD10B510BD00F0E8FE51
:100270001146FFF7F5FF0AF015FF00F006FF03B483
:10028000FFF7F2FF03BC00F06BFF00002A4B196878
:100290000868B0E8F04F80F30988BFF36F8F4FF024
:1002A000000080F3118870470000000006480068D5
:1002B000006880F3088862B661B6BFF34F8FBFF362
:1002C0006F8F00DF00BF00BF08ED00E0DFF80C001B
:1002D000016841F470010160704700BF88ED00E0E3
:1002E000EFF30980BFF36F8F134B1A681EF0100FE6
:1002F00008BF20ED108A20E9F04F106008B44FF0DD
:10030000500080F31188BFF34F8FBFF36F8F0CF055
:10031000C9FE4FF0000080F3118808BC1968086816
:10032000B0E8F04F1EF0100F08BFB0EC108A80F359
:100330000988BFF36F8F704724000020EFF305801A
:10034000704700000C48016841F4700101600B48DF
:1003500080470B480047FEE7FEE7FEE7FEE7FEE7C3
:10036000FEE7FEE7FEE7FEE7FEE700000548064978
:10037000044A064B7047000088ED00E07D5D0008F0
:10038000AD010008C8180220C81C0220C8180220AD
:100390009FED1A1AF5EE000A40EE010ABDEEE00AE2
:1003A000F5EEC00A10EE100AF1EE10FA38BF401E4A
:1003B00000EE100A1349F7EE001AB8EEC00A30EE4C
:1003C000C00ADFED0F0A20EE200AFCEEC00A10EE94
:1003D000900AC0F3080000EE900A01EB8000F8EEEE
:1003E000600A90ED011A70EE600A90ED000A71EE5D
:1003F000E01A21EE800A00EE810A704783F9223E5E
:10040000000000444CF20008DFED190AB5EEC00A06
:1004100060EE200ABDEEE01A11EE100AF1EE10FABD
:1004200038BF401E00EE100A1349F7EE001AB8EE6E
:10043000C00A30EEC00ADFED0F0A60EE200ABCEE03
:10044000E00A10EE100AC0F3080000EE100A01EBFB
:100450008000B8EE400A90ED011A70EEC00A90EDEF
:10046000000A71EEE01A21EE800A00EE810A704760
:1004700083F9223E000000444CF2000870B4058865
:100480000E884468D1F804C05368B54208D140884A
:100490004988884201BF11888D425188884203D023
:1004A00070BC6FF00200704705FB00F1880827D090
:1004B00094ED001ADCED000A94ED010ADCED011A5E
:1004C00031EE201AD4ED020A70EE211A9CED020AD8
:1004D00083ED001AC3ED011A94ED031ADCED031A43
:1004E00030EE800A401E71EE210A83ED020A04F10B
:1004F0001004C3ED030A03F110030CF1100CD7D163
:1005000011F0030030D0B0F1004F30D200282BDDC5
:10051000211F1B1FACF1040210F0010F0AD091ED56
:10052000010AD2ED010A091D121D30EE200A83EDE9
:10053000010A1B1D400817D091ED010AD2ED010AF6
:10054000401E30EE200A83ED010A91ED020AD2ED41
:10055000020A01F1080102F1080230EE200A83EDDF
:10056000020A03F10803E7D170BC00207047B4EC25
:10057000010A401EFCEC010A30EE200AA3EC010A3D
:10058000F5D1F1E701804280436070472DE9F34FD8
:1005900084B0049840680090486801900498B0F8CE
:1005A00000E04588DFEDFE0A00200290B0EE600A10
:1005B000AE4506D108884988884204BF7146864501
:1005C00004D06FF0020006B0BDE8F08F01985FEA3A
:1005D000010C18BFB7EE001A3DD000BFBEEB0C01F6
:1005E00017D0B1F1004F80F01F82002911DD021FEA
:1005F00011F0010F1CBFC2ED010A121D4B1006D0F5
:10060000C2ED010AC2ED020A08325B1EF8D100EB0E
:100610008100BCF10102A0EC011A19D0B2F1004F27
:1006200080F00882002A13DD031F12F0010F1CBFA7
:10063000C3ED010A1B1D511008D000BFC3ED010A14
:10064000C3ED020A491E03F10803F7D100EB820053
:10065000BCF1010CC2D14FF000080395002D14BF6E
:10066000B0EE602A002000F0BF8100BF009908FBB7
:1006700005F001EB800B0199DBED002A01EB800016
:100680000346F0EE421AC64552D9AEEB0802ABEB78
:10069000850112F0010F17D001EB850191ED000AE1
:1006A000B5EEC00AF1EE10FA07DDB4EEE10AF1EEA4
:1006B00010FA09DDF0EE401A06E0B1EE400AF4EE61
:1006C000C01AF1EE10FAF5D3521031D001EB850CBF
:1006D0009CED000AB5EEC00AF1EE10FA05DDB4EEAD
:1006E000E10AF1EE10FA09DD06E0B1EE400AF4EE9F
:1006F000C01AF1EE10FA01D2F0EE401A01EBC5017A
:1007000091ED000AB5EEC00AF1EE10FA05DDB4EE87
:10071000E10AF1EE10FA09DD06E0B1EE400AF4EE6E
:10072000C01AF1EE10FA01D2F0EE401A521ECDD1ED
:10073000F5EEC01AF1EE10FA00F07381F5EEC02A62
:100740000126F1EE10FA0099D4BFB1EE620AB0EEC4
:10075000620AB4EE610AF1EE10FA1CBFAEEB0802B9
:10076000B2F1010C47D005FB08F201EB820292EDD9
:10077000001A00BFB0EE410A05FB06F4B5EEC00A50
:1007800000EB8404F1EE10FACCBFF0EE400AF1EE7B
:10079000400AF4EE610AF1EE10FA28D1B5EB080C2C
:1007A00011D0BCF1004F7DD2BCF1000F0BDD00BFBA
:1007B00092ED000AD1ED000ABCF1010CE2EC010A55
:1007C000A1EC010AF4D129000ED0B1F1004F6AD298
:1007D000002909DD94ED000AD0ED000A491EE4EC81
:1007E000010AA0EC010AF5D1012002900BE0761C71
:1007F000BCF1010CBED10298012804D0F5EEC02A4C
:10080000F1EE10FA7ED09BED000AB5EB08009A4697
:100810005946064622D0B0F1004F74D200281DDDA3
:10082000091F10F0010F06D0F0EE400A80EEA01A6A
:1008300081ED011A091D401010D000BFD1ED010A51
:10084000401E80EE801A81ED011A91ED021AC1EE70
:10085000000AC1ED020A01F10801EFD1280026D0FB
:10086000B0F1004F7ED2002821DDAAF1040110F082
:10087000010F06D0D1ED010A80EE801A81ED011A38
:10088000091D401013D000BFD1ED010A401E80EEBB
:10089000801A81ED011AD1ED020A80EE801A81EDF5
:1008A000021A01E0CBE0D6E001F10801ECD1DDE96C
:1008B00000124FF000095FEA0E0773D0C14504BF74
:1008C00001EB860102EB850274D091ED000ADC4653
:1008D0005046330035D01C46B6F1004F7ED2002C76
:1008E0002FDD0B1FABF1040C16F0010F0FD0F0EE53
:1008F000400ADCED011AB0EE601A00EEE11A83ED59
:10090000011A01E08DE0B1E01B1D0CF1040C741024
:1009100015D000BFD3ED010A9CED011A40EE410A4B
:10092000C3ED010AD3ED020A9CED021A0CF1080C8A
:1009300040EE410AC3ED020A0833641EEAD101EB1E
:1009400086012B0036D0B3F1004F72D2002B31DD7F
:10095000A2F1040CAAF1040013F0010F0CD0DCED9D
:10096000010A00E08BE090ED011A001D40EE410A03
:10097000CCED010A0CF1040C5C1019D0DCED010A7D
:1009800090ED011A40EE410ACCED010ADCED020ABD
:1009900090ED021A083040EE410ACCED020A03E065
:1009A000000000000DE005E0641E0CF1080CE5D12C
:1009B00002EB830201EB88017F1E09F101097FF43C
:1009C0007DAF009808F10108001D00900398401EBB
:1009D00003907FF44BAE0299012900E058E004BF78
:1009E00006B0BDE8F08F00BFB5EEC00AF1EE10FA18
:1009F0007FF4E9AD04990EFB05F3002B4A684FF034
:100A000000010BD902EB810C9CED000AB5EEC00A87
:100A1000F1EE10FA02D1491C8B42F3D88B427FF4DD
:100A2000D2AD6FF00400CEE5E0EC010A491EFBD127
:100A3000EFE538E0E0EC010A521EFBD108E692ED4A
:100A4000000AD1ED000ABCF1010CE2EC010AA1ECB4
:100A5000010AF4D1B7E694ED000AD0ED000A491E70
:100A6000E4EC010AA0EC010AF5D1BDE6D1ED000AE3
:100A7000401E80EE801AA1EC011AF7D1EEE6D3ED0C
:100A8000000A401E80EE801AA3EC011AF7D10EE78F
:100A9000BCEC011AD1ED000A5B1E40EE410AE1EC0C
:100AA000010AF5D14DE7B0EC011AD2ED000A5B1E48
:100AB00040EE410AE2EC010AF5D17BE72DE9F04F67
:100AC00082B0466853680193058847884B880020A8
:100AD00000900888874201BFB2F800C0654552887F
:100AE00093421EBF6FF0020002B0BDE8F08F9FED91
:100AF000412A4FEA970EC7F3400B00BFDDE9000221
:100B000002EB800A4A6898464FF00009B0EE420AAC
:100B1000B4465FEA0E0025D092ED001ADCED001A13
:100B200002EB8302DCED010A01EE810A92ED001A6C
:100B300002EB8302401ED2ED001A02EB830200EEAC
:100B4000810A9CED021ADCED030A00040CF1100C82
:100B5000000C01EE210A92ED001A02EB830200EE76
:100B6000810AD9D117F0030026D0ACF10404A2EB1E
:100B7000830210F0010F08D002EB8302D4ED010ACA
:100B800092ED001A241D00EE810A5FEA0B0013D0DB
:100B900002EB830CD4ED010A9CED001A02EBC302B8
:100BA000401E00EE810AD4ED020A92ED001A04F113
:100BB000080400EE810AEBD109F10100AAEC010A58
:100BC0001FFA80F9486800EB8902A8F101001FFABA
:100BD00080F8B8F1000F99D1009806EB8706184409
:100BE00080B20090681E05042D0C87D102B0002051
:100BF000BDE8F08F0000000070B405880E884468DE
:100C0000D1F804C05368B54208D140884988884269
:100C100001BF11888D425188884203D070BC6FF0AB
:100C20000200704705FB00F1880827D094ED001AF8
:100C3000DCED000A94ED010ADCED011A31EE601AD8
:100C4000D4ED020A70EE611A9CED020A83ED001ADF
:100C5000C3ED011A94ED031ADCED031A30EEC00A5D
:100C6000401E71EE610A83ED020A04F11004C3ED27
:100C7000030A03F110030CF1100CD7D111F003009B
:100C800030D0B0F1004F30D200282BDD211F1B1FC8
:100C9000ACF1040210F0010F0AD091ED010AD2ED7F
:100CA000010A091D121D30EE600A83ED010A1B1DA9
:100CB000400817D091ED010AD2ED010A401E30EE36
:100CC000600A83ED010A91ED020AD2ED020A01F1F8
:100CD000080102F1080230EE600A83ED020A03F116
:100CE0000803E7D170BC00207047B4EC010A401E35
:100CF000FCEC010A30EE600AA3EC010AF5D1F1E741
:100D00002DE9F04F02884768B0F802804888D1F892
:100D1000049082B04FF0000A1646824207BF09884D
:100D200088456FF0020002B018BFBDE8F08F4FEAAF
:100D3000980B02EB42000190C8F34000CDF8000090
:100D400009EB8A01BBF1000F33D0019801EB820C53
:100D500001EB80043B46E64601EBC2054FEA0B007F
:100D600093ED000A401E81ED000A93ED010A01EBAC
:100D700002118CED000A93ED020A0CEB021C85EDCA
:100D8000000A93ED030A05EB021584ED000A04EB5B
:100D9000021403F11003E3D10EEB820000EB82009A
:100DA00000EB8201ABF10100504307EB0B1701EBA5
:100DB000001118F0030C21D03B1FA1EB82011CF0A5
:100DC000010F06D093ED010A01EB82011B1D81ED9D
:100DD000000A009880B100BF93ED010A01EB820484
:100DE00001EBC20184ED000A93ED020A401E81ED81
:100DF000000A03F10803EFD107EB8C070AF10100A9
:100E00001FFA80FA701E0604360C99D102B0002039
:100E1000BDE8F08F10B5431C02E010F8011B71B162
:100E20008107FAD14FF0013202C88C1A8C4314EAC0
:100E3000C211F9D0C01A0A0603D0C01E10BDC01AD4
:100E400010BD0A0401D0801E10BD0902FCD0401E56
:100E500010BD032A40F2308010F0030C00F0158022
:100E600011F8013BBCF1020F624498BF11F801CBAD
:100E700000F8013B38BF11F8013BA2F1040298BF12
:100E800000F801CB38BF00F8013B11F0030300F07C
:100E90002580083AC0F0088051F8043B083A51F820
:100EA00004CBA0E80810F5E7121D5CBF51F8043B25
:100EB00040F8043BAFF30080D20724BF11F8013B98
:100EC00011F801CB48BF11F8012B24BF00F8013BFA
:100ED00000F801CB48BF00F8012B704710B5203A4D
:100EE000C0F00B80B1E81850203AA0E81850B1E8E3
:100EF0001850A0E81850BFF4F5AF5FEA027C24BF99
:100F0000B1E81850A0E8185044BF18C918C0BDE88F
:100F100010405FEA827C24BF51F8043B40F8043B58
:100F200008BF7047D20728BF31F8023B48BF11F80D
:100F3000012B28BF20F8023B48BF00F8012B704767
:100F400002F0FF0343EA032242EA024200F037B80C
:100F50004FF0000200B5134694469646203922BF52
:100F6000A0E80C50A0E80C50B1F12001BFF4F7AF9D
:100F7000090728BFA0E80C5048BF0CC05DF804EB7F
:100F8000890028BF40F8042B08BF704748BF20F8ED
:100F9000022B11F0804F18BF00F8012B70477047EB
:100FA0007047704710B500F02BF8006810BD10B501
:100FB000044600F025F8046010BD4FF0000204293B
:100FC000C0F0128010F0030C3FF4C4AFCCF1040C5D
:100FD000BCF1020F18BF00F8012BA8BF20F8022BAC
:100FE000A1EB0C01FFF7B6BF5FEAC17C24BF00F89C
:100FF000012B00F8012B48BF00F8012B70470000BF
:1010000000487047641802201FB584B000200A9C75
:1010100006AB04AA02A90094AFF3008018B1DDE981
:10102000020108B010BD0348204000F037F800204E
:101030000146F6E70000207C004870476418022053
:101040007546FFF7F9FFAE4605006946534620F0A6
:101050000700854618B020B5FFF788F9BDE82040A5
:101060004FF000064FF000074FF000084FF0000B64
:1010700021F00701AC46ACE8C009ACE8C009ACE817
:10108000C009ACE8C0098D46704710B50446AFF3FF
:1010900000802046BDE81040FFF7F1B810B500F021
:1010A00009F8BDE81040AFF30080002801D000F03F
:1010B00057B8704710B5022803D0410103D50DA1E0
:1010C00012E0002010BD010101D50FA10CE0C1000C
:1010D00001D511A108E0810001D512A104E0400072
:1010E00001D513A100E0002115A000F03FF8012078
:1010F00010BD0000496E76616C6964204F706572A6
:101100006174696F6E00000044697669646520420D
:1011100079205A65726F00004F766572666C6F7742
:1011200000000000556E646572666C6F7700000009
:10113000496E657861637420526573756C74000044
:101140005349474650453A2041726974686D657449
:10115000696320657863657074696F6E3A2000007A
:1011600001491820ABBEFEE72600020070B5054617
:101170000C460A2000E06D1C00F011F835B128780B
:101180000028F8D102E0641C00F009F814B12078BE
:101190000028F8D1BDE870400A20AFF3008008B500
:1011A00069468DF800000320ABBE08BD7047CA43F6
:1011B0000260704721B1826842F00102826003E060
:1011C000826822F001028260704700000021084A14
:1011D0001168084A1140D0E900231A4383681A4372
:1011E000C3681A431143044AC2F80413704700004D
:1011F00004230140E030FCFF002001400146C86CA0
:1012000080B270470246002013680B400BB10120EA
:1012100000E000207047000030B5024600200023A7
:101220005068104C20400D790C6844EA0524204396
:10123000506090680C4C2040D1E903542C438D68D9
:101240002C434D7944EA450420439060D06A20F451
:1012500070000C7D641EE4B2234340EA0350D06268
:1012600030BD0000FFFEFFFCFDF7FFC0F0B50446F7
:101270000D4600200021092D11DDE068A5F10A06C8
:1012800006EB4607072606FA07F18843A5F10A068A
:1012900006EB460603FA06F10843E0600CE020691D
:1012A00005EB4507072606FA07F1884305EB4506D7
:1012B00003FA06F108432061072A0FDA606B561E15
:1012C00006EB86071F2606FA07F18843561E06EB33
:1012D000860605FA06F10843606322E00D2A0FDA5C
:1012E000206BD61F06EB86071F2606FA07F18843F8
:1012F000D61F06EB860605FA06F10843206310E0C8
:10130000E06AA2F10D0606EB86071F2606FA07F132
:101310008843A2F10D0606EB860605FA06F108439E
:10132000E062F0BD816841F080418160704700005B
:1013300038B10849096841F40001074AC2F80413AA
:1013400006E00449096821F40001034AC2F80413C5
:1013500070470000042301400020014010B52DED2E
:10136000028BB0EE408AB0EE480A06F087F9BDEC79
:10137000028B10BD10B52DED028BB0EE408AF0EE61
:10138000608AF0EE680AB0EE480A06F00DFABDEC8D
:10139000028B10BD10B52DED028BB0EE408AB0EE81
:1013A000480AFEF7F5FFBDEC028B10BDF0EE400AD7
:1013B000F5EEC00AF1EE10FA02DDB0EE600A7047F9
:1013C000B1EE600AFBE7000018B19FED020A80ED64
:1013D000000A70470000000018B19FED020A80ED7E
:1013E000000A7047DF8FB44170B52DED0C8B84B0CF
:1013F00006460C4615469FED990AF0EE408A9FED91
:10140000970AB0EE409A9FED950AF0EE40BA9FED34
:10141000930AF0EE409A9FED910AB0EE40AA0EB109
:1014200004B11DB904B0BDEC0C8B70BD8C48FFF746
:10143000CBFF8C48FFF7D0FF8A48D0ED000A9FED24
:101440008A1A60EE810AB0EE600A00F039F9F0EE17
:10145000408A28EEA80AF0EE408A8248D0ED000AC1
:10146000B0EE001A60EE810A9FED7F1A60EE810AED
:10147000B0EE600A00F024F9B0EE409A29EE090AB5
:10148000B0EE409ADFED790AB7EE000A00EEA80A46
:10149000DFED770A00EEC90ADFED760A20EE200ABA
:1014A000754880ED000A6E4890ED000ADFED730A82
:1014B00080EE201AB7EE000A31EE000A20EE000A94
:1014C0006D48D0ED000A80EE801A6D4880ED001A5C
:1014D00094ED000AB5EEC00AF1EE10FA0DD194EDCC
:1014E000010AB5EEC00AF1EE10FA06D194ED020A37
:1014F000B5EEC00AF1EE10FA46D09FED580AB0EEF4
:10150000408A0020019002900390D4ED000A60EE22
:10151000A00A94ED011AD4ED011A41EE210A94EDCE
:10152000021AD4ED021A41EE210AB0EE600A00F070
:10153000A9F8B0EE408A94ED000A20EE080A8DED7D
:10154000010A94ED010A20EE080A8DED020A94EDDD
:10155000020A20EE080A8DED030ADDED010AF1EE24
:10156000600AB0EE600AFFF7F9FEF0EE409A9DEDDA
:10157000031AF0EE410A9DED021AB0EE410AFFF7A0
:10158000F9FEB0EE40AA07E09FED340AF0EE409A73
:101590009FED320AB0EE40AA95ED000AB5EEC00A02
:1015A000F1EE10FA0DD195ED010AB5EEC00AF1EE9B
:1015B00010FA06D195ED020AB5EEC00AF1EE10FA66
:1015C0003CD0B0EE690A00F07BF8B0EE408AB0EE95
:1015D000690AFFF7DFFEB0EE40DAB0EE4A0A00F02B
:1015E0006FF8F0EE40AAB0EE4A0AFFF7D3FEB0EE75
:1015F00040BA28EE2A0AD5ED010A20EE200AD5EDE0
:10160000000A0DEE200A68EE0B0A95ED021A00EEB4
:10161000810AB0EE40CA95ED010A20EE0B0AD5ED25
:10162000020A0AEEE00AF0EE40CAF0EE6C0AB0EEF2
:101630004C0AFFF79FFEF0EE40BA03E09FED070A69
:10164000F0EE40BAB0EE4A1AF0EE690AB0EE6B0A5C
:10165000304606F0B7FB00BFE4E6000000000000E3
:10166000200300202403002035FA8E3CC1BFAD3B8F
:101670009DF8C5362F7C1C4128030020506CC24ABF
:101680002C030020F0EE400AF6EE001A60EEA11ADC
:10169000B0EE611AB0EE600A10EE100A0749A1EB35
:1016A000600000EE100A21EE002AF7EE081A42EE62
:1016B000401A61EE801AB0EE610A7047DF59375F59
:1016C00010B52DED028BB0EE408AB0EE480AFEF761
:1016D0009BFEBDEC028B10BD2DE9F0412DED028B80
:1016E0009AB00546B0EE408A0E461746984600204E
:1016F0001790189019901490159016904DB146B10E
:101700003FB1B8F1000F04D0B5EEC08AF1EE10FA87
:1017100005D100201AB0BDEC028BBDE8F08196ED3A
:10172000000A8DED170A96ED010A8DED180A96ED67
:10173000020A8DED190A97ED000A8DED140A97ED56
:10174000010A8DED150A97ED020A8DED160A17AA0A
:1017500014A9284606F088F9402104A8FFF7F8FBF1
:1017600000200090019002900390002417A904A883
:101770000BF0CCF800BF30E004A800EB041090EDB3
:10178000000AD5ED000A20EE200A04A800EB0410A0
:10179000D0ED010A95ED011A00EE810A04A800EBD4
:1017A0000410D0ED020A95ED021A00EE810A04A899
:1017B00000EB0410D0ED030A95ED031A00EE810A48
:1017C00020EE080AF0EE000A80EE201A684600EBD0
:1017D000840080ED001A601CC4B2042CCCDB002411
:1017E00010E005EB840090ED000A684600EB8400F1
:1017F000D0ED000A30EE200A05EB840080ED000AEF
:10180000601CC4B2042CECDB28460AF0A1FC0120C9
:1018100080E7000070B58AB04FF4407003F064F8C0
:101820004FF47A7007F034FF09F0AEFB0AF0FEFFC8
:1018300009F014FE14222AA105A8FFF74FFB00258A
:101840000AE005A8405D30B105A8405D294908704F
:10185000084605F09DFB6D1C112DF2DB20A30FCB7C
:1018600001AC0FC400240AE001A8005D30B101A85A
:10187000005D21490870084605F05AFC641C102CD4
:10188000F2DB08F075F85A2147F2305006F050FBB1
:1018900009F048FB5A214EF6602004F03BFB002083
:1018A00005231A460121009000F042F8002005238C
:1018B0001A460121009000F0DBF8002608E03046CF
:1018C00009F000FE40F2C52007F040FF701CC6B2D0
:1018D000042EF4DB0AF0C2FC06F0A2FD0AB070BDD3
:1018E0000102030405060708090A0B0C0D0E0F1070
:1018F0001100000094060220A406022000BFFEE7AB
:1019000010B50221084800F08BFA58B102210648B0
:1019100000F090F9054A0021034800F0A4FB0348B9
:1019200000F0ACFC10BD000000640040F80702208D
:101930002DE9F0418AB004460D4616461F46DDF8F3
:1019400040800121082003F027F90121480603F017
:1019500033F90121480603F03FF900214FF00070F0
:1019600003F03AF90320089002208DF824000020AB
:101970008DF8260003208DF8250001208DF8270022
:1019800008A92D4802F028F8092200212A4802F06F
:101990006BF809220121284802F066F800208DF832
:1019A0001A0001208DF81B0000208DF81C008DF816
:1019B0001D008DF81E008DF81F008DF816808DF823
:1019C00017408DF818608DF81950ADF8147005A9FE
:1019D0001A4800F0BEFA00208DF80E008DF80F00B6
:1019E00001208DF810000020ADF80400ADF80600CD
:1019F000ADF80800ADF80A00ADF80C0001208DF834
:101A0000110001A800F06AF9012202210B4800F040
:101A100097FA14208DF8000004208DF801000020B2
:101A20008DF8020001208DF80300684602F020FFC7
:101A300000200AB0BDE8F081000C024000640040C4
:101A400010B50221084800F0EBF958B10221064810
:101A500000F0F0F8054A0021034800F004FB0348B9
:101A600000F00CFC10BD0000006800400C080220D3
:101A70002DE9F0418AB004460D4616461F46DDF8B2
:101A800040800121022003F087F80121880603F03D
:101A900093F80121880603F09FF800214FF0806041
:101AA00003F09AF84FF44050089002208DF824007B
:101AB00000208DF8260003208DF8250001208DF8E8
:101AC000270008A92D4801F087FF09220C212B4887
:101AD00001F0CAFF09220D21284801F0C5FF0020AE
:101AE0008DF81A0001208DF81B0000208DF81C00D5
:101AF0008DF81D008DF81E008DF81F008DF81680E2
:101B00008DF817408DF818608DF81950ADF81470E5
:101B100005A91B4800F01DFA0E208DF80E000020CC
:101B20008DF80F0001208DF810000020ADF80400A2
:101B3000ADF80600ADF80800ADF80A00ADF80C00ED
:101B400001208DF8110001A800F0C8F8012202213F
:101B50000B4800F0F5F940208DF8000004208DF8C6
:101B6000010000208DF8020001208DF80300684676
:101B700002F07EFE00200AB0BDE8F08100040240C1
:101B800000680040F0B585B004460D4616461F4675
:101B90004FF40070009000208DF808008DF80900C7
:101BA00008208DF80A00200A8DF80B00E1B28DF8AC
:101BB0000C10290A8DF80D10E9B28DF80E10310ABB
:101BC0008DF80F10F1B28DF81010390A8DF8111040
:101BD000F9B28DF812106946024800F0BCFA05B05F
:101BE000F0BD0000006800402DE9F04104460D46BC
:101BF00016461F4640F2FF100C490860002008728C
:101C0000487208208872200AC87208460473290A9C
:101C100041738573310AC1730674390A417487743C
:101C20000146034800F097FABDE8F081E40702207E
:101C300000640040B1F5007F3AD00FDC202928D0A5
:101C400006DC01291CD004291DD0082940D11DE043
:101C5000402921D0B1F5807F3AD126E0B1F5004F7F
:101C600031D006DCB1F5806F25D0B1F5006F2FD1F2
:101C700024E0B1F5803F12D0B1F5003F28D111E04A
:101C8000154A826025E00822C26022E01022C2606C
:101C90001FE0082202611CE01022026119E0082204
:101CA000426016E01022426013E00422426010E01D
:101CB000042242600DE0042242600AE000228261B8
:101CC0000422426005E0002282610422426000E0BA
:101CD00000BF00BF704700000101010010B50021E6
:101CE000837A012202FA03F13D4A126842F00102AE
:101CF0003B4B1A603A4A1C3212688A43384B1C33F9
:101D00001A60027BCAB9364A0C3212688A43344BD5
:101D10000C331A604288C38842EA0343304A403297
:101D2000847A42F834300288838842EA03432C4A9A
:101D30004032847A02EBC4025360027B012A19D13B
:101D4000274A0C3212680A43254B0C331A6042882A
:101D5000038842EA0343224A4032847A42F834300C
:101D6000C288838842EA03431D4A4032847A02EBE8
:101D7000C4025360C27A3AB9194A121D12688A43E2
:101D8000174B1B1D1A6006E0154A121D12680A4304
:101D9000134B1B1D1A60028932B9114A14321268A2
:101DA0008A430F4B14331A600289012A06D10C4A68
:101DB000143212680A430A4B14331A60427B012A18
:101DC00006D1074A1C3212680A43054B1C331A60BD
:101DD000034A126822F00102014B1A6010BD000094
:101DE0000066004030B585B004460D4600950020E1
:101DF0008DF808008DF8090008208DF80A000020F1
:101E000004E0225C0DF10B010A54401C0828F8DBA9
:101E10006946024800F09FF905B030BD00680040F7
:101E200070B504460D46002660692840002871D030
:101E3000B5F5807F5CD010DC082D35D006DC012D97
:101E400020D0022D24D0042D72D127E0102D31D0C6
:101E5000202D35D0402D6BD138E0B5F5004F60D046
:101E600009DCB5F5007F49D0B5F5806F4CD0B5F5EC
:101E7000006F5DD14FE0B5F5803F2DD0B5F5003F47
:101E800056D12FE0A0682D4900F0F8FA064651E03F
:101E9000E068032100F0F2FA06464BE0E068082112
:101EA00000F0ECFA064645E0E068102100F0E6FAA2
:101EB00006463FE02069032100F0E0FA064639E0DB
:101EC0002069082100F0DAFA064633E02069102183
:101ED00000F0D4FA06462DE06068082100F0CEFA42
:101EE000064627E06068102100F0C8FA064621E0A7
:101EF000A069012100F0C2FA06461BE0A069022198
:101F000000F0BCFA064615E0A069042100F0B6FA1C
:101F100006460FE00FE0A069702100F0AFFA064618
:101F200008E06068042100F0A9FA064602E0FFE735
:101F3000002600BF00E00026304670BD0101010010
:101F40001AB143690B43436102E043698B43436128
:101F5000704730B5024600200023146824F00204C4
:101F60001460146844F00104146000E05B1C5468C1
:101F700004F001041CB94FF6FF74A342F6D1546873
:101F800004F001040CB900206CE08C79012C04D120
:101F9000146844F08004146003E0146824F08004A2
:101FA0001460CC79012C04D1146844F0400414600E
:101FB00003E0146824F0400414600C7A012C04D16E
:101FC000146844F02004146003E0146824F0200432
:101FD00014604C7A012C04D1146844F0100414608D
:101FE00003E0146824F0100414608C7A012C04D1EE
:101FF000146844F00804146003E0146824F0080432
:102000001460CC7A012C04D1146844F004041460E8
:1020100003E0146824F0040414608C78A407CD78DD
:1020200044EA05640D7944EA05444D7944EA0554CF
:102030000D886D1E2C43D461146824F001041460D3
:10204000002300E05B1C546804F001041CB14FF64F
:10205000FF74A342F6D1546804F001040CB10020CF
:1020600000E0012030BD10B500F5D87303EB01137B
:102070001B6803F004031372137A53B900F5D87385
:1020800003EB01131B6840F2FF7404EA535313601F
:1020900009E000F5D87303EB01131B686FF060448F
:1020A00004EAD303536000F5D87303EB01131B68F4
:1020B00003F00203537200F5D87303EB01135B685E
:1020C00003F00F03937200F5D87303EB01135B6801
:1020D0001B0AD37400F5D87303EB01139B68D3720A
:1020E00000F5D87303EB01139B681C0A147300F509
:1020F000D87303EB01139B681C0C547300F5D87361
:1021000003EB01139B681B0E937300F5D87303EB6D
:102110000113DB68D37300F5D87303EB0113DB689D
:102120001C0A147400F5D87303EB0113DB681C0C54
:10213000547400F5D87303EB0113DB681B0E937422
:1021400021B9C36843F02003C36003E0036943F08F
:102150002003036110BD10B502460020936803F010
:102160008063B3F1806F00D110E0936803F00063E7
:10217000B3F1006F01D1012008E0936803F08053B0
:10218000B3F1805F01D1022000E00420042874D064
:1021900002F5C07303EB00131B6803F0010402F5A2
:1021A000C07303EB00131C600B7A7BB94B7A0C886D
:1021B00043EA445302F5C07404EB0014246823433B
:1021C00002F5C07404EB0014236010E00B7A4C6835
:1021D00043EAC4034C7A234302F5C07404EB0014B1
:1021E0002468234302F5C07404EB001423608B7A47
:1021F00003F00F038B7202F5C07303EB00135B68EF
:1022000023F00F0402F5C07303EB00135C6002F5CA
:10221000C07303EB00135B688C7A234302F5C07430
:1022200004EB001463608B7B1C064B7B44EA034485
:102230000B7B44EA0323CC7A234302F5C07404EBFE
:102240000014A3608B7C1C064B7C44EA03440B7C8B
:1022500044EA0323CC7B234302F5C07404EB00144F
:10226000E36002F5C07303EB00131B6843F0010445
:1022700002F5C07303EB00131C6010BD10B50446DB
:1022800040F205222068811A904212D00ADCA0F2A6
:10229000012000287CD001287FD002287ED003288E
:1022A00079D17CE0012929D002294CD0FB29F7D132
:1022B000BAE06C48008800B26A490881207BE17A64
:1022C00040EA012067490880A17B607B41EA002049
:1022D00000B264498880217CE07B41EA002000B2A2
:1022E00060494880607C88714FF4047104F10B00F0
:1022F000FFF778FD012000F0EBFAB0E05A480088C3
:1023000000B259490881207BE17A40EA0120564910
:102310000880A17B607B41EA002000B2524988809E
:10232000217CE07B41EA002000B24F494880607C7C
:10233000887140F2112104F10B00FFF753FD0220D8
:1023400000F0C6FA8BE04948008800B2474908818E
:10235000207BE17A40EA012044490880A17B607B30
:1023600041EA002000B241494880217CE07B41EAFB
:10237000002000B23D498880607C887140F21221C3
:1023800004F10B00FFF72EFD032000F0A1FA66E038
:1023900002E002E002E061E000BF00BF00BF207881
:1023A000401E334908700846007800EB8000314930
:1023B00031F8100000B22E49097801EB81012D4A55
:1023C00002EB41010881207BE17A40EA01202849A3
:1023D000097801EB810122F81100A17B607B41EAC1
:1023E000002000B22249097801EB810102EB410192
:1023F0004880217CE07B41EA002000B21C4909783A
:1024000001EB810102EB41018880607C1849097869
:1024100001EB810102EB4101887115490978091D21
:10242000C8B200F055FA1AE01348006812498860F3
:1024300008464068C860207BE17A40EA01200E49E6
:102440000860A17B607B41EA00200B49486040F2B4
:10245000013104F10B00FFF7C5FC00E000BF00BF35
:1024600010BD00009C070220A6070220B007022032
:1024700000010020BA070220441102200246002079
:1024800002EA01030BB1012000E0002070470000C8
:1024900010B51049104800F043F9C8B10D490E4875
:1024A00000F022F808F03EFE0BF084FA01280FD06D
:1024B0000A490B4800680AF07FFC0848006838B1F8
:1024C0004FF0805007490860BFF34F8FBFF36F8F05
:1024D00010BD00000008002088640240D0020020E7
:1024E0005402002004ED00E00246094B9A4201D25A
:1024F000084801E00648103801F000531BB1064BB4
:102500000B40C36002E0044B0B4083607047000047
:1025100010640240006002407D0F7D0F0246094BAF
:102520009A4201D2084801E00648103801F00053F1
:102530001BB1064B0B40C36002E0044B0B408360B1
:102540007047000010640240006002407D0F7D0F64
:1025500021B1026842F00102026003E0026822F049
:102560000102026070470000016821F00101016072
:102570000021016041608160C160016121214161F0
:102580004A49884204D13D21484A103A91608CE082
:1025900046491831884205D14FF47461434A103AD4
:1025A000916082E041493031884205D14FF4741185
:1025B0003E4A103A916078E03C494831884205D162
:1025C0004FF07461394A103A91606EE037496031DA
:1025D000884204D13649354A103AD16065E0334922
:1025E0007831884204D13349304A103AD1605CE0F6
:1025F0002E499031884204D12F492C4A103AD1609B
:1026000053E02A49A831884205D14FF03D51274A6D
:10261000103AD16049E02949884204D13D21274A36
:10262000083A116041E025491831884205D14FF43C
:102630007461224A083A116037E0204930318842FB
:1026400005D14FF474111D4A083A11602DE01B4961
:102650004831884205D14FF07461184A083A116038
:1026600023E016496031884204D11149134A121FF0
:1026700011601AE011497831884204D10D490F4A9E
:10268000121F116011E00D499031884204D10A49AE
:102690000A4A121F116008E00849A831884204D193
:1026A0004FF03D51054A121F116070471060024003
:1026B0003D000020400F002000003D20106402403B
:1026C00021B1026842F48022026003E0026822F431
:1026D00080220260704722B1036843F40023036044
:1026E00003E0036823F4002303600161704701469F
:1026F00000200A6802F001020AB1012000E0002077
:1027000070470146486880B27047014600200A6859
:1027100002F400220AB1012000E00020704700000E
:1027200030B503460A46002000240B4DAB4201D2CF
:102730000A4901E00849103902F000550DB14C6812
:1027400000E00C68064D2C4004EA02050DB10120A2
:1027500000E0002030BD0000106402400060024034
:102760007D0F7D0F10B501F080034BB122B143699D
:1027700043F08003436103E0436923F08003436136
:1027800080290BD02AB1036801F01E0423430360A3
:1027900004E0036801F01E04A343036010BD0000C1
:1027A00010B500220268134B1A40CC680B68234313
:1027B0004C6923438C692343CC6923430C6A23432C
:1027C0004C6A23438C6A23434C6B23438C6B234317
:1027D0001A430260426922F00702D1E90B34234315
:1027E0001A4342610B6943604B6883608B68C36026
:1027F00010BD00003F801CF0416070477047000032
:1028000070B50446002500BF11E005EBC5002A495C
:1028100001EB8000C07CC0F3401018B1284607F0DF
:1028200065F802E0284607F06DF8681CC5B2072D70
:10283000EBDD092C05D108F0F1FB09201F490870D8
:1028400037E01E480078A04201D01C4804701C48A4
:10285000007878B91B480078401C1A49087008466F
:102860000078322805DD00200870144800781449EB
:10287000087070BD1448007880B908F0D9FB13487F
:10288000007840B10020114908700D480078401EC2
:102890000B49087002E001200C4908700A480078D2
:1028A000401C0949087008460078142801DD002002
:1028B000087000BFDDE70000220B02208501002028
:1028C0008801002089010020860100208701002066
:1028D00010B5044604EBC400454901EB80000068D4
:1028E00004EBC401424A02EB810148600BF072F82C
:1028F00004EBC4013E4A02EB8101086004EBC40012
:10290000114601EB8000C07CC0F38010B0B104EB35
:10291000C40001EB8000C07C20F0400004EBC40147
:1029200002EB8101C87404EBC400114601EB800086
:10293000006804EBC40102EB8101C86004EBC40031
:102940002B4901EB8000806990B304EBC401284A55
:1029500002EB81018869804758B304EBC400244925
:1029600001EB8000C07C20F02000203004EBC4018B
:102970001F4A02EB8101C87404EBC400114601EB4D
:102980008000C07C20F08000803004EBC40102EBAA
:102990008101C87404EBC400114601EB8000006A99
:1029A00028B304EBC40102EB8101086A80471EE0F2
:1029B0000FE0FFE704EBC4000D4901EB8000C07C91
:1029C00020F0800004EBC401094A02EB8101C874C5
:1029D0000DE004EBC400064901EB8000C07C20F050
:1029E000800004EBC401024A02EB8101C87410BDEF
:1029F000220B022010B58CB004463022584968469C
:102A0000FEF76CFA00209EE000EB40013DF811203B
:102A100000EBC001534B03EB8101098A62F30B0108
:102A200000EBC00203EB8202118200EB40016A4618
:102A300002EB41014A8800EBC00103EB8101B1F8D0
:102A4000111062F30F1100EBC00203EB8202A2F837
:102A5000111000EB40016A4602EB4101097900EBDD
:102A6000C00203EB8202D27C61F3440200EBC0019E
:102A700003EB8101CA74002100EBC00203EB820268
:102A8000916100EBC00203EB8202D16100EBC00256
:102A900003EB8202116200EBC0011A4602EB8101D6
:102AA000C97C21F00101491C00EBC00203EB82024A
:102AB000D17400EBC0011A4602EB8101C97C21F000
:102AC0002001203100EBC00203EB8202D17400EB45
:102AD000C0011A4602EB8101C97C21F0400140315E
:102AE00000EBC00203EB8202D17400EBC0011A4676
:102AF00002EB8101C97C21F08001803100EBC00232
:102B000003EB8202D1749FED180A10EE101A00EB4D
:102B1000C00203EB8202516100EBC0011A4602EBD6
:102B200081010C6000EBC00102EB81014C6000EB05
:102B3000C00102EB81018C6000EBC00102EB81015E
:102B4000CC60411CC8B20828FFF65EAF07480549B3
:102B500088610748C861074808620CB010BD0000D2
:102B6000A0F10008220B02200000000055510008CF
:102B700071C600087BC600080AF02CFF9E49086059
:102B800008460068FFF736FF39200AF067F832E19F
:102B90000AF020FF98490860082098490870984872
:102BA00090F8330120F04001954880F8331190F8F7
:102BB000330120F02001924880F83311002409E10C
:102BC00004EBC4008E4901EB8000C07C00F00100E2
:102BD00000B9FEE004EBC400894901EB8000006805
:102BE00085490968081A04EBC401854A02EB810192
:102BF000098AC1F30B01884260D904EBC400114675
:102C000001EB8000C07CC0F3401008BB04EBC400A3
:102C100001EB8000C07C20F04000403004EBC40198
:102C200002EB8101C87404EBC400114601EB800083
:102C3000C07C20F02000203004EBC40102EB8101B5
:102C4000C8746D48006804EBC40102EB8101886020
:102C500004EBC4006A4901EB8000C07CC0F3430070
:102C60006649097801EBC101654A02EB8101C97C23
:102C7000C1F34301884201DD60490C70604890F85F
:102C8000330120F0400040305D4981F833010846AF
:102C900090F8330120F02000203081F8330104EB5C
:102CA000C40001EB8000C069002806D004EBC40119
:102CB000534A02EB8101C869804789E004EBC400F4
:102CC0004F4901EB8000C0684B490968081A04EBC2
:102CD000C4014B4A02EB8101B1F81110B0EB111F96
:102CE0001BD204EBC400114601EB8000C07C20F035
:102CF000400004EBC40102EB8101C87404EBC40082
:102D0000114601EB8000C07C20F02000203004EB55
:102D1000C40102EB8101C8745AE004EBC4003849D5
:102D200001EB8000C07C20F0400004EBC401344A79
:102D300002EB8101C87404EBC400114601EB800072
:102D4000C07CC00968B104EBC40001EB8000C07C0A
:102D500020F02000203004EBC40102EB8101C87494
:102D60000DE004EBC400264901EB8000C07C20F09C
:102D7000200004EBC401224A02EB8101C87404EB79
:102D8000C4001F4901EB8000006804EBC4011C4A29
:102D900002EB8101496888421AD904EBC40011464C
:102DA00001EB8000006804EBC40102EB810149687B
:102DB000401A00EE100AF8EE400A9FED121A81EE5A
:102DC000200A10EE100A04EBC40102EB81014861F5
:102DD00000BF641C082CFFF6F3AE08490978491CB3
:102DE000C8B2FFF70DFD0A2009F038FF002009F0F6
:102DF000DFFD05490860CBE680010020840100204A
:102E0000220B022000007A447C01002010B54FF410
:102E1000807000F011F840B14FF4807000F006F8B7
:102E200008F088F9172002F0F9FA10BD014908608E
:102E300070470000143C014001460020034A12681C
:102E40000A400AB1012000E000207047143C014014
:102E5000002123498279002A3AD00A461268036881
:102E60009A430B461A600A1D126803689A430B1DA9
:102E70001A60027911440A6803681A430A60184A02
:102E80000832126803689A43154B08331A601A1DFA
:102E9000126803689A43124B0C331A604279102A65
:102EA0000ED11A1F126803681A430D4B08331A60BB
:102EB0001A1D126803681A43094B0C331A600DE09F
:102EC0000749427911440A6803681A430A6005E019
:102ED000027911440A6803689A430A607047000047
:102EE000003C014001490860704700000C3C024072
:102EF00070B504460A460026092502B909E0012AF0
:102F000001D1160205E0022A01D1160201E04FF4B8
:102F1000407600F09FF80546092D28D11548006835
:102F200020F4407013490860084600683043086088
:102F30000846006820F0F80008600846006844F081
:102F4000020108430B4908600846006840F48030DD
:102F5000086000F07FF805460648006820F002008F
:102F6000044908600846006820F0F8000860284618
:102F700070BD0000103C024009201349096801F4AB
:102F80008031B1F5803F01D101201CE00E49096874
:102F900001F0100109B1062015E00B49096801F4A0
:102FA000807109B102200EE00749096801F0E001D3
:102FB00009B1072007E00449096801F0020109B1DD
:102FC000082000E0092070470C3C024003480068DC
:102FD00040F000400149086070470000103C02408A
:102FE00030B502460C46092500F034F80546092D97
:102FF00019D10E48006820F440700C49086008465A
:10300000006840F4007008600846006840F0010065
:103010000860146000F01EF805460448006820F0BF
:10302000010002490860284630BD0000103C024003
:103030000548006800F0004028B1044802490C39F6
:103040000860034808607047103C02402301674550
:10305000AB89EFCD08B509200090FFF78DFF0090F8
:1030600002E0FFF789FF00909DF800000128F8D0EA
:103070009DF8000008BD000010B52DED028B044640
:1030800000205049086001204F4908604D48006801
:1030900001281BD14D4890ED712AF0EE421A90EDB7
:1030A000372AB0EE421A4A4890ED052AB8EEC22AF5
:1030B000F0EE420A90ED042AB8EEC22AB0EE420ABF
:1030C000444807F0FDFD4449086020E03D480068A1
:1030D000E8B93F4890ED040AB8EEC00A3F4880EDD9
:1030E000000A3B4890ED050AB8EEC00A3B4880ED67
:1030F000010A364890ED370A384880ED020A334815
:1031000090ED710A354880ED030A334908602E4876
:10311000006801281CD12D4890ED710AB1EE400ADB
:10312000F0EE401A90ED370AB1EE400AB0EE401AC8
:103130002B4890ED000AF8EEC00A2A4890ED000AEC
:10314000B8EEC00A234807F0BBFD274908601CE021
:103150001D480068C8B9234890ED000AB8EEC00ABF
:10316000224880ED000A1E4890ED000AB8EEC00A21
:103170001E4880ED010A9FED1E0A80ED020A9FEDB8
:103180001C0A80ED030A184908601A4800F08AFEFC
:10319000B0EE408AF0EE608A51EC180B0AF062FE45
:1031A00015490860154800F07DFEB0EE408AF0EE4B
:1031B000608A51EC180B0AF055FE11490860BDEC0D
:1031C000028B10BD180300201C0300204C0F0220AE
:1031D000441102205015022024020020441802202D
:1031E00014030020100300202002002054180220A5
:1031F00000000000801102202C0200206813022031
:103200002802002010B5044604B910BD94F8B80097
:1032100020B904F10C0007F0E7FA19E094F8B800BF
:10322000012804D104F10C0007F078FA10E094F8BA
:10323000B800022804D104F10C0007F071FB07E08C
:1032400094F8B800032803D104F10C0007F0BEF88D
:1032500094F8A00120B904F1F40007F0C5FA19E0D0
:1032600094F8A001012804D104F1F40007F0B8F9A2
:1032700010E094F8A001022804D104F1F40007F052
:10328000C5FA07E094F8A001032803D104F1F40083
:1032900007F02EF900BFB8E710B52DED028B0446FC
:1032A00014B9BDEC028B10BD606890ED010A84ED8D
:1032B0006D0AB4F8A211D4F8F420108807F0FEFECD
:1032C00084ED6B0AA06890ED010A84ED710A6068D4
:1032D00090ED000A84ED330AB4F8BA10E268108861
:1032E00007F0ECFE84ED310AD4ED6B0AB0EE600A13
:1032F000FDF74EF8A068D0ED020A20EE208AD4ED4A
:103300006B0AB0EE600AFDF77FF8A068D0ED000A06
:1033100000EE608A84ED378A00BFC2E710B504462C
:1033200006F00EFCE06006F003FCC4F8F40006F0C2
:10333000F7FB606006F0F8FBA06006F083FC2060FD
:10334000002184F8B91084F8B81084F8A11184F829
:10335000A011BEEE002ADFED3F1AB2EE081ADFED33
:103360003D0AB2EE040A04F1100000F069F99FED85
:10337000392ADFED381AB2EE041ADFED360AB2EE62
:10338000040A04F1400000F05BF9DFED330A9FED21
:10339000330A334A002104F1700001F0A7FB9FEDCE
:1033A0002D2ADFED2C1AB2EE0E1ADFED2A0AB2EE4C
:1033B000040A04F1F80000F043F99FED262ADFED3E
:1033C000251AB2EE081ADFED230AB2EE040A04F55C
:1033D000947000F035F9DFED200A9FED200A214AB4
:1033E000002104F5AC7001F081FB04F1100000F045
:1033F00041FD04F1400000F03DFD04F1700001F0DA
:10340000A5FB04F1F80000F035FD04F5947000F020
:1034100031FD04F5AC7001F099FB2046FFF73CFF4D
:1034200094ED330A84ED360A94ED310A84ED320AC4
:1034300094ED370A84ED380A94ED6D0A84ED700A34
:1034400094ED6B0A84ED6C0A94ED710A84ED720AB6
:1034500010BD00000000000000409C4500401C46DC
:10346000DCF10008D0F1000810B5044604B910BD25
:1034700094F8B90068B194F8B80050B9B4F9F00004
:1034800000EE100AB8EEC00A84ED3B0A84ED3A0A59
:1034900028E094F8B900012808D094F8B800012871
:1034A00004D194ED330A84ED360A1BE094F8B90098
:1034B000022808D094F8B800022804D194ED310A0B
:1034C00084ED320A0EE094F8B90003280AD094F88B
:1034D000B800032806D194ED330A84ED340A322073
:1034E00009F0BCFB94F8B81084F8B91094F8A10165
:1034F00068B194F8A00150B9B4F9D80100EE100AEF
:10350000B8EEC00A84ED750A84ED740A32E094F8CE
:10351000A101012808D094F8A001012804D194ED5C
:103520006D0A84ED700A25E094F8A101022808D004
:1035300094F8A001022804D194ED6B0A84ED6C0A82
:1035400018E094F8A101032814D094F8A0010328EE
:1035500010D19FED0B0A84ED6B0AD4F8F4000188BA
:10356000A4F8A2119FED060A84ED6C0A94ED6B0A93
:1035700084ED6C0A94F8A01184F8A11100BF76E7DD
:103580000000000010B52DED048B0446B0EE408A1B
:10359000F0EE608AB0EE419A24B99FED260ABDECA8
:1035A000048B10BD84ED048AC4ED038A78EEC89ABA
:1035B0009FED211ADFED210AB0EE690A07F042FD06
:1035C00084ED050A94ED000AD4ED050A20EE200AE8
:1035D00084ED080A94ED090AD4ED010A94ED051A68
:1035E00000EE810A84ED090A94ED020A20EE090A30
:1035F00084ED0A0AD4ED070AB0EE600A04F1240053
:1036000004F01AFA94ED080AD4ED090A30EE200A03
:10361000D4ED0A0A30EE200A84ED0B0AD4ED060A36
:10362000B0EE600A04F12C0004F006FA94ED0B0AE7
:10363000B5E7000000000000DB0F4940DB0F49C088
:1036400000B9704780ED001AC0ED011A80ED022A22
:10365000DFED062AC0ED052ADFED042AC0ED042ABD
:10366000C0ED070A80ED060A00BFEAE7000000008F
:103670001CB5044604B91CBD9FED240A8DED010A5A
:103680009FED220A8DED000A2246694601A806F048
:1036900015FB94F8B80020B99DED010A84ED3A0AB3
:1036A00014E094F8B800012806D19DED010A04F158
:1036B0000C0000F037F809E094F8B800022805D1B2
:1036C0009DED010A04F10C0000F0A6F894F8A001A9
:1036D00020B99DED000A84ED740A14E094F8A0016D
:1036E000012806D19DED000A04F1F40000F01AF85B
:1036F00009E094F8A001022805D19DED000A04F12B
:10370000F40000F089F800BFB5E7000000000000F9
:1037100010B5044604B910BD204606F089FB00BF71
:10372000F9E7000010B52DED028B0446B0EE408A9B
:1037300014B9BDEC028B10BDD4ED330A94ED301AF0
:1037400070EEC10AB0EE600A9FED2F1ADFED2F0A6E
:1037500007F078FC2E4880ED000A94ED2E0AD0ED9B
:10376000000A30EE200A30EE080AD4ED2C0AB4EE3E
:10377000E00AF1EE10FA11DDB5EEC08AF1EE10FAB2
:103780002DDD94ED2C0AD4ED2E0A30EE600AD0ED3A
:10379000000A30EE600AB0EE408A20E094ED2E0A76
:1037A0001B48D0ED000A30EE200A30EE080AD4EDB6
:1037B0002D0AB4EEE00AF1EE10FA10D2B5EEC08A8E
:1037C000F1EE10FA0BD294ED2D0AD4ED2E0A30EE64
:1037D000600AD0ED000A30EE600AB0EE408A94ED47
:1037E000330A0C4880ED000AD0ED000A70EE880A1A
:1037F000B0EE600A9FED041ADFED040A07F022FC28
:1038000084ED330A00BF94E7DB0F4940DB0F49C06A
:103810003C0200204002002000B97047D0ED2F0A82
:1038200070EE800AC0ED2F0AD0ED2F0A90ED2C1A11
:10383000F4EEC10AF1EE10FA04DDD0ED2C0AC0ED71
:103840002F0A0CE0D0ED2F0A90ED2D1AF4EEC10AEC
:10385000F1EE10FA03D2D0ED2D0AC0ED2F0A00BF11
:10386000DBE70000C92009F0F9F93448FFF756FDFD
:1038700008F08EFE05E00A2009F0F0F92F48FFF766
:103880000BFD012008F0FCFF0028F4D1022008F015
:10389000F7FF0028EFD1032008F0F2FF0028EAD15B
:1038A0004BE02648FFF734FF2448FFF7DDFD2348AF
:1038B000FFF7F2FC2148FFF7DBFE2048FFF7A2FCF0
:1038C00008F0AAFD1E49088007F054FB1B48B0F819
:1038D000F0001C4908801948B0F8D8011A4908803E
:1038E000012008F0CDFF38B1022008F0C9FF18B15F
:1038F000032008F0C5FFB0B9002008F0C1FF30B1C7
:1039000000231A4619461846FEF76EF90BE000230D
:103910000B48B0F900200C48B0F900100948B0F984
:103920000000FEF761F900F01DFE012009F096F994
:10393000002009F03DF805490860B2E74C0F02206D
:10394000BC010020B8010020BA010020B401002011
:1039500000B585B00121022001F01EF90121880384
:1039600001F04AF90821012001F050FE4FF4807067
:10397000009000208DF8040001208DF80600002042
:103980008DF8070003208DF805006946114800F006
:1039900023F84FF48070029000208DF80C0008206E
:1039A0008DF80D0001208DF80E0002A8FFF750FAE7
:1039B00017208DF8100005208DF8110000208DF8DB
:1039C000120001208DF8130004A800F051FF05B08B
:1039D00000BD000000040240F0B50A4600210023AB
:1039E000002400BF3DE0012505FA01F3156805EA52
:1039F00003049C4234D105684F000326BE40B54302
:103A0000056015794E00B5400668354305601579A7
:103A1000012D02D01579022D16D185684F0003269D
:103A2000BE40B543856055794E00B5408668354344
:103A30008560456801268E40B543456045689679A6
:103A40008E40B6B235434560C5684F000326BE4080
:103A5000B543C560D5794E00B540C6683543C560ED
:103A6000491C1029BFD3F0BDF0B5002300244D0739
:103A7000ED0E02FA05F3CE1000F1200555F82650A0
:103A80004E07F70E0F26BE40B543CF1000F12006BB
:103A900046F82750CE1000F1200555F8265045EA8B
:103AA0000304CE1000F1200545F82640F0BD024683
:103AB000002013690B400BB1012000E0002070478B
:103AC000418370470183704742694A4042617047B1
:103AD000014600205C4A914203D2B1F1006F00D34D
:103AE000B0E05A4A914204D2574A914201D3082089
:103AF000A8E0574A914204D2544A914201D310207F
:103B0000A0E0544A914204D2514A914201D3182074
:103B100098E0514A914204D24E4A914201D320206A
:103B200090E04E4A914204D24B4A914201D3282060
:103B300088E04B4A914204D2484A914201D3302056
:103B400080E0484A914204D2454A914201D338204C
:103B500078E0454A914204D2424A914201D3402042
:103B600070E0424A914204D23F4A914201D3482038
:103B700068E03F4A914204D23C4A914201D350202E
:103B800060E0B1F1016F04D2394A914201D358206B
:103B900058E0384A914204D2B1F1016F01D380203C
:103BA00050E0354A914204D2324A914201D38820F2
:103BB00048E0324A914204D22F4A914201D39020E8
:103BC00040E02F4A914204D22C4A914201D39820DE
:103BD00038E02C4A914204D2294A914201D3A020D4
:103BE00030E0294A914204D2264A914201D3A820CA
:103BF00028E0264A914204D2234A914201D3B020C0
:103C000020E0234A914204D2204A914201D3B820B5
:103C100018E0204A914204D21D4A914201D3C020AB
:103C200010E01D4A914204D21A4A914201D3C820A1
:103C300008E01A4A914204D2174A914201D3D02097
:103C400000E0D82070470000004000080080000815
:103C500000C000080000010800000208000004087D
:103C6000000006080000080800000A0800000C0810
:103C700000000E08004010080080100800C0100866
:103C800000001108000012080000140800001608C7
:103C90000000180800001A0800001C0800001E0898
:103CA000014600205D4A914204D2B1F1006F01D378
:103CB0001046B2E05A4A914204D2584A914201D386
:103CC0005748AAE0574A914204D2554A914201D33B
:103CD0005448A2E0544A914204D2524A914201D33C
:103CE00051489AE0514A914204D24F4A914201D33D
:103CF0004E4892E04E4A914204D24C4A914201D33E
:103D00004B488AE04B4A914204D2494A914201D33E
:103D1000484882E0484A914204D2464A914201D33F
:103D200045487AE0454A914204D2434A914201D340
:103D3000424872E0424A914204D2404A914201D341
:103D40003F486AE03F4A914204D23D4A914201D342
:103D50003C4862E0B1F1016F05D23A4A914202D388
:103D60004FF0016059E0384A914204D2B1F1016F3D
:103D700001D3104651E0354A914204D2324A914271
:103D800001D3324849E0324A914204D22F4A91424B
:103D900001D32F4841E02F4A914204D22C4A91424C
:103DA00001D32C4839E02C4A914204D2294A91424D
:103DB00001D3294831E0294A914204D2264A91424E
:103DC00001D3264829E0264A914204D2234A91424F
:103DD00001D3234821E0234A914204D2204A914250
:103DE00001D3204819E0204A914204D21D4A914251
:103DF00001D31D4811E01D4A914204D21A4A914252
:103E000001D31A4809E01A4A914204D2174A914252
:103E100001D3174801E04FF00260704700400008EE
:103E20000080000800C0000800000108000002082F
:103E300000000408000006080000080800000A0846
:103E400000000C0800000E08004010080080100858
:103E500000C010080000110800001208000014083B
:103E6000000016080000180800001A0800001C08CE
:103E700000001E0800B970479FED090A80ED040A92
:103E800080ED030A80ED050A9FED050A80ED0A0A20
:103E900080ED090A80ED080A80ED0B0A00BFEAE711
:103EA000000000003B210CE04A1E00F1080303EB78
:103EB000C20292ED000B1A4602EBC10282ED000B2A
:103EC000491E0029F0DC90ED000B80ED020B90ED17
:103ED000780B704700BFFEE7F0B50546059C002053
:103EE0007FE093ED050A00EB4006404F07EB8606A6
:103EF000D6ED000A20EE200AD3ED060A00EB4006BC
:103F000007EB860696ED011A00EE810AD3ED070A4B
:103F100000EB400607EB860696ED021A00EE810ADA
:103F2000334E06EB8006D6ED000A30EE200A05EB94
:103F3000800686ED000A93ED010A00EB40062D4F46
:103F400007EB8606D6ED000A20EE200AD3ED020A22
:103F500000EB400607EB860696ED011A00EE810A9B
:103F6000D3ED030A00EB400607EB860696ED021A36
:103F700000EE810A204E06EB8006D6ED000A30EEF8
:103F8000200A01EB800686ED000A94ED010A00EBA1
:103F900040061A4F07EB8606D6ED000A20EE200AEF
:103FA000D4ED020A00EB400607EB860696ED011AF7
:103FB00000EE810AD4ED030A00EB400607EB86060B
:103FC00096ED021A00EE810A0D4E06EB8006D6ED44
:103FD000000A30EE200A02EB800686ED000A461C3D
:103FE000F0B20328FFF67DAFF0BD00005C020020B8
:103FF000240D022080020020300D0220A4020020A7
:104000004C0D022010B52DED028BB0EE408A2748F2
:10401000007838B305F00CFE00EE100AB8EEC00AC6
:10402000F0EE408AF0EE680AB0EE480A204800F050
:1040300065FC1F4890ED080AB5EEC00AF1EE10FAD3
:1040400003D29FED1C0A80ED080A194890ED080A7A
:10405000BCEEC00A10EE100A84B22146164802F0E7
:10406000EEF920E005F0E4FD00EE100AB8EEC00A1B
:10407000B4EEC80AF1EE10FA10D210480078401CD5
:104080000E49087008460078C82807DD0120074956
:1040900008709FED0B0A064880ED0A0A41F287314D
:1040A000054802F0CCF9BDEC028B10BDC80200201F
:1040B000980D02200000000000040040CC02002007
:1040C00000401C4508B5072008F0C8FD00BF07F0F8
:1040D00067F80028FBD100BF06F068FD0028FBD17F
:1040E00007F0A4F9044609F013FCA4490860FFF79F
:1040F0002FFC1722A249A34801F0CAF90122114658
:10410000A14801F04DFA012202219F4801F048FA2E
:104110000021102001F06AF92FE100BF4FF0FF31BC
:10412000012008F0B9FB0128F8D198499448401CB7
:1041300007F0A4F896499248103006F07FFD9448A5
:10414000924B944A944900909448FFF7C5FE8F48DB
:10415000007800F00100002846D091480078E8BBC4
:10416000012141F2883001F055FEDFED8E0A9FED0E
:104170008E0A8E4A01218E4800F0B8FC854A864995
:104180008C48FDF731F98C4B1A1F111F894805F037
:10419000DBFC814890ED000A884880ED000A8848E1
:1041A00080ED000A874880ED000A7B4890ED010A07
:1041B000824880ED010A824880ED010A814880ED45
:1041C000010A754890ED020A7C4880ED020A7C489D
:1041D00080ED020A7B4880ED020A00E005E07048AD
:1041E0000078401C6E490870BBE0754890ED000AED
:1041F000744880ED000A714890ED000A704880ED27
:10420000000A90ED000A7048D0ED000A20EE200A66
:104210006C48D0ED000A6C4890ED011A00EE810A5E
:104220005D48D0ED000A684890ED021A00EE810A60
:10423000624880ED000A624890ED010A614880ED15
:10424000010A5E4890ED010A5D4880ED010A90ED9B
:10425000010A5D48D0ED000A20EE200A5948D0ED51
:10426000010A594890ED011A00EE810A4A48D0ED42
:10427000010A554890ED021A00EE810A4F4880ED80
:10428000010A4F4890ED020A4E4880ED020A4B4861
:1042900090ED020A4A4880ED020A90ED020A4A486F
:1042A000D0ED000A20EE200A4648D0ED020A46482A
:1042B00090ED011A00EE810A3748D0ED020A42481B
:1042C00090ED021A00EE810A3C4880ED020A314B63
:1042D000024632499FED3D0A3648FDF7FDF9364B5F
:1042E0001A1F111F334805F02FFC39480088B8B950
:1042F000384890ED000A384880ED000A354890EDC6
:10430000010A354880ED010A324890ED020A324830
:1043100080ED020A2E480088401C2D49088020E0CC
:104320002B480088B0F5FA7F0FDA42F210715F2057
:1043300003F062FE2948007898B114480278244BB3
:104340001649254806F080FB0BE021480088B0F5AF
:10435000FA7F06D103F048FE1D480088401C1C4926
:1043600008800A48D0ED040AB0EE600AFFF74AFE62
:10437000002008F01DFB1A490860CEE65402002018
:10438000E00C0220E8F1000800500140F80C022087
:104390003C0D0220700D0220640D0220580D0220F9
:1043A000C90200200080894500A08C4500F2000869
:1043B000980D0220880D0220840D0220F80D0220A5
:1043C000EC0D0220E00D02200CF200086F12833A7F
:1043D000CA020020180D0220240D0220C80200206D
:1043E0005802002070B506460C4615461548007860
:1043F00038B3288888B9144890ED000A134880ED36
:10440000000A114890ED010A104880ED010A0E489B
:1044100090ED020A0D4880ED020A0D4802782B4605
:104420000C490A4806F010FB084890ED000A84ED9C
:10443000000A90ED010A84ED010A90ED020A84ED74
:10444000020A70BDC8020020180D0220240D0220AF
:10445000F80C0220580D022091ED000A054A82ED69
:10446000000A91ED010A82ED010A91ED020A82ED46
:10447000020A7047180D022010B52DED088B304848
:1044800090ED800ADFED2F0A20EE200ABDEEC00A73
:104490002D4880ED000A00241DE004EB8402284929
:1044A000143101EB8201B1F910000AF06BF841EC14
:1044B000190BB0EE490AF0EE690A03F09DFAB0EE6E
:1044C000408AF0EE608A51EC180B09F0F7FF1F49A3
:1044D00041F82400641C042CDFDB1C4909681B4ADA
:1044E00052681144194A92681144184AD2688818CF
:1044F0000AF048F841EC1B0BB0EE4B0AF0EE6B0AE9
:1045000003F07AFAB0EE40AAF0EE60AA9FED100B2D
:1045100053EC102B51EC1A0B09F012FE41EC190B65
:104520009FED0D0B53EC102B0AF08CF841EC180B9F
:1045300009F0C4FF0A490860BDEC088B10BD0000FB
:10454000B00802200000C8423C010020DC0A022022
:10455000000000A099998940000000000000384048
:10456000400100209A4890ED330ADFED9A0A20EED0
:10457000200ABDEEC00A984880ED000A944890EDEC
:10458000360ADFED940A20EE200ABDEEC00A9348F9
:1045900080ED000A8E4890ED370ADFED910A20EE9B
:1045A000200ABDEEC00A8F4880ED000A884890EDD1
:1045B000380ADFED880A20EE200ABDEEC00A8A48DC
:1045C00080ED000A824890ED310ADFED820A20EE8C
:1045D000200ABDEEC00A854880ED000A7C4890EDB7
:1045E000320ADFED7C0A20EE200ABDEEC00A8048C8
:1045F00080ED000A764890ED6D0ADFED760A20EE38
:10460000200ABDEEC00A7B4880ED000A704890ED9C
:10461000700ADFED700A20EE200ABDEEC00A76486F
:1046200080ED000A6A4890ED710ADFED6A0A20EE1B
:10463000200ABDEEC00A714880ED000A644890ED82
:10464000720ADFED640A20EE200ABDEEC00A6C4853
:1046500080ED000A5E4890ED6B0ADFED6A0A20EEFD
:10466000200ABDEEC00A684880ED000A584890ED67
:104670006C0ADFED580A20EE200ABDEEC00A63483E
:1046800080ED000A62480068D0ED000A614890EDB4
:10469000000AB8EEC00A9FED601A30EE010A30EE53
:1046A000C00ABDEEC00A5D4880ED000A58480068A7
:1046B000D0ED010A5A4890ED000AB8EEC00A9FED0D
:1046C000591A30EE010A30EEC00ABDEEC00A564853
:1046D00080ED000A4E48006890ED020ABDEEC00A67
:1046E000524880ED000A4A48006890ED030ABDEE8A
:1046F000C00A4F4880ED000A4E4890ED000ADFEDF9
:10470000350A20EE200ABDEEC00A4B4880ED000AB3
:104710004A4890ED000ADFED3B0A20EE200ABDEE8C
:10472000C00A474880ED000A3C4890ED000AB8EE08
:10473000C00A4048D0ED000A9FED421A00EEC10ABF
:10474000BDEEC00A404880ED000A3748006840428C
:1047500000EE100AB8EEC00A3848D0ED000A9FED0E
:10476000391A00EEC10ABDEEC00A384880ED000AD1
:104770003748006890ED000AB1EE400ABDEEC00A6D
:10478000344880ED000A3248006890ED010ABDEE21
:10479000C00A314880ED000A2D48006890ED010AFA
:1047A000BDEEC00A2D4880ED000A2948006890ED52
:1047B000000A17480068D0ED020A9FED291A01EEA1
:1047C000600ABDEEC00A274880ED000A704700006D
:1047D0004C0F022000007A44C0010020CC010020D0
:1047E0000000C842E4010020EC010020E0010020AC
:1047F000DC010020C4010020D0010020E8010020DD
:10480000F001002000007AC4D8010020D40100206B
:10481000240200203002002000005C440802002036
:10482000340200200000CD430C02002010020020C2
:104830001402002028020020000200202C02002088
:10484000040200204D3D0F441003002014030020FB
:1048500020020020F4010020F8010020FC010020CB
:10486000000000001C02002000BFFEE770470000AF
:1048700070B5002100230F22C4781CB3174C2468A4
:1048800004F4E064C4F5E064C4F30721C1F1040456
:10489000E3B20A4144789C40E1B284781440214359
:1048A0000C07210E0E4C05786155047804F01F05A5
:1048B0000124AC4005786D11AD0005F1E025C5F887
:1048C000004109E0047804F01F050124AC40054DC7
:1048D0000678761145F8264070BD00000CED00E02A
:1048E00000E400E080E100E002490143024A116077
:1048F000704700000000FA050CED00E0B0EE401A31
:1049000010B99FED790A704790ED100A80ED110AF9
:1049100090ED0F0A80ED100AC0ED060A80ED071A2F
:1049200030EEC10A80ED0F0A0178002975D190EDB3
:10493000010AD0ED0F1A20EE210A80ED090A90ED50
:104940000A0AD0ED021A90ED0F2A01EE820A80EDDC
:104950000A0A90ED0D0A80ED0E0A90ED0C0A80ED2A
:104960000D0A90ED0F0AD0ED101A30EE610A80EDBD
:104970000C0A90ED030AD0ED0C1A20EE210A80ED0E
:104980000B0A90ED0A0AD0ED051AB4EEE10AF1EE39
:1049900010FA04DD90ED050A80ED0A0A10E090EDB2
:1049A0000A0AD0ED051AF1EE611AB4EEE10AF1EE51
:1049B00010FA05D290ED050AB1EE400A80ED0A0A20
:1049C00090ED090AD0ED0A1A30EE210AD0ED0B1A4B
:1049D00030EE210A80ED080A90ED080AD0ED041AA5
:1049E000B4EEE10AF1EE10FA04DD90ED040A80ED78
:1049F000080A76E090ED080AD0ED041AF1EE611A8B
:104A0000B4EEE10AF1EE10FA6BD290ED040AB1EEC9
:104A1000400A80ED080A64E0FFE70178012960D1CF
:104A200090ED0F0AD0ED101A30EE610AD0ED011AA8
:104A300020EE210A80ED090A90ED020AD0ED0F1A4E
:104A400020EE210A80ED0A0A90ED0D0A80ED0E0A93
:104A500090ED0C0A80ED0D0A90ED0F0AD0ED101AC2
:104A6000B0EE002A02EE610AD0ED111A30EE210AF2
:104A700080ED0C0A90ED030AD0ED0C1A20EE210A0D
:104A800080ED0B0A90ED090AD0ED0A1A30EE210AEA
:104A9000D0ED0B1A30EE210AD0ED081A30EE210AC3
:104AA00080ED080A90ED080AD0ED041AB4EEE10A90
:104AB000F1EE10FA04DD90ED040A80ED080A10E032
:104AC00090ED080AD0ED041AF1EE611AB4EEE10A95
:104AD000F1EE10FA05D290ED040AB1EE400A80ED35
:104AE000080A90ED080A0EE70000000000B102B9C4
:104AF0007047017092ED001A80ED011A92ED011AD3
:104B000080ED021A92ED021A80ED031A80ED040A7C
:104B1000C0ED050A9FED0C1A80ED0E1A80ED0D1AFE
:104B200080ED0C1A9FED081A80ED081A80ED0B1A23
:104B300080ED0A1A80ED091A80ED111A80ED101A25
:104B400080ED0F1A00BFD3E70000000000B97047E6
:104B50009FED100A80ED110A80ED100A80ED0F0A1A
:104B60009FED0C0A80ED0E0A80ED0D0A80ED0C0A17
:104B70009FED080A80ED0B0A80ED0A0A80ED090A14
:104B800080ED080A9FED030A80ED060A80ED070A12
:104B900000BFDCE70000000029B1064A12680243AA
:104BA000044B1A6004E0034A12688243014B1A6006
:104BB000704700003038024029B1064A12680243AB
:104BC000044B1A6004E0034A12688243014B1A60E6
:104BD000704700004038024029B1064A126802437B
:104BE000044B1A6004E0034A12688243014B1A60C6
:104BF000704700002038024029B1064A126802437B
:104C0000044B1A6004E0034A12688243014B1A60A5
:104C1000704700004438024029B1064A1268024336
:104C2000044B1A6004E0034A12688243014B1A6085
:104C30007047000024380240F0B500210022002413
:104C4000022500260223324F3F6807F00C0121B1F4
:104C5000042905D0082937D105E02E4F076036E03A
:104C60002D4F076033E02A4F3F1F3F68C7F3805640
:104C7000274F3F1F3F6807F03F036EB1264FB7FB3A
:104C8000F3F7DFF88CC0ACF1040CDCF800C0CCF317
:104C9000881C07FB0CF40CE01E4FB7FBF3F7DFF8A2
:104CA00070C0ACF1040CDCF800C0CCF3881C07FB2E
:104CB0000CF4174F3F1F3F68C7F301477F1C7D006F
:104CC000B4FBF5F7076002E0124F076000BF00BFBA
:104CD0000F4F3F6807F0F0010909104F7A5C076831
:104CE000D74047600A4F3F6807F4E051890A0B4FED
:104CF0007A5C4768D7408760054F3F6807F460419A
:104D0000490B064F7A5C4768D740C760F0BD00008A
:104D1000083802400024F400001BB70014000020F3
:104D200070B590B004460E46154601214A48FFF77B
:104D300033FF01211020FFF75FFF01211020FFF753
:104D40006BFF00211020FFF767FF07221146434841
:104D5000FEF78AFE80200E9002208DF83C00002095
:104D60008DF83E0003208DF83D0000208DF83F00B7
:104D70000EA93A48FEF730FE394801F03FFC3948A9
:104D80000A900020ADF82C00ADF82E004FF48060A2
:104D9000ADF830000420ADF832000020ADF834004A
:104DA0000AA92F4801F0F2FC012240212C4801F011
:104DB0001CFC10212A4801F003FC012240F224418E
:104DC000274801F0BDFC0121254801F002FC252007
:104DD0008DF83C0004208DF83D0000208DF83E0049
:104DE00001208DF83F000FA8FFF742FD1E48FDF798
:104DF000BBFB4FF0006001901948001D0290039426
:104E000000200490059506904FF4806007900020E4
:104E1000089009904FF480700A904FF440300B9046
:104E200000200C900D900E900F9001A90E48FDF7F8
:104E3000B7FC002231460C48FDF74DFC01210A4821
:104E4000FDF73EFC00210848FDF782FB01210648E2
:104E5000FDF77EFB10B070BD020040000004024070
:104E600000100140A0860100406402400146002974
:104E700001DD08467047484200B2FBE710B500204C
:104E8000AB49087017E0AA48007800EB800101EBFD
:104E9000C000A84908440079C00938B10020A649DB
:104EA0000880A6490880A649087010BDA04800786F
:104EB000401C9F4908709E4800780528E3DBA04805
:104EC000007878B99D480088B0F5FA6F0ADD08F0DF
:104ED00081FD9C490860012099490870002097498C
:104EE00008803BE096480078022811D1934800885A
:104EF000B0F5FA6F0CDD0020914908708F490880E9
:104F00008C48407C20F0800080308A49487425E03D
:104F10008B480078032821D188480088B0F5FA6FC3
:104F20001CDD002086490870844908808148807F04
:104F300020F0800080307F49887704F087FEBDEE46
:104F4000C00A10EE100A0A3040B27F494870084685
:104F500090F901002D2801DD2D2048707B48006864
:104F6000B0F9000010F5167F27DA78480068B0F92C
:104F7000020010F5167F20DA74480068B0F90400CA
:104F8000B0F5167F19DD71480068B0F9060010F51C
:104F9000167F12DA6D480068807A02280DD16B48BE
:104FA0000068C07A022808D16548007828B96348AB
:104FB0000088401C6149088066E064480068B0F9D8
:104FC0000000B0F5167F2ADD60480068B0F90200E5
:104FD000B0F5167F23DD5D480068B0F9040010F5D8
:104FE000167F1CDA59480068B0F90600B0F5167F44
:104FF00015DD56480068807A022810D153480068B1
:10500000C07A02280BD14E48007840B14B48008846
:10501000401C4A49088002204949087034E04B4846
:105020000068B0F90000B0F5167F2ADD4748006837
:10503000B0F9020010F5167F23DA44480068B0F991
:10504000040010F5167F1CDA40480068B0F906002D
:1050500010F5167F15DA3D480068807A022810D1D5
:105060003A480068C07A02280BD13548007840B130
:1050700032480088401C31490880032030490870BC
:1050800002E000202D49088008F0A4FC30490860A7
:10509000084600682B490968401A44F62061884296
:1050A00003D9002026490870FFE6294800682549F1
:1050B0000968401A42F2107188420AD921480068F2
:1050C00038B11F48007820B149001F2002F094FF3A
:1050D00010E01F4800681B490968401A0AD01948A7
:1050E000006838B11648007820B142F210715F2094
:1050F00002F082FF1248007820B10F480088401C5F
:105100000D4908800C480088B0F5C87F05DD0C48C3
:10511000007810B100200849088007480088C82896
:1051200004DD0748007808B102F05EFF00BFBCE66E
:10513000F100002058070220F8000020FA000020AB
:10514000FC000020F4000020B4000020B00000208B
:10515000EC00002010B52449B1F90000FFF786FEED
:10516000B0F52F7F00DD24E01F49B1F90200FFF701
:105170007DFEB0F52F7F00DD1BE01B49B1F9040077
:10518000FFF774FEB0F52F7F00DD12E01649B1F98C
:105190000600FFF76BFEB0F52F7F00DD09E0124837
:1051A000807A00B905E01048C07A00B901E000201B
:1051B00010BD00200C49088048808880C880088184
:1051C0000220887202210848C172002006498881A5
:1051D00000210548C18101828174C1740020024907
:1051E00088820120E4E70000040E022010B5044686
:1051F0000021104801F0EDF900210F48FDF7A8F952
:1052000021460D48FDF7F8FA10210A4801F0D8F9B7
:105210004FF081510848FDF767F908490648FDF746
:105220007DF901210448FDF793F90121014801F0BE
:10523000D0F910BD001001404064024000802010F1
:1052400010B50021014801F0C4F910BD0010014063
:1052500000B101B970470278437842EA0322C2F3F1
:105260000A020A804278D210837842EA4312C2F3DB
:105270000A024A8082789211C37842EA8302037953
:1052800042EA8322C2F30A028A80027952104379E9
:1052900042EAC312C2F30A02CA804279C2F301127F
:1052A0008A72427912119308CB728279C37942EAE9
:1052B000032212B28A81027A437A42EA032213B2AB
:1052C00001F10C02CB81827AC37A42EA032213B243
:1052D00001F10C020B82037B8B74437BCB74827BCA
:1052E000C37B42EA03228A82027C437C42EA032295
:1052F00012B20A810A88A2F5806212B20A804A8834
:10530000A2F5806212B24A808A88A2F5806212B247
:105310008A80CA88A2F5806212B2CA800A89A2F580
:10532000806212B20A8100BF94E7000000B587B026
:1053300001212020FFF730FC01210805FFF75CFC6C
:105340004FF46070059002208DF8180000208DF851
:105350001A0001208DF81B0003208DF8190005A903
:105360002048FEF739FB052207211E48FEF77CFB8B
:10537000052208211B48FEF777FB05220921194861
:10538000FEF772FB01210805FFF746FC00214FF4F0
:105390008010FFF741FC0020ADF800004FF4827050
:1053A000ADF802000020ADF804000220ADF80600C0
:1053B0000120ADF808004002ADF80A003820ADF831
:1053C0000C000020ADF80E000720ADF81000694673
:1053D000054800F0FCF80121034800F0D5F807B0BB
:1053E00000BD000000140240005001400A4A12882B
:1053F0004FF2C7731A40084B1A801A4612880243AC
:105400001A801A4612880A431A801A46128842F0F5
:1054100040021A80704700000050014010B5044659
:1054200000211848FDF794F8002116481830FDF7C0
:105430008FF800BF1348FDF75AF90028FAD100BFD2
:1054400010481830FDF753F90028F9D10E490D48DE
:105450001830FDF749F80D490A48FDF745F821468F
:105460000848FDF7C9F9214606481830FDF7C4F988
:10547000012104481830FDF76BF801210148FDF7C0
:1054800067F810BD70640240000C0020300000205E
:1054900070B590B005460E46144601218805FFF709
:1054A0007BFB44208DF83C0005208DF83D0000205A
:1054B0008DF83E0001208DF83F000FA8FFF7D8F9C6
:1054C0002F48FDF751F800BF2D48FDF710F90028CF
:1054D000FAD14FF0606000902A48019002960020B7
:1054E0000390049405904FF480600690002007908C
:1054F000089009904FF440300A9000200B900C90D7
:105500000D900E9069461E48FDF74AF901221021C0
:105510001B48FDF727F900211948FDF719F818482D
:105520001838FDF721F800BF15481838FDF7DFF8E7
:105530000028F9D14FF08060009012480190029548
:10554000402003900494002005904FF48060069062
:1055500000200790089009904FF480300A900020B6
:105560000B900C900D900E90694605481838FDF789
:1055700017F9002102481838FCF7EAFF10B070BD97
:10558000886402400C50014021B1028842F0400280
:10559000028004E002884FF6BF731A400280704711
:1055A0001AB183880B43838002E083888B43838016
:1055B00070470246002013890B400BB1012000E028
:1055C000002070470146888970478181704710B577
:1055D0000022028802F441520B884C8823438C88B5
:1055E0002343CC8823430C8923434C8923438C8950
:1055F0002343CC8923431A430280838B4FF2FF74E9
:10560000234083830B8A038210BD000030B5002243
:105610008B071C0F0F2303FA04F20B4B8C1053F86B
:1056200024309343084C8D1044F8253023468C10C9
:1056300053F824308C07240F00FA04F42343024C5F
:105640008D1044F8253030BD083801400CB50020DD
:10565000019000904148006840F480303F49086064
:1056600000BF3E48006800F4003000900198401CE4
:105670000190009818B90198B0F5A04FF1D13748C2
:10568000006800F4003010B10120009001E000201B
:1056900000900098012860D130484030006840F008
:1056A00080502E49403108602D48006840F4404049
:1056B0002B490860294808300068284908310860EB
:1056C0000846006840F4004008600846006840F45E
:1056D000A05008602348091F0860081F006840F0B8
:1056E0008070091F086000BF1C48006800F000704F
:1056F0000028F9D01A48006840F480301849086042
:1057000000BF1748406800F480300028F9D01448E2
:10571000006840F400301249086000BF104840683B
:1057200000F400300028F9D040F205700E490860FE
:105730000A480830006820F0030008490831086072
:105740000846006840F00200086000BF03480830C7
:10575000006800F00C000828F8D10CBD00380240A9
:1057600000700040062D4008003C024070B5044621
:105770000D462078012806D15A4860602020E0605C
:10578000022020819BE02078022806D155486060E5
:105790002020E0600120208191E02078032806D1BC
:1057A000514860601020E0602020208187E0207850
:1057B000042805D14C4860601020E06020817EE024
:1057C0002078052806D1484860601020E06040201D
:1057D000208174E02078062806D1434860601020BC
:1057E000E060000220816AE02078072805D13F4868
:1057F00060600420E060208161E02078082806D104
:105800003B4860600220E0600120208157E0207862
:10581000092806D1354860600420E0600820208116
:105820004DE020780A2805D1314860600220E06010
:10583000208144E020780B2806D12C4860600420A9
:10584000E060102020813AE020780C2806D127481B
:1058500060600420E0600120208130E020780D2885
:1058600006D1224860600420E0602020208126E0EC
:1058700020780E2806D11D4860600420E0600220D8
:1058800020811CE020780F2806D11A486060012092
:10589000E0602020208112E02078102806D11548F1
:1058A00060600120E0601020208108E0207811284D
:1058B00005D1114860608015E06040002081012D15
:1058C00004D121896068FEF7FDF809E025B9218936
:1058D0006068FEF7F5F803E021896068FEF7F0F8EC
:1058E00070BD000000140240001002400008024099
:1058F00000040240000002400020024070B504464F
:105900000D462078012804D14E48A0600420A061F3
:1059100078E02078022804D14A48A0600320A061E2
:1059200070E02078032804D14648A0600220A061DE
:1059300068E02078042804D14248A0600120A061DA
:1059400060E02078052804D13F48A0600420A061D1
:1059500058E02078062804D13B48A0600320A061CD
:1059600050E02078072804D13748A0600220A061C9
:1059700048E02078082804D13348A0600120A061C5
:1059800040E02078092804D18007A0600120A061B0
:1059900038E020780A2804D14007A0600220A061E6
:1059A00030E020780B2805D14FF08040A060032024
:1059B000A06127E020780C2805D14FF08040A0603E
:1059C0000420A0611EE020780D2804D11F48A060AB
:1059D0000120A06116E020780E2804D11B48A060A9
:1059E0000220A0610EE020780F2804D11748A060A3
:1059F0000320A06106E02078102803D11348A0609E
:105A00000420A061A069012804D12946A06800F003
:105A100014FD16E0A069022804D12946A06800F010
:105A20000EFD0EE0A069032804D12946A06800F00D
:105A300008FD06E0A069042803D12946A06800F00B
:105A400002FD70BD000C0040000800400004014051
:105A500010B5574890ED000A564880ED000A5648A8
:105A600090ED000A524880ED000A544890ED000A7B
:105A70004F48D0ED000A20EE200A5048D0ED010A30
:105A80004C4890ED001A01EE200A4D48806AB0F9AA
:105A9000020000EE900AF8EEE00A9FED4A1A60EE6E
:105AA000810A464890ED021A00EE810A424880EDD4
:105AB000000A90ED000A424880ED0B0A806A0088D7
:105AC0003F49896AB1F90810401AB0F5805F08DDD6
:105AD0003B4890F83E00401E40B2394981F83E00F4
