:100000000C94D6050C94FE050C94FE050C94FE058C
:100010000C94FE050C94FE050C94FE050C94FE0554
:100020000C94FE050C94FE050C94FE050C94FE0544
:100030000C94FE050C94FE050C94FE050C94FE0534
:100040000C948E0D0C94FE050C94A70C0C94810C52
:100050000C94FE050C94FE050C94FE050C94FE0514
:100060000C94D80D0C94FE0500407A10F35A00A0B1
:10007000724E18090010A5D4E80000E87648170071
:1000800000E40B54020000CA9A3B000000E1F505B1
:10009000000080969800000040420F000000A086FB
:1000A00001000000102700000000E803000000002D
:1000B0006400000000000A000000000001000000D1
:1000C00000002C76D888DC674F0823DFC1DFAE59EB
:1000D000E1B1B796E5E3E453C63AE651997696E87E
:1000E000E6C28426EB898C9B62ED407C6FFCEFBC02
:1000F0009C9F40F2BAA56FA5F490055A2AF75C932D
:100100006B6CF9676DC11BFCE0E40D47FEF520E662
:10011000B500D0ED902E0300943577050080841E45
:10012000080000204E0A000000C80C333333330FA0
:10013000986E12831141EF8D2114893BE65516CF3D
:10014000FEE6DB18D1844B381BF77C1D901DA4BB49
:10015000E424203284725E228100C9F124ECA1E5FE
:100160003D27DB40A4A62EAFDA0281DA1281DA0243
:10017000818F2000A1C8D300408DAED580A800009B
:10018000600000000000000000000000000000E02F
:100190000000000000000000000000000001E0007E
:1001A00000000000000000000000000001F000005E
:1001B000000000000000000000000003F00000004C
:1001C0000000000000000000000007F00000000038
:1001D00000000000000000000007F8000000000020
:1001E00000000000000000000FF800000003C00045
:1001F0007E000001E0007F0FF800000003C000FE59
:10020000000001E000FFEFF800000003C000FE0066
:100210000001E000FFFFF800000003C000F0000054
:10022000000F007FFE7FC0000003C000F000000050
:100230000F003FFE7FF83FF1FBCFFCFEF3BC3DEF2C
:10024000E01FFE7FFF7FFBFFDFFEFEFFBC3DEFE018
:100250001FC6FFFF7FFBFFDFFEFEFFBC3DEFE00F91
:10026000E3C7FE787BC3DE1EF0FFBC3DEF0007FF57
:1002700087FC787BC3DE1EF0F83C3DEF0001FFFFFA
:10028000F0007BC3C01EF0F03C3DEF0001F37FE0C7
:100290003FFBC3CFFEF0F03C3DEF0003E33F807F28
:1002A000FBC3DFFEF0F03C3DEF0007E73C00787B4E
:1002B000C3DE1EF0F03C3DEF0007FFBE00787BC3BD
:1002C000DE1EF0F03C3DEF0007FFFE00787BC3DE52
:1002D0001EF0F03C3DEF000FFFFE007FFBFFDFFE56
:1002E000F0F03FFDEFE00FFFFF007FFBFFDFFEF0D0
:1002F000F03FFDEFE00FF9FF003E79F9CF9EF0F0FF
:100300001F3DE7E01FF1FF000000000000000000BB
:100310000000001F80FF007FFFFFFFFFFFFFFFFFC8
:10032000FFE01C007F007FFFFFFFFEB46D888D188B
:10033000E000001F007FFFFFFFFE95AD7DB577E079
:1003400000000F007FFFFFFFFEA5AD9D8D19E000AF
:100350000006007FFFFFFFFEB5ADEDB57EE00000BB
:100360000000000180000000000000000000038089
:1003700000000000000000000007C00000000000B6
:100380000000000007C00000000000000000000F97
:10039000C00000000000000000001FE0000000009E
:1003A00000000000001FE00000000000000000004E
:1003B0003FE00000000000000000003FF0000000EF
:1003C0000000000000007FF0000000000000001F9F
:1003D000F87FF0000000000000003FFE7FF000000A
:1003E00000000000003FFF7FF00000000000000060
:1003F0001FFFFBE0000000000000000FFFF9FFC03E
:100400000000000000000FFFF9FFF80000000000EE
:100410000007FFF1FFFF00000000000003FC73FF76
:10042000FF80000000000001FE3FFFFF8000000091
:10043000000000FF1E0FFF000000000000007FFE14
:100440001FFC000000000000003FFFFFF80000005C
:10045000000000000FDFFFE0000000000000001FB0
:1004600019FFC0000000000000003F3CFF0000003A
:1004700000000000007E7CF800000000000000008A
:100480007FFE7C0000000000000000FFFFFC000079
:10049000000000000000FFFFFE0000000000000060
:1004A00000FFFFFE0000000000000001FFEFFE0063
:1004B00000000000000001FFCFFE0000000000006F
:1004C0000003FF07FE0000000000000003FC07FE21
:1004D0000000000000000003F003FE000000000028
:1004E0000000018000FE000000000000000000008D
:1004F0007E000000000000000000003E0000000040
:100500000000000000000C00000000000007800058
:10051000FC000003C0000000078001FC000003C0D5
:10052000000000078001FC000003C00000000780FD
:1005300001E00000001E000000078001E000000054
:100540001E007FE3F79FF9FDE7787BDFC0FFF7FF31
:10055000BFFDFDFF787BDFC0FFF7FFBFFDFDFF782C
:100560007BDFC0F0F787BC3DE1FF787BDE00F0F772
:1005700087BC3DE1F0787BDE0000F787803DE1E05D
:10058000787BDE007FF7879FFDE1E0787BDE00FF70
:10059000F787BFFDE1E0787BDE00F0F787BC3DE147
:1005A000E0787BDE00F0F787BC3DE1E0787BDE00A1
:1005B000F0F787BC3DE1E0787BDE00FFF7FFBFFD91
:1005C000E1E07FFBDFC0FFF7FFBFFDE1E07FFBDF86
:1005D000C07CF3F39F3DE1E03E7BCFC00000000014
:1005E00000000000000000FFFFFFFFFFFFFFFFFF14
:1005F000FFC0FFFFFFFFFD68DB111A31C0FFFFFFE7
:10060000FFFD2B5AFB6AEFC0FFFFFFFFFD4B5B3B7B
:100610001A33C0FFFFFFFFFD6B5BDB6AFDC0535366
:10062000443133303620616C6C6F636174696F6E76
:10063000206661696C6564000000000023002600EC
:100640002900000000080002010000030407000068
:100650000000000000002200FF2100000000000058
:100660003E5B4F5B3E3E6B4F6B3E1C3E7C3E1C1820
:100670003C7E3C181C577D571C1C5E7F5E1C00187E
:100680003C1800FFE7C3E7FF0018241800FFE7DB72
:10069000E7FF30483A060E2629792926407F0505CE
:1006A00007407F05253F5A3CE73C5A7F3E1C1C080B
:1006B000081C1C3E7F14227F22145F5F005F5F06D0
:1006C000097F017F006689956A606060606094A21E
:1006D000FFA29408047E040810207E201008082A37
:1006E0001C08081C2A08081E101010100C1E0C1ED6
:1006F0000C30383E3830060E3E0E0600000000007A
:1007000000005F00000007000700147F147F14241E
:100710002A7F2A12231308646236495620500008A3
:10072000070300001C2241000041221C002A1C7FFC
:100730001C2A08083E0808008070300008080808D5
:1007400008000060600020100804023E5149453E48
:1007500000427F400072494949462141494D3318C2
:1007600014127F1027454545393C4A4949314121FA
:100770001109073649494936464949291E000014DE
:100780000000004034000000081422411414141426
:1007900014004122140802015909063E415D594ED8
:1007A0007C1211127C7F494949363E414141227FEA
:1007B0004141413E7F494949417F090909013E4183
:1007C0004151737F0808087F00417F41002040416C
:1007D0003F017F081422417F404040407F021C02BD
:1007E0007F7F0408107F3E4141413E7F0909090691
:1007F0003E4151215E7F0919294626494949320364
:10080000017F01033F4040403F1F2040201F3F40E9
:1008100038403F63140814630304780403615949A2
:100820004D43007F414141020408102000414141F5
:100830007F040201020440404040400003070800DA
:1008400020545478407F284444383844444428385D
:100850004444287F385454541800087E090218A4D0
:10086000A49C787F0804047800447D400020404028
:100870003D007F1028440000417F40007C04780444
:10088000787C080404783844444438FC182424183C
:1008900018242418FC7C08040408485454542404E4
:1008A000043F44243C4040207C1C2040201C3C4011
:1008B00030403C44281028444C9090907C44645430
:1008C0004C44000836410000007700000041360823
:1008D0000002010204023C2623263C1EA1A1611253
:1008E0003A4040207A38545455592155557941227F
:1008F00054547842215554784020545579400C1E68
:100900005272123955555559395454545939555410
:1009100054580000457C410002457D420001457C61
:10092000407D1211127DF0282528F07C5455450099
:100930002054547C547C0A097F4932494949323A4F
:100940004444443A324A4848303A4141217A3A4292
:10095000402078009DA0A07D3D4242423D3D404068
:10096000403D3C24FF2424487E4943662B2FFC2F26
:100970002BFF0929F620C0887E09032054547941B1
:100980000000447D413048484A32384040227A00D5
:100990007A0A0A727D0D19317D2629292F282629E8
:1009A00029292630484D402038080808080808083A
:1009B00008382F10C8ACBA2F102834FA00007B007A
:1009C0000008142A142222142A1408550055005530
:1009D000AA55AA55AAFF55FF55FF000000FF0010B9
:1009E0001010FF00141414FF001010FF00FF10106F
:1009F000F010F0141414FC001414F700FF0000FFB2
:100A000000FF1414F404FC141417101F10101F100E
:100A10001F1414141F00101010F0000000001F100D
:100A20001010101F10101010F010000000FF101018
:100A300010101010101010FF10000000FF14000024
:100A4000FF00FF00001F10170000FC04F41414172F
:100A500010171414F404F40000FF00F71414141415
:100A6000141414F700F7141414171410101F101F87
:100A7000141414F4141010F010F000001F101F00D4
:100A800000001F14000000FC140000F010F0101013
:100A9000FF10FF141414FF141010101F00000000AA
:100AA000F010FFFFFFFFFFF0F0F0F0F0FFFFFF009E
:100AB00000000000FFFF0F0F0F0F0F3844443844B1
:100AC000FC4A4A4A347E02020606027E027E026325
:100AD000554941633844443C04407E201E200602B0
:100AE0007E020299A5E7A5991C2A492A1C4C72018D
:100AF000724C304A4D4D303048784830BC625A46CE
:100B00003D3E494949007E0101017E2A2A2A2A2ABE
:100B100044445F444440514A444040444A514000A8
:100B200000FF0103E080FF000008086B6B0836122D
:100B3000362436060F090F060000181800000010B2
:100B400010003040FF0101001F01011E00191D1798
:100B500012003C3C3C3C0000000000000103070F79
:100B60001F3F7F0080C0E0F0F8FCFE000000002581
:100B70000028002B0000000000240027002A0004A9
:100B80000404040404040402020202020203030334
:100B9000030303010204081020408001020408102E
:100BA00020010204081020003E201D2011241FBE39
:100BB000CFEFD8E0DEBFCDBF11E0A0E0B1E0ECEEBA
:100BC000FFE402C005900D92A03AB107D9F723E0E7
:100BD000A0EAB1E001C01D92AF3BB207E1F715E01A
:100BE000C5EDD5E004C02197FE010E940127C43D58
:100BF000D107C9F70E9423170C94E9270C94000031
:100C0000FC01538D448D252F30E0842F90E0821B12
:100C1000930B541710F0CF96089501970895FC0197
:100C2000918D828D981761F0828DDF01A80FB11D23
:100C30005D968C91928D9F5F9F73928F90E0089547
:100C40008FEF9FEF0895FC01918D828D981731F001
:100C5000828DE80FF11D858D90E008958FEF9FEF55
:100C60000895FC01918D228D892F90E0805C9F4F2B
:100C7000821B91098F73992708958CE792E00E9457
:100C8000310621E0892B09F420E0822F0895FC0130
:100C9000848DDF01A80FB11DA35ABF4F2C91848D05
:100CA00090E001968F739927848FA689B7892C933A
:100CB000A089B1898C91837080648C93938D848D8D
:100CC000981306C00288F389E02D80818F7D808390
:100CD0000895EF92FF920F931F93CF93DF93EC0150
:100CE00081E0888F9B8D8C8D981305C0E889F989E8
:100CF000808185FD26C0F62E0B8D10E00F5F1F4F03
:100D00000F731127E02E8C8DE8120CC00FB607FC74
:100D1000FACFE889F989808185FFF5CFCE010E945D
:100D20004706F1CF8B8DFE01E80FF11DE35AFF4F0F
:100D3000F0829FB7F8940B8FEA89FB8980818062EB
:100D40000AC09FB7F894EE89FF896083E889F98922
:100D500080818370806480839FBF81E090E0DF9119
:100D6000CF911F910F91FF90EF900895CF93DF9354
:100D7000EC01888D8823C9F0EA89FB89808185FD93
:100D800005C0A889B9898C9186FD0FC00FB607FCF4
:100D9000F5CF808185FFF2CFA889B9898C9185FF35
:100DA000EDCFCE010E944706E7CFDF91CF910895A6
:100DB00080E090E0892B29F00E943D0681110C947F
:100DC000000008953FB7F89480912D0290912E0273
:100DD000A0912F02B091300226B5A89B05C02F3FED
:100DE00019F00196A11DB11D3FBFBA2FA92F982F51
:100DF0008827820F911DA11DB11DBC01CD0142E0CC
:100E0000660F771F881F991F4A95D1F70895089597
:100E1000FC016370658B8481958126813781613007
:100E200039F0633029F091878087338722870895CE
:100E3000318720879387828708956F927F928F9260
:100E40009F92AF92BF92CF92DF92EF92FF920F9359
:100E50001F93CF93DF93EC014B015A0169013801D5
:100E6000E881F9810284F385E02D0995E881F98113
:100E70000288F389E02D87019601A501B401CE0116
:100E80000995A501460D571D41505109E881F98189
:100E90000288F389E02D9601B401CE010995E8811D
:100EA000F9810088F189E02D9301A501B401CE01FB
:100EB0000995C80CD91CB60161507109E881F98106
:100EC0000088F189E02D9301A501CE010995E88103
:100ED000F9810688F789E02DCE01DF91CF911F912E
:100EE0000F91FF90EF90DF90CF90BF90AF909F90C9
:100EF0008F907F906F9009948F929F92AF92BF9244
:100F0000CF92DF92EF92FF920F931F93CF93DF93D5
:100F10004C016B015A01E901DC01ED91FC91621772
:100F2000730781F40417150724F48B2D5801042F3F
:100F3000182F0A191B0998012F5F3F4F048CF58D5C
:100F4000E02D12C04017510709F52617370724F482
:100F50008D2D6901C62FD82F9E012C193D092F5FB9
:100F60003F4F068CF78DE02D8701A501B601C40126
:100F70000995DF91CF911F910F91FF90EF90DF9036
:100F8000CF90BF90AF909F908F9008950284F3858B
:100F9000E02D0995D401ED91FC910488F589E02DAF
:100FA0009E01A501B601C4010995D401ED91FC9102
:100FB0000688F789E02DC401DF91CF911F910F9131
:100FC000FF90EF90DF90CF90BF90AF909F908F9069
:100FD0000994EF92FF920F931F93DC011A960D91E3
:100FE0001C911B9718962D913C911997ED91FC91AE
:100FF00000A0F1A1E02D7B0140E050E060E070E056
:1010000009951F910F91FF90EF9008954F925F9275
:101010006F927F928F929F92AF92BF92CF92DF9208
:10102000EF92FF920F931F93CF93DF936C012B01ED
:101030005A0139014801DC01ED91FC910284F385EC
:10104000E02D0995E201640C751CD601ED91FC912F
:10105000C615D7055CF40088F189E02D870194015D
:10106000A501BE01C60109952196EFCF0688F78933
:10107000E02DC601DF91CF911F910F91FF90EF906E
:10108000DF90CF90BF90AF909F908F907F906F90A8
:101090005F904F9009948F929F92AF92BF92CF92A0
:1010A000DF92EF92FF920F931F93CF93DF93EC01A8
:1010B0005B014A016901E881F9810284F385E02D31
:1010C000099595012C0D3D1D21503109E881F981CB
:1010D0000488F589E02D78018401A401B501CE01D1
:1010E0000995E881F9810688F789E02DCE01DF9125
:1010F000CF911F910F91FF90EF90DF90CF90BF9015
:10110000AF909F908F9009948F929F92AF92BF92D1
:10111000CF92DF92EF92FF920F931F93CF93DF93C3
:10112000EC015B014A0169017801E881F9810284DF
:10113000F385E02D0995C80CD91C860101501109D1
:10114000E881F9810488F589E02D9501A401B501B4
:10115000CE010995E881F9810688F789E02DCE0155
:10116000DF91CF911F910F91FF90EF90DF90CF9083
:10117000BF90AF909F908F9009940895EF92FF9247
:101180000F931F93DC01ED91FC9100A0F1A1E02DE4
:1011900009951F910F91FF90EF9008950F931F9362
:1011A000DC01ED91FC91068CF78DE02D09951F91E6
:1011B0000F9108950F931F93DC01ED91FC91048C26
:1011C000F58DE02D09951F910F910895DC01ED91AA
:1011D000FC910084F185E02D09942F923F924F926B
:1011E0005F926F927F928F929F92AF92BF92CF92B7
:1011F000DF92EF92FF920F931F93CF93DF9300D074
:1012000000D000D0CDB7DEB72C017E836D836A019C
:101210005901C801FC82EB824801841A950A97FEA5
:1012200003C091948194910835012D813E81621A09
:10123000730A77FE03C0719461947108681479048D
:101240005CF43A2D2B2D5C01832F922F3D812E8152
:10125000DE82CD82C32ED22EAD81BE81AA16BB0600
:101260005CF43C2D2D2D6C01832F922F3D812E811E
:10127000BE82AD82A32EB22E85012D813E81021B3E
:10128000130B1C012C183D0837FE03C03194219428
:101290003108780117FF03C03FEFE31AF30AF59412
:1012A000E794C816D9062CF08FEF9FEF9A838983B5
:1012B00004C0A1E0B0E0BA83A9832D813E81A216CB
:1012C000B30624F1D201ED91FC910484F585E02D63
:1012D0002B813C816814790424F44D815E81B60130
:1012E00003C0A6016D817E81C2010995E218F30851
:1012F000F7FE06C029813A81C20ED31EE00EF11E10
:101300008D819E8101969E838D83D7CF26960FB6C1
:10131000F894DEBF0FBECDBFDF91CF911F910F912B
:10132000FF90EF90DF90CF90BF90AF909F908F9005
:101330007F906F905F904F903F902F90089585ED34
:101340008093BC008091BC0084FDFCCF10925702BA
:10135000089540910502262F30E0240F311D2132DF
:101360003105DCF4209157022430C9F4FC0180E0FF
:1013700090E0861758F4309105022191DC01AB51C1
:10138000BE4FA30FB11D2C930196F3CF80910502A0
:10139000680F6093050280E0089581E0089582E07F
:1013A000089508950895E091A5018091A401E8179A
:1013B00030F4F0E0EB53FE4F808190E008958FEF22
:1013C0009FEF08959091A5018091A401981750F482
:1013D000E92FF0E0EB53FE4F208130E09F5F9093C8
:1013E000A50102C02FEF3FEFC90108958091A4012C
:1013F00090E02091A501821B91090895CF92DF9280
:10140000EF92FF920F931F93CF93DF937C01CB0159
:101410008A0120915802222389F0EB016B01C40E4E
:10142000D51ECC15DD0569F06991D701ED91FC91D0
:101430000190F081E02DC7010995F3CF642F0E9440
:10144000A909C801DF91CF911F910F91FF90EF90F3
:10145000DF90CF900895CF93DF931F92CDB7DEB783
:101460006983209158022223D1F020917B022032FF
:1014700040F021E030E0FC013383228380E090E003
:1014800015C080915902E82FF0E0E65AFD4F99818E
:1014900090838F5F8093590280937B0205C061E047
:1014A000CE0101960E94A90981E090E00F90DF91A2
:1014B000CF910895FC0177FDB9C0808591856817AB
:1014C00079070CF0B3C057FDB1C0828593854817EA
:1014D00059070CF008958589823079F484819581CB
:1014E000DC01A61BB70BBD01615071098681978194
:1014F000DC01A41BB50BAD010EC0833009F084C024
:1015000064277527CA018627972768277927468188
:101510005781481B590B415051092130310531F099
:1015200048F12230310509F44AC00895CA0157FD37
:1015300007969C01A3E035952795AA95E1F7A4812C
:10154000B5812A9FC0012B9F900D3A9F900D1124C9
:10155000680F791F068CF78DE02DE60FF71F477097
:10156000552781E090E001C0880F4A95EAF7908105
:10157000892B48C0CA0157FD07969C0193E0359519
:1015800027959A95E1F7A481B5812A9FC0012B9FE9
:10159000900D3A9F900D1124680F791F068CF78DDE
:1015A000E02DE60FF71F4770552781E090E001C05E
:1015B000880F4A95EAF780959081892323C0CA0154
:1015C00057FD07969C0183E0359527958A95E1F7AD
:1015D000A481B5812A9FC0012B9F900D3A9F900D49
:1015E0001124680F791F068CF78DE02DE60FF71F89
:1015F0004770552781E090E001C0880F4A95EAF7CF
:101600009081892780830895813009F086CF6427EF
:101610007527462757276427752784819581DC0124
:10162000A61BB70BBD016150710977CF089580E00B
:1016300090E008950E94CD27AF92BF92CF92EF9293
:10164000FF920F931F93CF93DF93EC01262F888D8A
:10165000998D009709F040C06A3059F41D861C86A8
:101660002C898E859F8538E0239F800D911D112444
:1016700041C06D3009F4AAC08E898823C1F03C892D
:101680008C859D8546E0349F800D911D11244885F1
:101690005985481759075CF41D861C868E859F85E1
:1016A00048E0349F800D911D11249F878E87EA8822
:1016B000FB88088919894E855F856C857D85CC8876
:1016C000CE010E9403142C898C859D8536E0239FD2
:1016D000800D911D112442C06A3079F41D861C864C
:1016E0002C89FC013696E4918E859F852E9F800D76
:1016F000911D11249F878E8769C06D3009F466C0E3
:10170000FC0134963491631708F460C03196E4917B
:10171000E61708F45BC0FC01329665917491422F84
:1017200050E0431B510937E0349F5001359FB00C06
:101730001124A60EB71EF501329634913196E4912C
:10174000332311F0E1110DC0F5013496E4912C8999
:101750008C859D85E29F800D911D11249D878C872E
:1017600035C0F501359644915E89552311F16C8998
:10177000E32FF0E0E40FF11D47FDFA956E9FD001D5
:101780006F9FB00D11244C855D854A0F5B1FE88566
:10179000F985E417F5076CF41D861C86FC01369666
:1017A000E4918E859F856E9F800D911D11249F87EA
:1017B0008E87EA88FB88088919894E855F856C8544
:1017C0007D85CC88CE010E940314BECF81E090E0DD
:1017D000DF91CF911F910F91FF90EF90CF90BF902D
:1017E000AF9008950F931F93CF93DF93DC0155962D
:1017F000EC915597E23071F0E330E9F0E13079F5A2
:10180000FB0114960D90BC91A02DA41BB50BA21B3F
:10181000B30B18C0EC01EC81FD81E61BF70BBF0197
:1018200061507109EE81FF81DF01A41BB50BAD0191
:10183000421B530B14C0DA01EC01EE81FF81E61B61
:10184000F70B3197F7FD0DC0EC014E815F81E41776
:10185000F5073CF4AF01BD010E94E71202C00E94EF
:101860004E13DF91CF911F910F9108950F931F9306
:10187000DC015596EC915597E23061F0E33009F1C7
:10188000E13081F51496ED91FC911597E41BF50B71
:10189000319723C0DC011496ED91FC911597DF017F
:1018A000A61BB70BBD01DC011696ED91FC911797B5
:1018B000DF01A41BB50BAD0141505109621B730B35
:1018C00011C0FA01DC0116964D915C911797DA016F
:1018D000A61BB70BBD01621B730BAB01BF010E94BE
:1018E0004E130CC057FD0AC0DC011696ED91FC9119
:1018F00017974E175F0714F40E94E7121F910F917C
:1019000008951F920F920FB60F9211242F933F93B9
:101910004F935F936F937F938F939F93AF93BF93F7
:10192000EF93FF938CE792E00E944706FF91EF91BF
:10193000BF91AF919F918F917F916F915F914F91E7
:101940003F912F910F900FBE0F901F9018951F92EF
:101950000F920FB60F9211242F938F939F93EF93B3
:10196000FF93E0918C02F0918D028081E0919202D0
:10197000F091930282FD12C09081809195028F5F59
:101980008F7320919602821751F0E0919502F0E05A
:10199000E458FD4F958F8093950201C08081FF919F
:1019A000EF919F918F912F910F900FBE0F901F90ED
:1019B0001895833081F028F4813099F08230A1F0BD
:1019C00008958730A9F08830B9F08430D1F480913F
:1019D00080008F7D03C0809180008F77809380008E
:1019E000089584B58F7702C084B58F7D84BD089536
:1019F0008091B0008F7703C08091B0008F7D80937D
:101A0000B00008951F93CF93DF93282F30E0F901A2
:101A1000EE5BF94F8491F901ED56F44FD491F90141
:101A2000E158F44FC491CC23C1F0162F81110E94CC
:101A3000D90CEC2FF0E0EE0FFF1FE559F44FA59104
:101A4000B4919FB7F894111104C08C91D095D8230C
:101A500002C0EC91DE2BDC939FBFDF91CF911F91F1
:101A600008958E3008F08E508770806480937C00DB
:101A700080917A00806480937A0080917A0086FD5C
:101A8000FCCF809178002091790090E0922B08950E
:101A90008F929F92AF92BF92CF92DF92EF92FF927E
:101AA0006B017C010E94E2064B015C01C114D10470
:101AB000E104F104F1F00E94E206DC01CB01881997
:101AC0009909AA09BB09883E9340A105B10570F3A5
:101AD00021E0C21AD108E108F10888EE880E83E0FF
:101AE000981EA11CB11CC114D104E104F10419F722
:101AF000DDCFFF90EF90DF90CF90BF90AF909F90A1
:101B00008F9008952FB7F8946091290270912A025E
:101B100080912B0290912C022FBF08951F920F925B
:101B20000FB60F9211242F933F938F939F93AF93F0
:101B3000BF938091290290912A02A0912B02B0912B
:101B40002C023091280223E0230F2D3720F4019638
:101B5000A11DB11D05C026E8230F0296A11DB11DD0
:101B6000209328028093290290932A02A0932B02AB
:101B7000B0932C0280912D0290912E02A0912F0201
:101B8000B09130020196A11DB11D80932D0290935A
:101B90002E02A0932F02B0933002BF91AF919F917C
:101BA0008F913F912F910F900FBE0F901F9018951E
:101BB0001F920F920FB60F9211242F933F934F93C2
:101BC0005F936F937F938F939F93AF93BF93EF93A5
:101BD000FF938091B900887F803609F49CC068F536
:101BE000883209F45BC090F4803109F454C038F4B1
:101BF000882309F4F6C0883009F44DC0F6C0883156
:101C000009F44CC0803209F45DC0EFC0803409F49F
:101C100068C048F4803309F455C0883309F0E5C042
:101C200080935502D8C0803509F44FC0883509F437
:101C30005DC0883409F0D9C0D6C0883909F4C7C05E
:101C4000A8F4883709F467C038F4883609F463C00B
:101C5000803709F460C0C9C0883809F4B8C0803939
:101C600009F45FC0803809F0C0C05BC0803B09F454
:101C700086C038F4803A09F466C0883A09F47FC017
:101C8000B4C0803C09F4A7C0883C09F4A4C0883BD8
:101C900009F48AC0AAC08091320210C09091540207
:101CA00080915302981770F5E091540281E08E0FF5
:101CB00080935402F0E0ED5CFD4F80818093BB0087
:101CC00085EC86C0809355028EC0E091540281E07D
:101CD0008E0F809354028091BB00F0E0ED5CFD4FCD
:101CE000808390915402809153026EC0E09154021F
:101CF00081E08E0F809354028091BB00F0E0ED5C98
:101D0000FD4F80838091560281116DC081E08093E8
:101D1000310284EA61C083E0809357021092270267
:101D2000CFCF80912702803208F051C0E091270286
:101D300081E08E0F809327028091BB00F0E0E95F85
:101D4000FD4F8083BDCF85EC8093BC00109257027D
:101D500080912702803230F4E0912702F0E0E95FC1
:101D6000FD4F10826091270270E0E091A001F09198
:101D7000A10187E092E009951092270236C084E025
:101D8000809357021092060210920502E091A20180
:101D9000F091A301099580910502811105C081E0B0
:101DA000809305021092E501E091060281E08E0F1A
:101DB00080930602F0E0EB51FE4F80818093BB00E0
:101DC0009091060280910502981708F479CF85E872
:101DD0008093BC000AC085EC8093BC00109257022F
:101DE00004C0109255020E949F09FF91EF91BF918C
:101DF000AF919F918F917F916F915F914F913F91A3
:101E00002F910F900FBE0F901F90189508958EBDC3
:101E100000000DB407FEFDCF8EB508951F93CF933C
:101E2000DF93FC01848D958D009729F1162FEF012A
:101E300020A131E03093580220937A021092590287
:101E400010927B02DC01ED91FC910190F081E02D7C
:101E500060E009958C8D9D8DDC01ED91FC910190E8
:101E6000F081E02D612F09958C8D9D8DDF91CF91B3
:101E70001F910C94B810A4A5B5A59C9182A980953A
:101E800089238C93828D938D892B31F0862FDF915E
:101E9000CF911F910C94070F28E030E080E8A0A5B7
:101EA000B1A590A9462F482319F04C91942B03C05B
:101EB0004C91909594239C93A2A5B3A54C9191A984
:101EC000942B9C93A2A5B3A54C9191A99095942392
:101ED0009C9386952150310911F7DF91CF911F9185
:101EE00008958CBD9DBD08951F93CF93DF93EC01A2
:101EF000162F8C8D9D8D892BB1F02EA93FA948AD51
:101F000059AD60E074E284EF90E00E949025DA0120
:101F1000C9014097A109B109B695A79597958795ED
:101F20008093B8000FC08A8D9B8D892B21F08CA9DE
:101F30009DA90E94710FEEA5FFA590818BA98095A8
:101F400089238083111102C066EA01C067EACE01CD
:101F50000E940E0F8C8D9D8D892BB1F02AAD3BAD6B
:101F60004CAD5DAD60E074E284EF90E00E9490259E
:101F7000DA01C9014097A109B109B695A7959795CE
:101F800087958093B80006C0EEA5FFA590818BA928
:101F9000892B8083DF91CF911F910895ECE7F2E0C8
:101FA000A089B18982E08C93A485B5851C92A68511
:101FB000B7858FEC8C93108EA489B58986E08C93BD
:101FC000A289B3898C9180618C93A289B3898C9109
:101FD00088608C93A289B3898C9180688C930288E5
:101FE000F389E02D80818F7D808308952091770390
:101FF00030917803C901079697FD079623E09595E0
:1020000087952A95E1F72091750330917603829F99
:10201000A001839F500D929F500D112460E070E04D
:1020200080918F03909190030C94DB273F924F9205
:102030005F926F927F928F929F92AF92BF92CF9258
:10204000DF92EF92FF920F931F93CF93DF9300D015
:1020500000D000D0CDB7DEB72C013B014A015901B9
:10206000C901079697FD07969C0193E03595279542
:102070009A95E1F73C832B83C12CD12CE12CF12CD8
:10208000312CC3018E0D9F1D9A838983E016F106C2
:10209000C4F51E821D822D813E812A153B054CF51B
:1020A000C90187709927892B11F0330C0EC0ED817F
:1020B000FE81F7FD379683E0F595E7958A95E1F780
:1020C000EC0DFD1DE80DF91D349037FE0CC021E02C
:1020D00030E049815A816D817E81640D751D81E7F3
:1020E00093E00E94E6088D819E8101969E838D83F8
:1020F000D2CF9FEFE91AF90A2B813C81C20ED31E81
:10210000C0CF26960FB6F894DEBF0FBECDBFDF91CD
:10211000CF911F910F91FF90EF90DF90CF90BF90E4
:10212000AF909F908F907F906F905F904F903F9077
:10213000089590E0FC01ED56F44F2491FC01E15824
:10214000F44F8491882399F090E0880F991FFC0147
:10215000EB58F44FA591B491FC01E559F44F8591EA
:1021600094918FB7F894EC91E22BEC938FBF089584
:1021700030917B02313208F04BC0809157028111BF
:10218000FCCF90917A0222E02093570221E0209325
:1021900056022FEF209355021092540230935302AF
:1021A000EAE5F2E0A3E3B2E020E0321721F041914A
:1021B0004D932F5FFACF1092320220913202990F85
:1021C000922B9093320290913102913061F41092EF
:1021D0003102909132029093BB009091BC0093FD2C
:1021E000F8CF95EC01C095EE9093BC00909157020A
:1021F0009230E1F3909155029F3F79F08091550222
:10220000803241F080915502803331F084E005C086
:1022100081E003C082E001C083E010925902109275
:102220007B02109258020895DF92EF92FF920F9373
:102230001F93CF93DF93D82ED92FC62F80918D0374
:1022400090918E03009709F454C02091910331E0DE
:102250003093580220937A021092590210927B0216
:10226000DC01ED91FC910190F081E02D60E0099599
:10227000ED2CFD2E11E0D1E080918D0390918E0325
:10228000CC2371F11032C8F00E94B81080919103F4
:10229000D093580280937A021092590210927B02D6
:1022A00080918D0390918E03DC01ED91FC91019062
:1022B000F081E02D60E0099511E080918D0390910F
:1022C0008E03F7016491DC01ED91FC910190F081A6
:1022D000E02D09951F5FC150BFEFEB1AFB0ACCCF71
:1022E000DF91CF911F910F91FF90EF90DF900C94B1
:1022F000B810E0919D03F0919E0390818091A3031B
:102300008095892380830D2D1D2FCC2309F439C09E
:10231000F801849120918B0330918C03232B31F0B1
:102320000E94070FC1500F5F1F4FEFCF28E030E032
:1023300040E8E0919903F0919A039091A103582FFE
:10234000542319F05081952B03C05081909595230B
:102350009083E0919B03F0919C0350819091A203A4
:10236000952B9083E0919B03F0919C035081909179
:10237000A203909595239083469521503109C9F683
:10238000D1CFDF91CF911F910F91FF90EF90DF9010
:1023900008958F929F92AF92BF92CF92DF92EF9269
:1023A000FF926B017C010E94820D4B015C01C60E05
:1023B000D71EE81EF91E0E94820D681579058A0550
:1023C0009B0528F0C616D706E806F906A0F7FF9089
:1023D000EF90DF90CF90BF90AF909F908F90089537
:1023E000BC018CE792E00C940E178F929F92AF92F3
:1023F000BF920F931F93CF93DF93CDB7DEB7A19713
:102400000FB6F894DEBF0FBECDBF19A2423008F45C
:102410004AE08E010F5D1F4F842E912CA12CB12C10
:10242000A50194010E949025E62FB901CA0101502F
:102430001109EA3014F4E05D01C0E95CD801EC93C5
:10244000232B242B252B61F7B8018CE792E00E9407
:102450000E17A1960FB6F894DEBF0FBECDBFDF9169
:10246000CF911F910F91BF90AF909F908F90089543
:10247000CF92DF92EF92FF92CF93DF936B017C01BB
:102480006DE28CE792E00E946906EC0166277727EF
:10249000CB016C197D098E099F094AE00E94F51154
:1024A0008C0F9D1FDF91CF91FF90EF90DF90CF9029
:1024B0000895CF93DF9300D0CDB7DEB72091BB0353
:1024C0003091BC03CE0101962115310519F48F5BC3
:1024D000934018C0AC01421B530BE091BD03F09137
:1024E000BE0380E090E0309759F09C012E5F3F4F93
:1024F00080819181820F931F0280F381E02DF3CFC1
:10250000840F951F9A83898369817A81072E000C35
:10251000880B990B97FF03C00E94381203C04AE052
:102520000E94F5110F900F90DF91CF910895CF93F6
:10253000DF93FC01448155816081718181E793E0E3
:102540000E94AB16EC016BE771E081E793E00E941B
:102550000E178C0F9D1FDF91CF9108950F931F933E
:10256000CF93DF938C01EB01FC0180819181009777
:10257000B1F0688179816115710579F042815381EB
:102580002C813D814217530740F00E94E2278C8145
:102590009D81F8019583848313C00E94A3218881C3
:1025A0009981F801918380838A819B8193838283BF
:1025B0008C819D8195838483198218821B821A8263
:1025C0001D821C82DF91CF911F910F9108950F936F
:1025D0001F93CF93DF9377FF04C0260F371F60E070
:1025E00070E0DC011496CD91DC911597FB01E20FB0
:1025F000F31FCE17DF071CF49E01261B370B1216A4
:1026000013060CF046C0FA0157FD3796DF01E3E0F0
:10261000B595A795EA95E1F7AC9FF001AD9FF00D58
:10262000BC9FF00D11246E0F7F1FDC015E96ED91B3
:10263000FC915F97E60FF71F4770552781E090E008
:1026400001C0880F4A95EAF7482F0130110539F08B
:1026500078F002301105E9F42E0F3F1F13C02E0F42
:102660003F1FE217F307A9F08081842B8193F9CFF4
:1026700080952E0F3F1FE217F30759F090819823A2
:102680009193F9CFE217F30721F08081842781939A
:10269000F9CFDF91CF911F910F910895EF92FF92A3
:1026A0000F931F93CF93DF93EC0177FDA5C0EC80D0
:1026B000FD806E157F050CF09FC057FF04C0240FEE
:1026C000351F40E050E08E819F81FA01E20FF31F39
:1026D0008E179F071CF49C01241B350B1216130642
:1026E0000CF08AC0922F842F8695869586958E9DB4
:1026F000D0018F9DB00D11246A0F7B1FAE8DBF8D51
:10270000A60FB71F4770B1F188E0841B482F682FD0
:1027100070E0FB01ED59F44FE491281798F4621B27
:1027200071092FEF30E002C0359527956A95E2F7E1
:10273000E2230130110549F078F00230110509F06B
:102740005BC00EC00130110519F48C91E82B0AC052
:102750000130110508F049C0E0958C91E82302C0D2
:102760008C91E827EC93941708F446C02C813D81A6
:10277000A20FB31FE92FE41BE830F8F00230110577
:1027800061F48E2F9C9190959C932C813D81A20F9A
:10279000B31F88508830B0F70FC081E001151105D4
:1027A00009F480E081959E2F8C932C813D81A20FAE
:1027B000B31F98509830C0F7E770EE23E9F0F0E0CF
:1027C000E55AF44FE4910130110539F048F0023038
:1027D000110591F48C91E82706C08C91E82B03C079
:1027E000E0958C91E823EC9307C00230110509F4C1
:1027F000B7CFAE0DBF1DBECFDF91CF911F910F910F
:10280000FF90EF9008952F923F924F925F926F92B8
:102810007F928F929F92AF92BF92CF92DF92EF9270
:10282000FF920F931F93CF93DF93CDB7DEB76B97D4
:102830000FB6F894DEBF0FBECDBF9B8F8A8F5B01B2
:102840001A01D22E1F830E833701C982DC015896EC
:102850002D913C9159972115310509F0E6C0189644
:102860008D919C911997681779070CF0CDC11A9634
:102870008D919C911B97481759070CF0C5C18C2C62
:10288000912CFB0126E0C29EE00DF11D1124FB8777
:10289000EA871E161F060CF0B7C1A40183E0440F9F
:1028A000551F8A95E1F75D874C87CA01820D931DFC
:1028B000181619060CF0A8C157968C91811104C006
:1028C0005FEA5D1508F4D394AA8DBB8DED91FC9160
:1028D00011970284F385E02DCD010995B5E0DB9ECB
:1028E000C0011124F5013596FF87EE87BB82AA82CD
:1028F00025019C012A193B09398B288BA101485FCE
:102900005F4F5B8B4A8BE889F989E40DF51DE55A29
:10291000F94F5491588761013D822C82888580FF50
:1029200013C0AA8DBB8DED91FC91B981B13031F40A
:102930000484F585E02D2E813F8116C00684F7853D
:10294000E02DEE80FF801AC0EE81FF81E615F705CD
:10295000F1F0AA8DBB8DED91FC91B981B13051F4AC
:102960000484F585E02D9301A601B2018A8D9B8D2B
:1029700009950DC00684F785E02D7301840194014B
:102980004C815D816A817B818A8D9B8D0995E8856B
:10299000E695E887FFEFCF1ADF0A2C813D81280DED
:1029A000391D3D832C834A895B89C416D50609F0FD
:1029B000B5CF5FEF451A550A8A819B81880D991D15
:1029C0009B838A83AE85BF854A165B0609F09BCF41
:1029D000EE81FF81E615F70509F4F4C0EA8DFB8D61
:1029E000A081B181F981F13079F4B5016B5F7F4F3E
:1029F0005096ED91FC915197830128E030E0A101C0
:102A00008A8D9B8D0995DEC06A857B856819790959
:102A10001E96ED91FC911F9773010C851D85940105
:102A2000A1018A8D9B8D0995CDC0F9013496E49161
:102A3000DE1AF901329685919491B7E0DB9E800D04
:102A4000911D1124F901259134913B8B2A8BFC01B6
:102A5000259134912901FC013296C490319634912C
:102A60003E87329614913196D4904981423058F085
:102A7000612E012E000C77088D2D0D2C000C990B6A
:102A80009987888704C019861886612C712CAA8DB5
:102A9000BB8DED91FC9111970284F385E02DCD0162
:102AA0000995B9818B2E912C689CC001699C900D71
:102AB000789C900D1124FC01EA0DFB1DFD87EC872D
:102AC0001A82712C612CE12F110FFF0B95012E0F33
:102AD0003F1F3B872A87AC0CB11CA5014E0F5F1F1F
:102AE0005F8B4E8BC1018D0D911DD7FC9A95998FEF
:102AF000888F9E85691608F065C0862D90E0488510
:102B00005985480F591F489D9001499D300D589D8A
:102B1000300D1124D101A20FB31FB98BA88BEC8506
:102B2000FD85FD83EC83AA84BB84DA80FA85DF1AF5
:102B3000288D398D280F391F3D8B2C8B8D2D8A0DBB
:102B40004E895F89A416B506C1F1877041F4C201B0
:102B50000196EA89FB89E40DF51D74902C0177FE3E
:102B600021C0AA8DBB8DED91FC91B981B13061F48A
:102B70000484F585E02D2E813F814C895D89B50166
:102B80008A8D9B8D09950EC00684F785E02DEE8019
:102B9000FF8084019401488959896C817D818A8DE7
:102BA0009B8D0995770CEFEFAE1ABE0A2C813D8103
:102BB000280D391D3D832C83C1CF3A813C0D3A83CA
:102BC000639497CFAA8DBB8DED91FC9111970688E8
:102BD000F789E02DCD016B960FB6F894DEBF0FBEDE
:102BE000CDBFDF91CF911F910F91FF90EF90DF90BC
:102BF000CF90BF90AF909F908F907F906F905F909D
:102C00004F903F902F9009946B960FB6F894DEBFCB
:102C10000FBECDBFDF91CF911F910F91FF90EF902D
:102C2000DF90CF90BF90AF909F908F907F906F90EC
:102C30005F904F903F902F900895EF92FF920F93E7
:102C40001F93CF93DF936115710511F480E01CC0D1
:102C500041155105C1F07B01EC018C819D818A01F8
:102C6000080F191FB801CE010E94D516882371F3F1
:102C7000288139818C819D81B701820F931F0E9429
:102C8000E2271D830C8381E0DF91CF911F910F918B
:102C9000FF90EF900895EF92FF920F931F93CF93C1
:102CA000DF93EC017B018A01BA010E94D5168111E4
:102CB00004C0CE010E94FC1607C01D830C83B7011F
:102CC000888199810E94E227CE01DF91CF911F91E7
:102CD0000F91FF90EF900895EF92FF920F931F9343
:102CE000CF93DF93CDB7DEB7A1970FB6F894DEBFD1
:102CF0000FBECDBF7C01CB01BA01F701118210825A
:102D000013821282158214828E010F5F1F4F22E000
:102D100044E00E94EB20009769F0FC010190002044
:102D2000E9F73197AF01481B590BBC01C7010E945D
:102D30004B1603C0C7010E94FC16A1960FB6F8946B
:102D4000DEBF0FBECDBFDF91CF911F910F91FF90DE
:102D5000EF9008950895CF92DF92EF92FF920F9334
:102D60001F93CF93DF936C017A018B01C0E0D0E019
:102D7000CE15DF0581F0D8016D918D01D601ED9161
:102D8000FC910190F081E02DC6010995892B11F08D
:102D90002196EECF7E01C701DF91CF911F910F9158
:102DA000FF90EF90DF90CF9008950F931F93CF93F4
:102DB000DF93EC0188819981009729F02A813B817A
:102DC0002617370788F48B016F5F7F4F0E94072714
:102DD000009761F0998388831B830A832C813D814E
:102DE000232B11F4FC01108281E001C080E0DF910F
:102DF000CF911F910F910895CF93DF93EC018881BC
:102E00009981009711F00E94A321198218821D82D6
:102E10001C821B821A82DF91CF9108956115710582
:102E200079F0FB0101900020E9F73197AF01461BD3
:102E3000570BDC01ED91FC910280F381E02D0994A8
:102E400080E090E00895CF93DF93CDB7DEB72A9767
:102E50000FB6F894DEBF0FBECDBF789484B5826004
:102E600084BD84B5816084BD85B5826085BD85B52E
:102E7000816085BD80916E00816080936E001092AC
:102E80008100809181008260809381008091810027
:102E900081608093810080918000816080938000B8
:102EA0008091B10084608093B1008091B000816016
:102EB0008093B00080917A00846080937A00809142
:102EC0007A00826080937A0080917A00816080939A
:102ED0007A0080917A00806880937A001092C10015
:102EE00010925B0310925C0310925D0310925E03DC
:102EF00010921B0310921C0310921D0310921E03CC
:102F00000E94820D6B017C014B015C0128EB820E5B
:102F10002BE0921EA11CB11C0E94820D6C157D0538
:102F20008E059F0528F086169706A806B906A0F715
:102F300060ED77E080E090E00E94480D0E94CE0FA7
:102F40008AE591E00E94F0116AE070E080E090E094
:102F50000E94C91181E080932F038CE691E00E94CA
:102F6000F01183E791E00E94F01183E791E00E9465
:102F7000F01183E791E00E94F0110E94591283E75B
:102F800091E00E94F01185E791E00E94F0116AE063
:102F900070E080E090E00E94C9110E94CE0F8DE0A9
:102FA0000E9499101092AA011092A9011092AC01EE
:102FB0001092AB011092AE011092AD011092B801C7
:102FC0001092B70180918F0390919003892BC1F5E6
:102FD0002091770330917803C901079697FD0796F2
:102FE000B3E095958795BA95E1F7209175033091F7
:102FF0007603AC01429FC001439F900D529F900DFC
:1030000011240E940B219093900380938F03892BAE
:10301000B9F40EE116E0F8016491611107C06BE7A5
:1030200071E08CE792E00E940E1709C08CE792E0F5
:103030000E9469060F5F1F4F892B69F7F0CFFFCF02
:103040000E94F60F209177033091780380917503E9
:103050009091760321323105A4F0B90160547109D1
:1030600077FF02C06F5F7F4F759567958255910915
:1030700097FD019600E410E022E530E04EE553E0D4
:1030800013C0B9016052710977FF02C06F5F7F4FB3
:10309000759567958357910997FD019600E210E0B9
:1030A00023E730E04EE751E0959587950E94161092
:1030B00082E08093920380918D0390918E03892BFF
:1030C000B9F18CE3809391031092A5011092A401B1
:1030D0001092590210927B021092570281E0809365
:1030E00056021092310261E082E10E94020D61E01D
:1030F00083E10E94020D8091B9008E7F8093B90018
:103100008091B9008D7F8093B90088E48093B800E6
:1031100085E48093BC0081ED99E09093A3018093B6
:10312000A20182ED99E09093A1018093A001B6C025
:10313000809196030E949910809197030E949910A4
:1031400080919603082E000C990BFC01E158F44F76
:10315000E491F0E0EE0FFF1FE559F44F2591349113
:1031600030939E0320939D03FC01ED56F44FE491B0
:10317000E093A30380919703082E000C990BFC01A8
:10318000E158F44FE491F0E0EE0FFF1FE559F44FE2
:10319000A591B491B093A003A0939F03FC01ED56B9
:1031A000F44FE491E093A4038C91E82BEC9380918D
:1031B0008B0390918C03892B89F11FB7F894809130
:1031C000A601811124C0E9E8FBE08491EDE9FBE070
:1031D0009491E82FF0E0EE0FFF1FEB58F44FA5910C
:1031E000B491EC91E92321F461E08AE00E94020DA0
:1031F0008AE00E9499108CB580618CBD8CB580648A
:103200008CBD8DE00E9499108BE00E9499108091F6
:10321000A6018F5F8093A6011FBF40C080919403D9
:103220000E949910809195030E94991080919403B7
:10323000082E000C990BFC01E158F44FE491F0E0EA
:10324000EE0FFF1FE559F44F2591349130939A0307
:1032500020939903FC01ED56F44FE491E093A10310
:1032600080919503082E000C990BFC01E158F44F56
:10327000E491F0E0EE0FFF1FE559F44FA591B491F2
:10328000B0939C03A0939B03FC01ED56F44FE49193
:10329000E093A2038C91E095E823EC93809198034E
:1032A00087FD1DC00E94991061E0809198030E94E3
:1032B000020D61E070E080E090E00E94480D60E067
:1032C000809198030E94020D6AE070E080E090E037
:1032D0000E94480D61E0809198030E94020D809148
:1032E0008D0390918E03892BD1F02091A70330910B
:1032F000A8034091A9035091AA0360E074E284EF0F
:1033000090E00E949025DA01C9014097A109B10916
:10331000B695A795979587958093B80016C080912C
:103320008B0390918C03892B31F08091A5039091B0
:10333000A6030E94710FE0919F03F091A00390817A
:103340008091A40380958923808364E08AE791E0DB
:103350000E94141160917703615081E793E00E940D
:103360000E0F64E086E791E00E94141180919203B1
:10337000813011F064E101C060E181E793E00E94D7
:103380000E0F64E082E791E00E94141180917503B2
:103390009091760380389105E9F4809177039091BC
:1033A00078038032910531F464E08EE691E00E946A
:1033B000141129C08034910531F563E08BE691E06A
:1033C0000E94141180919203813011F06FEC17C0AC
:1033D0006FE915C080369105B1F480917703909123
:1033E0007803409781F463E088E691E00E9414112D
:1033F00080919203813011F06FEA01C060E181E7B2
:1034000093E00E940E0F69ED81E793E00E940E0F9A
:1034100080919203813011F061EF01C062E281E797
:1034200093E00E940E0F66E082E691E00E94141184
:1034300080918D0390918E03892BD1F02091AB0365
:103440003091AC034091AD035091AE0360E074E263
:1034500084EF90E00E949025DA01C9014097A1090C
:10346000B109B695A795979587958093B80011C037
:10347000E0919F03F091A00390818091A403892B98
:10348000808380918B0390918C03892B11F00E9493
:10349000060F0E94F60F3324339481E4282E0E94F5
:1034A000820D0091C1011091C2012091C3013091A0
:1034B000C401DC01CB01801B910BA20BB30B86393D
:1034C0009105A105B10508F4AAC00E94820D609380
:1034D000C1017093C2018093C3019093C40161E064
:1034E00070E080E090E00E94C9118CE691E00E94BB
:1034F000F01183E791E00E94F01100E010E0812CD0
:10350000912C5401E12CF12C5CC50F5F1F4FF1E0B1
:103510008F169104A104B10409F453C5F801EE5BC0
:10352000F94F8491F801ED56F44FC490F801E15839
:10353000F44FD490DD2009F444C581110E94D90CC8
:10354000ED2DF0E0EE0FFF1FE85CF94FA591B4916F
:10355000EC91CE2209F435C581E00E2C01C0880F14
:103560000A94EAF7F82AE39478E0C72EEC1409F4F9
:103570002AC52DE082169104A104B10409F423C5E3
:103580000E94820D2B013C01DC01CB010196A11DA3
:10359000B11D8F839887A987BA870E94820D641511
:1035A00075058605970508F01CC53FEF831A930A39
:1035B000A30AB30A0D30110509F0A7CF61E070E04E
:1035C00080E090E00E94C91183E791E00E94F01131
:1035D00010E0812F0E94310DBC01990F880B990BCF
:1035E00097FF0AC50E94381287E891E00E94F01107
:1035F0001F5F183071F783E791E00E94F0110E947D
:10360000591283E791E00E94F01185E791E00E9452
:10361000F01161E070E080E090E00E94C9110E942A
:10362000820D672B682B692B41F40E94820D62305A
:1036300071058105910508F4CEC00E94820D0091AC
:10364000BD011091BE012091BF013091C0016017F2
:1036500071078207930740F46093BD017093BE0128
:103660008093BF019093C0010091BD011091BE01F4
:103670002091BF013091C0016B017C01C01AD10AB9
:10368000E20AF30A970186010A3F11052105310577
:1036900008F4A1C06093BD017093BE018093BF0187
:1036A0009093C00124EF31E040E050E020932703E5
:1036B000309328034093290350932A0310922B033D
:1036C00010922C0310922D0310922E0380911F0351
:1036D00090912003A0912103B091220380932303B2
:1036E00090932403A0932503B09326030E94820D98
:1036F00060931F0370932003809321039093220310
:103700000E94820D6B017C018EE791E00E94F01116
:103710004AE061E070E080E090E00E94F51185E809
:1037200091E00E94F0114AE0C701B6010E94F51134
:1037300087E891E00E94F01180911F03909120038F
:10374000A0912103B0912203A7019601281B390BF8
:103750004A0B5B0BCA01B9014AE00E94F51187E8E8
:1037600091E00E94F01180911F0390912003A0919D
:103770002103B0912203009123031091240320918F
:10378000250330912603BC01CD01601B710B820B18
:10379000930B4AE00E94F51183E791E00E94F0113B
:1037A0000E94820D4AE00E94F51169E871E08CE701
:1037B00092E00E940E176BE771E08CE792E00E94A6
:1037C0000E170E94820D60931F0370932003809355
:1037D0002103909322031092BC011092BB018CE74D
:1037E00092E00E94310618161906BCF48CE792E0AC
:1037F0000E940F061816190684F41092BA0110924E
:10380000B90180E090E0A0E7B2E4809300019093DA
:103810000101A0930201B0930301C090AF01D090C9
:10382000B001E090B101F090B20120E030E0A901D8
:10383000C701B6010E94F72618161CF4C701B6018D
:1038400003C0C701B60190580E94C8268091A70105
:103850009091A8010E9482258091A7019091A801D2
:1038600001968115A4E09A0729F09093A80180930E
:10387000A70104C01092A8011092A70104E110E072
:103880001092B8011092B70169EAE62E61E0F62EB7
:10389000C12CD12CB2E0CB16D10441F48EE00E94B1
:1038A000310D9093AE018093AD0105C0F701828187
:1038B000938191838083D7016D917D917D0180916A
:1038C000B7019091B801680F791F7093B8016093A8
:1038D000B701BFEFCB1ADB0AE3E0CE16D104D1F675
:1038E0007650072E000C880B990B0E94652427E365
:1038F00039E848E851E40E94562625E83BEE41E5C8
:103900005FE30E94C42420E030E040E450E40E94E1
:1039100056264B015C016093B3017093B401809310
:10392000B5019093B60120E030E040EC51E40E94F4
:10393000C4246B017C016093AF017093B00180934C
:10394000B1019093B20120E030E0A9010E94F72676
:103950001816B4F420E030E048E452E4C701B601A0
:103960000E94F7261816B4F020E030E040EA52E456
:10397000C701B6010E94F72618160CF446C34EC0C4
:1039800020E030E048E452ECC701B6010E945E241A
:1039900087FF09C08091BB019091BC010196909373
:1039A000BC018093BB0120E030E0A901C701B60152
:1039B0000E94F7261816C4F220E030E040EA52ECEC
:1039C000C701B6010E945E2487FF28C08091B9011B
:1039D0009091BA0101969093BA018093B9014090F9
:1039E0000001509001016090020170900301C70135
:1039F000B60190582FE632E143E85AE30E94C4240E
:103A00009B01AC01C301B2010E94E9256093000152
:103A100070930101809302019093030161E070E0D3
:103A200080E090E00E94480D0150110909F028CF74
:103A30008091BB019091BC01449711F461E001C0F9
:103A400060E08DE00E94020DB501A401CE01019657
:103A50000E946C16BE016F5F7F4F8BE693E00E9461
:103A6000AE1289819A810E94A32129821A8241E0A3
:103A700050E0BE016F5F7F4F8BE693E00E941D1602
:103A8000C090AF01D090B001E090B101F090B201D0
:103A900020E030E0A901C701B6010E94F726181600
:103AA00024F0F7FAF094F7F8F094B701A601CE01EC
:103AB00001960E946C16BE016F5F7F4F85E693E012
:103AC0000E94AE1289819A810E94A32187E5898391
:103AD0001A8241E050E0BE016F5F7F4F85E693E0C0
:103AE0000E941D161A8219821C821B821E821D8250
:103AF00060916B0370916C036115710541F0409109
:103B00006F0350917003CE0101960E944B1641E065
:103B100050E062E971E0CE0101960E941D168823F3
:103B200009F46EC24091690350916A036091650384
:103B300070916603CE0101960E941D16811104C08A
:103B4000CE0101960E94FC1669817A81611571058A
:103B500039F04D815E818FE593E00E944B1604C0E1
:103B60008FE593E00E94FC1689819A810E94A3212F
:103B700040916F035091700360916B0370916C03DF
:103B80008CE792E00E94AB1680E991E00E94F01170
:103B90004091690350916A036091650370916603D7
:103BA0008CE792E00E94AB1680E991E00E94F01150
:103BB000C0900001D0900101E0900201F09003015B
:103BC000A7019601C701B6010E94FC26882319F0BF
:103BD00064E971E01AC046015701E894B7F82FEF85
:103BE0003FEF4FE75FE7C501B4010E94FC2681115A
:103BF00011C02FEF3FEF4FE75FE7C501B4010E940F
:103C00005E2418163CF468E971E08CE792E00E94AB
:103C10000E1776C02FEF3FEF4FE75FE4C701B60105
:103C20000E94F72618161CF46CE971E0EECF2FEF16
:103C30003FEF4FE75FECC701B6010E945E2487FDAE
:103C4000F3CF20E030E0A901C701B6010E945E2455
:103C500087FF09C06DE28CE792E00E946906F7FADF
:103C6000F094F7F8F0942AE037ED43EA5BE3C701FC
:103C7000B6010E94EA254B015C010E94C8266B0137
:103C80007C010E9463249B01AC01C501B4010E9428
:103C9000E9254B015C014AE0C701B6010E94F5111C
:103CA0006EE28CE792E00E94690620E030E040E29C
:103CB00051E4C501B4010E94C4244B015C010E947F
:103CC000C8266B01E12CF12C4AE0C701B6010E9425
:103CD000F511C701B6010E9463249B01AC01C50127
:103CE000B4010E94E92520E030E040E251E40E9466
:103CF000C4240E94C82680E090E04AE00E94F511AA
:103D000060E971E08CE792E00E940E176BE771E0CA
:103D10008CE792E00E940E170E94F60F82E08093DB
:103D2000850381E090E090938403809383039093D4
:103D300082038093810310927E0310927D03109280
:103D4000800310927F038BE693E00E9497121092FB
:103D50007E0310927D0350E1C52ED12CD0928003BA
:103D6000C0927F0385E693E00E94971280918D03B5
:103D700090918E03892BD1F02091A7033091A80355
:103D80004091A9035091AA0360E074E284EF90E0AF
:103D90000E949025DA01C9014097A109B109B695A1
:103DA000A795979587958093B80016C080918B034F
:103DB00090918C03892B31F08091A5039091A603FB
:103DC0000E94710FE0919F03F091A0039081809178
:103DD000A40380958923808365E086E596E00E94B0
:103DE000141160917503615081E793E00E940E0FFA
:103DF0002091770330917803C901079697FD0796C4
:103E000033E0959587953A95E1F7209175033091C8
:103E10007603829F7001839FF00C929FF00C112417
:103E200000918F031091900380918D0390918E03E8
:103E3000E00EF11E009709F44BC0209191033092DF
:103E4000580220937A021092590210927B02DC01F0
:103E5000ED91FC910190F081E02D60E40995DD2465
:103E6000D39480918D0390918E030E151F0569F1F7
:103E7000BFE1BD15D0F40E94B8108091910330923B
:103E8000580280937A021092590210927B0280911C
:103E90008D0390918E03DC01ED91FC910190F081F6
:103EA000E02D60E40995DD24D39480918D039091F9
:103EB0008E03F80161918F01DC01ED91FC9101907D
:103EC000F081E02D0995D394CCCF0E94B81043C067
:103ED000E0919D03F0919E0390818091A303892B33
:103EE00080830E151F05B9F1F80181918F01209192
:103EF0008B0330918C03232B19F00E94070FF1CF15
:103F000028E030E040E8E0919903F0919A03909125
:103F1000A103542F582319F05081952B03C05081D1
:103F2000909595239083E0919B03F0919C035081A1
:103F30009091A203952B9083E0919B03F0919C03B9
:103F400050819091A203909595239083469521509E
:103F50003109C9F6C6CF80918D0390918E03892BCC
:103F6000D1F02091AB033091AC034091AD0350915F
:103F7000AE0360E074E284EF90E00E949025DA01E5
:103F8000C9014097A109B109B695A795979587955D
:103F90008093B80011C0E0919F03F091A00390813D
:103FA0008091A403892B808380918B0390918C0353
:103FB000892B11F00E94060F0E94F60F0E94D8066E
:103FC0006ECA80E0CACA6F2D70E080E090E04AE0DF
:103FD0000E94F51187E891E00E94F011E12CF12C8C
:103FE000CFCA2F81388549855A8526173707480754
:103FF000590708F0D2CAD9CA4AE00E94F511F4CA9A
:10400000CE0101960E94FC168DCD8091B901909150
:10401000BA0101969093BA018093B90140900001D2
:104020005090010160900201709003012FE632E18F
:1040300043E85AE3C701B601E1CC80915F03909158
:1040400060030E94A32180916503909166030E9402
:10405000A32180916B0390916C030E94A32182E3C2
:1040600091E0909372038093710380918F039091FC
:104070009003009711F00C94A3210895ECE7F2E06F
:104080001382128248EE53E060E070E0448355836F
:10409000668377838EE091E09183808385EC90E066
:1040A0009587848784EC90E09787868780EC90E002
:1040B000918B808B81EC90E0938B828B82EC90E0F3
:1040C000958B848B86EC90E0978B868B118E128E6D
:1040D000138E148EE9E1F3E01682178210861186A2
:1040E000128613861486158616861786108A118AFC
:1040F000128A138A148A158AAFEAB3E013961C92C7
:104100001E92129714964D935D936D937C9317971F
:1041100080E291E011969C938E93E1E7F3E01382A5
:10412000128220E830E03583248380E290E0978398
:1041300086833187208793878287158A1586148620
:104140001786168681E0848B2FEF3FEF338B228B0F
:10415000318B208B868B178A118E108E82E391E033
:1041600091838083138E128EB58FA48F178E168E37
:104170008FEF83A384A385A386A384E087A380E530
:1041800084AB15AA80E89AE1A6E0B0E086AB97ABD5
:10419000A0AFB1AF80EA96E8A1E0B0E082AF93AF04
:1041A000A4AFB5AF8BE693E00E94DE2085E693E0F6
:1041B0000E94DE208FE593E00C94DE20FC0111824A
:1041C0001082138212821582148240E050E06DE763
:1041D00071E00C944B16EF920F931F93CF93DF93E4
:1041E000E80147FD02C034E001C034E1042E000CB8
:1041F000550B57FF03C0519541955109E32E022FEE
:10420000242FAE010E942C22CE01DF91CF911F916D
:104210000F91EF9008950F931F93CF93DF93823008
:10422000910510F482E090E0E091BD03F091BE03AF
:1042300020E030E0A0E0B0E0309719F140815181FA
:104240000281138148175907C8F08417950769F44C
:10425000109731F012960C93129713961C9327C067
:104260000093BD031093BE0322C02115310519F040
:104270004217530718F49A01BD01EF01DF01F8015D
:10428000DBCF21153105F9F0281B390B243031051E
:1042900080F48A819B816115710521F0FB01938374
:1042A000828304C09093BE038093BD03FE013296C7
:1042B00044C0FE01E20FF31F819391932250310914
:1042C000398328833AC02091BB033091BC03232B50
:1042D00041F420910601309107013093BC032093F3
:1042E000BB0320910401309105012115310541F4F2
:1042F0002DB73EB74091080150910901241B350BA1
:10430000E091BB03F091BC03E217F307A0F42E1B6E
:104310003F0B2817390778F0AC014E5F5F4F241729
:10432000350748F04E0F5F1F5093BC034093BB030B
:104330008193919302C0E0E0F0E0CF01DF91CF9153
:104340001F910F910895CF93DF93009709F481C0D7
:10435000FC01329713821282A091BD03B091BE037B
:10436000109781F420813181820F931F2091BB032C
:104370003091BC032817390751F5F093BC03E09343
:10438000BB0367C0ED0120E030E0CE17DF0740F44B
:104390004A815B819E0141155105F1F0EA01F5CF9B
:1043A000D383C28340815181840F951FC817D907D9
:1043B00059F488819981840F951F02969183808397
:1043C0008A819B81938382832115310529F4F0939F
:1043D000BE03E093BD033DC0E901FB83EA8349913D
:1043E0005991C40FD51FEC17FD0761F480819181AD
:1043F000840F951F0296E9019983888382819381B6
:104400009B838A83E0E0F0E012968D919C91139754
:10441000009719F0FD01DC01F7CF8D919C91119768
:104420009D012E5F3F4F820F931F2091BB03309160
:10443000BC032817390769F4309729F41092BE039A
:104440001092BD0302C013821282B093BC03A093EA
:10445000BB03DF91CF910895A9E0B0E0E2E3F2E27F
:104460000C94B8256A01122FB02E2BE3201720F0F0
:10447000FF24F394F00E02C02CE3F22E0F2D27E060
:10448000AE014F5F5F4F0E948623BC014981842F9C
:104490008970813031F0E1FC06C0E0FE06C090E298
:1044A00005C09DE203C09BE201C090E05E2D50710B
:1044B00043FF3CC0911102C083E001C084E081173A
:1044C00018F4212F281B01C020E051110BC0F60168
:1044D000822F30E2882319F031938150FBCFC20E36
:1044E000D11C20E0992329F0D6019C93F601319646
:1044F0006F01C6010396E2FE0AC03EE4D6013C937A
:1045000041E411964C93119712963C9306C03EE6F7
:10451000F601308341E641833283FC01322F40E2D1
:10452000332309F442C041933150FACF42FF44C0D3
:10453000911102C083E001C084E0811718F4212F9B
:10454000281B01C020E051110BC0F601822F30E280
:10455000882319F031938150FBCFC20ED11C20E08B
:10456000992329F0D6019C93F60131966F01C6017B
:104570000396E2FE0BC039E4D6013C933EE411966B
:104580003C93119736E412963C9307C039E6F60146
:1045900030833EE6318336E63283FC01322F40E23F
:1045A000332319F041933150FBCFFC01E20FF11D91
:1045B00010828EEF9FEFA6C021E030E0911102C083
:1045C00020E030E0161617061CF4FB01319602C0FD
:1045D000E1E0F0E02E0F3F1FBB2021F0EB2DF0E0DB
:1045E000319602C0E0E0F0E02E0F3F1FE12FF0E037
:1045F0002E173F071CF4121B212F01C020E08E2D27
:10460000887159F4F601822F30E2882319F0319332
:104610008150FBCFC20ED11C20E0992329F0D60196
:104620009C93F60131966F0151110BC0F601822F58
:1046300090E3882319F091938150FBCFC20ED11CD7
:1046400020E00F2D060F9A81342F307144FF03C0F4
:10465000913309F40150101624F4093018F008E0E1
:1046600001C001E0AB0177FF02C040E050E0FB0178
:10467000E41BF50BA1E0B0E0AC0FBD1FEA0FFB1F80
:104680008EE2A82E4B01801A91080B2D10E0119597
:10469000019511094F3FBFEF5B0721F4D601AC92A2
:1046A00011966D01641775072CF08416950614F4A5
:1046B000818101C080E3415051093196D6011196A4
:1046C0007D014017510724F0D6018C936701E2CF9A
:1046D0006417750739F4963320F4953319F43111C2
:1046E00001C081E3F6018083F701822F90E28823E5
:1046F00019F091938150FBCFF701E20FF11D108269
:1047000080E090E02996ECE00C94D425283008F065
:1047100027E03327DA01990F311D87FD916000965C
:104720006105710539F432602E5F3D9330E32A95BF
:10473000E1F708959F3F30F080387105610509F079
:104740003C5F3C5F3D93913008F08068911DDF93A2
:10475000CF931F930F93FF92EF92192F987F969507
:10476000E92F96959695E90FFF27EE53FF4F99276E
:104770003327EE24FF24A701E7010590089407944E
:1047800028F4360FE71EF81E491F511D660F771FCC
:10479000881F991F0694A1F70590079428F4E70E47
:1047A000F81E491F561FC11D770F881F991F661FCE
:1047B0000694A1F70590079428F4F80E491F561F98
:1047C000C71FD11D880F991F661F771F0694A1F779
:1047D0000590079420F4490F561FC71FD81F990F43
:1047E000661F771F881F0694A9F78491109517708C
:1047F00041F0D695C79557954795F794E7941A9544
:10480000C1F7E8E6F0E0689415901591359165914F
:10481000959105907FE27395E118F10A430B560BD1
:10482000C90BD009C0F7E10CF11E431F561FC91F69
:10483000D01D7EF4703311F48A95E6CFE8940150D0
:1048400030F0080F0AF40027021708F4202F2395F0
:10485000022F7A3328F079E37D932A95E9F710C087
:104860007D932A9589F606949795679537951795C0
:104870001794E118F10A430B560BC90BD00998F0B5
:1048800023957E9173957A3308F070E37C9320131F
:10489000B8F77E9170617D9330F0839571E37D93DD
:1048A00070E32A95E1F71124EF90FF900F911F918B
:1048B000CF91DF91992787FD909508950E94A024BC
:1048C00008F481E00895E89409C097FB3EF49095C0
:1048D0008095709561957F4F8F4F9F4F9923A9F0D9
:1048E000F92F96E9BB279395F69587957795679568
:1048F000B795F111F8CFFAF4BB0F11F460FF1BC0AC
:104900006F5F7F4F8F4F9F4F16C0882311F096E93E
:1049100011C0772321F09EE8872F762F05C06623EC
:1049200071F096E8862F70E060E02AF09A95660FA5
:10493000771F881FDAF7880F9695879597F908955E
:10494000990F0008550FAA0BE0E8FEEF16161706A0
:10495000E807F907C0F012161306E407F50798F008
:10496000621B730B840B950B39F40A2661F0232B21
:10497000242B252B21F408950A2609F4A140A6959D
:104980008FEF811D811D08950E94D7240C94482526
:104990000E943A2538F00E94412520F0952311F01D
:1049A0000C9431250C94372511240C947C250E94FD
:1049B000592570F3959FC1F3950F50E0551F629FE5
:1049C000F001729FBB27F00DB11D639FAA27F00D68
:1049D000B11DAA1F649F6627B00DA11D661F829F8F
:1049E0002227B00DA11D621F739FB00DA11D621F74
:1049F000839FA00D611D221F749F3327A00D611D91
:104A0000231F849F600D211D822F762F6A2F112472
:104A10009F5750409AF0F1F088234AF0EE0FFF1FA5
:104A2000BB1F661F771F881F91505040A9F79E3FFC
:104A3000510580F00C9431250C947C255F3FE4F304
:104A4000983ED4F3869577956795B795F795E79552
:104A50009F5FC1F7FE2B880F911D9695879597F95B
:104A6000089597F99F6780E870E060E008959FEFF0
:104A700080EC089500240A941616170618060906F5
:104A8000089500240A9412161306140605060895C4
:104A9000092E0394000C11F4882352F0BB0F40F44C
:104AA000BF2B11F460FF04C06F5F7F4F8F4F9F4F8C
:104AB000089557FD9058440F551F59F05F3F71F00E
:104AC0004795880F97FB991F61F09F3F79F0879575
:104AD0000895121613061406551FF2CF4695F1DFFE
:104AE00008C0161617061806991FF1CF869571058E
:104AF000610508940895E894BB2766277727CB01C2
:104B000097F90895262FF999FECF1FBA92BD81BD5E
:104B100020BD0FB6F894FA9AF99A0FBE019608953F
:104B2000A1E21A2EAA1BBB1BFD010DC0AA1FBB1FB1
:104B3000EE1FFF1FA217B307E407F50720F0A21B23
:104B4000B30BE40BF50B661F771F881F991F1A9490
:104B500069F760957095809590959B01AC01BD01BA
:104B6000CF0108952F923F924F925F926F927F9262
:104B70008F929F92AF92BF92CF92DF92EF92FF926D
:104B80000F931F93CF93DF93CDB7DEB7CA1BDB0B19
:104B90000FB6F894DEBF0FBECDBF09942A883988BE
:104BA00048885F846E847D848C849B84AA84B984C5
:104BB000C884DF80EE80FD800C811B81AA81B981D1
:104BC000CE0FD11D0FB6F894DEBF0FBECDBFED01E5
:104BD00008955058BB27AA270E9401260C94482507
:104BE0000E943A2538F00E94412520F039F49F3F79
:104BF00019F426F40C9437250EF4E095E7FB0C9499
:104C00003125E92F0E94592558F3BA176207730717
:104C10008407950720F079F4A6F50C947B250EF413
:104C2000E0950B2EBA2FA02D0B01B90190010C01BC
:104C3000CA01A0011124FF27591B99F0593F50F4D4
:104C4000503E68F11A16F040A22F232F342F44272C
:104C5000585FF3CF469537952795A795F040539524
:104C6000C9F77EF41F16BA0B620B730B840BBAF0F4
:104C70009150A1F0FF0FBB1F661F771F881FC2F75F
:104C80000EC0BA0F621F731F841F48F48795779573
:104C90006795B795F7959E3F08F0B0CF9395880F2D
:104CA00008F09927EE0F9795879508950E946A2638
:104CB0000C9448250E94412558F00E943A2540F066
:104CC00029F45F3F29F00C94312551110C947C2577
:104CD0000C9437250E94592568F39923B1F3552385
:104CE00091F3951B550BBB27AA27621773078407FF
:104CF00038F09F5F5F4F220F331F441FAA1FA9F395
:104D000035D00E2E3AF0E0E832D091505040E69582
:104D1000001CCAF72BD0FE2F29D0660F771F881FE3
:104D2000BB1F261737074807AB07B0E809F0BB0BD6
:104D3000802DBF01FF2793585F4F3AF09E3F5105EA
:104D400078F00C9431250C947C255F3FE4F3983E79
:104D5000D4F3869577956795B795F7959F5FC9F7D3
:104D6000880F911D9695879597F90895E1E0660F54
:104D7000771F881FBB1F621773078407BA0720F0CD
:104D8000621B730B840BBA0BEE1F88F7E095089536
:104D90000E94612588F09F5798F0B92F9927B75145
:104DA000B0F0E1F0660F771F881F991F1AF0BA95CF
:104DB000C9F714C0B13091F00E947B25B1E008958D
:104DC0000C947B25672F782F8827B85F39F0B93F7F
:104DD000CCF3869577956795B395D9F73EF4909582
:104DE0008095709561957F4F8F4F9F4F08950E94DA
:104DF000A02408F48FEF08950E94A024880B990B3B
:104E00000895EE0FFF1F0590F491E02D0994A0E0A6
:104E1000B0E0EDE0F7E20C94B625EC01009721F448
:104E2000CB010E940B21B4C0FC01E60FF71F9C01CF
:104E300022503109E217F30708F4A8C0D9010D91F7
:104E40001C91119706171707B0F00530110508F4EB
:104E50009BC0C80104978617970708F495C00250B5
:104E60001109061B170B019311936D937C93CF01CE
:104E70000E94A32189C05B01A01AB10A4C01800ED7
:104E8000911EA091BD03B091BE03612C712CE12C49
:104E9000F12C109709F446C08D919C911197A8159B
:104EA000B905B1F56C0142E0C40ED11CCA14DB0493
:104EB00078F14C018A189B08640142E0C40ED11CB1
:104EC0001296BC9012971396AC91B5E0CB16D10414
:104ED00040F0B282A38391828082D9016D937C934A
:104EE00009C00E5F1F4F800F911FF90191838083CE
:104EF000EB2DFA2FE114F10431F0D7011396FC9356
:104F0000EE93129741C0F093BE03E093BD033CC003
:104F10006816790608F43C017D0112960D90BC914B
:104F2000A02DB7CF8091BB039091BC038816990642
:104F3000E1F466167706C8F48091040190910501AA
:104F4000009741F48DB79EB7409108015091090137
:104F5000841B950BE817F907C8F4F093BC03E093A2
:104F6000BB03F901718360830FC0CB010E940B2149
:104F70007C01009759F0A801BE010E94D227CE0102
:104F80000E94A321C70104C0CE0102C080E090E0CE
:104F9000CDB7DEB7EEE00C94D22581E090E0F89436
:104FA0000C94E927FB01DC0102C001900D924150F5
:104FB0005040D8F70895DC0101C06D934150504036
:104FC000E0F70895FB01DC0101900D920020E1F76C
:104FD000089515E0C5EDD5E004C0FE010E9401274B
:0C4FE0002196C63DD107C9F7F894FFCF19
:104FEC00000070420000BF03800000000000690652
:104FFC00AB160006B60631060F06230600000000AD
:10500C002B0AFE09170BBD08F609E209D3090000AB
:10501C0000001C0BAB16170BAA165A0ABD08E608A3
:10502C00BE08DA08CE08ED08BD080807740FF20BAD
:10503C00360C0608E9077C071D07564D4450565F91
:10504C00317C315F564D4450560D0A00564D44503C
:10505C00525F007C005F564D4450520D0A00564D75
:10506C004450455F003A323A005F564D445045007B
:10507C00202020006E616E00696E66006F766600FF
:107800000C94343C0C94513C0C94513C0C94513CE1
:107810000C94513C0C94513C0C94513C0C94513CB4
:107820000C94513C0C94513C0C94513C0C94513CA4
:107830000C94513C0C94513C0C94513C0C94513C94
:107840000C94513C0C94513C0C94513C0C94513C84
:107850000C94513C0C94513C0C94513C0C94513C74
:107860000C94513C0C94513C11241FBECFEFD8E036
:10787000DEBFCDBF11E0A0E0B1E0ECE9FFE702C060
:1078800005900D92A230B107D9F712E0A2E0B1E065
:1078900001C01D92AD30B107E1F70E942D3D0C945F
:1078A000CC3F0C94003C982F959595959595959582
:1078B000905D8F708A307CF0282F295A8091C0000B
:1078C00085FFFCCF9093C6008091C00085FFFCCF60
:1078D0002093C6000895282F205DF0CF982F809127
:1078E000C00085FFFCCF9093C6000895EF92FF92F1
:1078F0000F931F93EE24FF2487018091C00087FD22
:1079000017C00894E11CF11C011D111D81E4E8164B
:1079100082E4F8068FE0080780E0180770F3E09132
:107920000401F091050109958091C00087FFE9CF1E
:107930008091C6001F910F91FF90EF9008950E94D3
:10794000763C982F8091C00085FFFCCF9093C600B5
:1079500091362CF490330CF09053892F089597555D
:10796000892F08951F930E949F3C182F0E949F3CCF
:107970001295107F810F1F9108951F93182F882350
:1079800021F00E94763C1150E1F71F9108951F935A
:10799000182F0E94763C803249F0809103018F5F5E
:1079A000809303018530C1F01F9108958091C0003C
:1079B00085FFFCCF84E18093C6008091C00085FFE5
:1079C000FCCF1093C6008091C00085FFFCCF80E102
:1079D0008093C6001F910895E0910401F091050184
:1079E00009951F9108950E94763C803241F0809164
:1079F00003018F5F80930301853081F008958091AA
:107A0000C00085FFFCCF84E18093C6008091C00058
:107A100085FFFCCF80E18093C6000895E0910401CA
:107A2000F09105010995089540E951E08823A1F0FE
:107A30002D9A28EE33E0FA013197F1F721503040CA
:107A4000D1F72D9828EE33E0FA013197F1F7215064
:107A50003040D1F7815061F708953F924F925F9285
:107A60006F927F928F929F92AF92BF92CF92DF924E
:107A7000EF92FF920F931F93CF93DF93000080E16B
:107A80008093C4001092C50088E18093C10086E015
:107A90008093C2005098589A259A81E00E94143D24
:107AA00024E1F22E9EE1E92E85E9D82E0FE0C02ECA
:107AB00010E1B12EAA24A394B1E49B2EA6E58A2E50
:107AC000F2E57F2EE0E26E2E79E4572E63E5462E36
:107AD00050E5352E0E94763C8033B1F18133B9F107
:107AE000803409F46FC0813409F476C0823409F41B
:107AF00085C0853409F488C0803531F1823521F1A3
:107B0000813511F1853509F485C0863509F48DC0BC
:107B1000843609F496C0843709F403C1853709F423
:107B200072C1863709F466C0809103018F5F80932C
:107B30000301853079F6E0910401F0910501099582
:107B40000E94763C803351F60E94F33CC3CF0E94E2
:107B5000763C803249F78091C00085FFFCCFF092DF
:107B6000C6008091C00085FFFCCF9092C600809136
:107B7000C00085FFFCCF8092C6008091C00085FFC9
:107B8000FCCF7092C6008091C00085FFFCCF609250
:107B9000C6008091C00085FFFCCF5092C600809146
:107BA000C00085FFFCCF4092C6008091C00085FFD9
:107BB000FCCF3092C6008091C00085FFFCCFB09210
:107BC000C60088CF0E94763C863808F4BDCF0E945C
:107BD000763C0E94F33C7ECF0E94763C803809F4CC
:107BE0009CC0813809F40BC1823809F43CC1883942
:107BF00009F48FC080E00E94C73C6CCF84E10E94F2
:107C0000BD3C0E94F33C66CF85E00E94BD3C0E94D3
:107C1000F33C60CF0E94763C809306010E94763C44
:107C2000809307010E94F33C55CF0E94763C80333D
:107C300009F41DC183E00E94BD3C80E00E94C73C66
:107C400049CF0E94763C809309020E94763C809343
:107C5000080280910C028E7F80930C020E94763C79
:107C6000853409F415C18091080290910902892B8D
:107C700089F000E010E00E94763CF801E85FFE4FDA
:107C800080830F5F1F4F80910802909109020817AF
:107C9000190788F30E94763C803209F045CF809125
:107CA0000C0280FF01C16091060170910701660F0F
:107CB000771F7093070160930601A0910802B091AD
:107CC00009021097C9F0E8E0F1E09B01AD014E0F09
:107CD0005F1FF999FECF32BD21BD819180BDFA9A17
:107CE000F99A2F5F3F4FE417F50799F76A0F7B1F4B
:107CF00070930701609306018091C00085FFFCCF5F
:107D0000F092C6008091C00085FFFCCFB092C60003
:107D1000E1CE83E00E94C73CDDCE82E00E94C73CFA
:107D2000D9CE0E94763C809309020E94763C8093D3
:107D300008028091060190910701880F991F909386
:107D40000701809306010E94763C853409F4A6C0A1
:107D500080910C028E7F80930C020E94763C8032D0
:107D600009F0B8CE8091C00085FFFCCFF092C6002C
:107D7000609108027091090261157105B9F140E046
:107D800050E080910C02A82FA170B82FB27011C0E2
:107D9000BB2309F45CC0E0910601F0910701319624
:107DA000F0930701E09306014F5F5F4F46175707B7
:107DB000E8F4AA2369F3F999FECF209106013091E6
:107DC000070132BD21BDF89A90B58091C00085FFB2
:107DD000FCCF9093C6002F5F3F4F30930701209355
:107DE00006014F5F5F4F4617570718F38091C00099
:107DF00085FDE5CE8091C00085FFF8CFE0CE81E023
:107E00000E94C73C67CE0E94763C803209F08CCE3F
:107E10008091C00085FFFCCFF092C6008091C00029
:107E200085FFFCCFE092C6008091C00085FFFCCFAB
:107E3000D092C6008091C00085FFFCCFC092C600E2
:107E40008091C00085FFFCCFB092C60043CEE09188
:107E50000601F091070194918091C00085FFFCCF4D
:107E60009093C6009CCF80E10E94C73C33CE0E9415
:107E7000763C0E94763C182F0E94763C112309F430
:107E800083C0113009F484C08FE00E94C73C22CE29
:107E900080910C02816080930C02E5CE80910C02EF
:107EA000816080930C0259CF809107018823880F4D
:107EB000880B8A2180930B02809106019091070123
:107EC000880F991F90930701809306018091080203
:107ED00080FF09C080910802909109020196909359
:107EE000090280930802F894F999FECF1127E091D6
:107EF0000601F0910701C8E0D1E08091080290915D
:107F00000902103091F40091570001700130D9F34B
:107F100003E000935700E89500915700017001308D
:107F2000D9F301E100935700E89509901990009169
:107F3000570001700130D9F301E000935700E89534
:107F40001395103498F011270091570001700130FB
:107F5000D9F305E000935700E895009157000170B0
:107F60000130D9F301E100935700E895329602976A
:107F700009F0C7CF103011F00296E5CF112480919F
:107F8000C00085FFB9CEBCCE8EE10E94C73CA2CD19
:0C7F900085E90E94C73C9ECDF894FFCF0D
:027F9C00800063
:040000030000780081
:00000001FF